{"contracts/factory.sol":{"VotingFactory":{"abi":[{"inputs":[{"internalType":"contract ERC20Burnable","name":"_token","type":"address"},{"internalType":"uint256","name":"_feeAmount","type":"uint256"}],"stateMutability":"nonpayable","type":"constructor"},{"anonymous":false,"inputs":[{"indexed":true,"internalType":"address","name":"previousOwner","type":"address"},{"indexed":true,"internalType":"address","name":"newOwner","type":"address"}],"name":"OwnershipTransferred","type":"event"},{"anonymous":false,"inputs":[{"indexed":true,"internalType":"address","name":"admin","type":"address"},{"indexed":false,"internalType":"address","name":"votingInstance","type":"address"},{"indexed":false,"internalType":"uint256","name":"uniqueID","type":"uint256"}],"name":"VotingCreated","type":"event"},{"anonymous":false,"inputs":[{"indexed":true,"internalType":"address","name":"owner","type":"address"}],"name":"VotingInitialized","type":"event"},{"inputs":[{"internalType":"address","name":"","type":"address"}],"name":"adminToVotingInstance","outputs":[{"internalType":"contract Voting","name":"","type":"address"}],"stateMutability":"view","type":"function"},{"inputs":[],"name":"createUserVotingInstance","outputs":[{"internalType":"address","name":"","type":"address"},{"internalType":"uint256","name":"","type":"uint256"}],"stateMutability":"payable","type":"function"},{"inputs":[{"internalType":"address","name":"admin","type":"address"}],"name":"createVotingInstance","outputs":[{"internalType":"address","name":"","type":"address"},{"internalType":"uint256","name":"","type":"uint256"}],"stateMutability":"nonpayable","type":"function"},{"inputs":[{"internalType":"address","name":"instanceAddress","type":"address"}],"name":"deleteVotingInstance","outputs":[],"stateMutability":"nonpayable","type":"function"},{"inputs":[{"internalType":"address","name":"admin","type":"address"}],"name":"getAdminInstanceAddress","outputs":[{"internalType":"address","name":"","type":"address"}],"stateMutability":"view","type":"function"},{"inputs":[{"internalType":"uint256","name":"uniqueID","type":"uint256"}],"name":"getVotingInstanceForVoter","outputs":[{"internalType":"address","name":"","type":"address"}],"stateMutability":"view","type":"function"},{"inputs":[{"internalType":"address","name":"instanceAddress","type":"address"}],"name":"getVotingInstanceID","outputs":[{"internalType":"uint256","name":"","type":"uint256"}],"stateMutability":"view","type":"function"},{"inputs":[{"internalType":"uint256","name":"","type":"uint256"}],"name":"idToVotingInstance","outputs":[{"internalType":"contract Voting","name":"","type":"address"}],"stateMutability":"view","type":"function"},{"inputs":[],"name":"listAllVotingInstances","outputs":[{"internalType":"address[]","name":"","type":"address[]"},{"internalType":"uint256[]","name":"","type":"uint256[]"}],"stateMutability":"view","type":"function"},{"inputs":[],"name":"nextUniqueID","outputs":[{"internalType":"uint256","name":"","type":"uint256"}],"stateMutability":"view","type":"function"},{"inputs":[{"internalType":"contract ERC20Burnable","name":"_token","type":"address"},{"internalType":"uint256","name":"_feeAmount","type":"uint256"}],"name":"setTokenAndFee","outputs":[],"stateMutability":"nonpayable","type":"function"},{"inputs":[],"name":"supremeAdministrator","outputs":[{"internalType":"address","name":"","type":"address"}],"stateMutability":"view","type":"function"},{"inputs":[],"name":"token","outputs":[{"internalType":"contract ERC20Burnable","name":"","type":"address"}],"stateMutability":"view","type":"function"}],"evm":{"bytecode":{"linkReferences":{},"object":"608060405260016003556006805460ff1916905534801561001f57600080fd5b50604051620039ce380380620039ce833981016040819052610040916101b9565b600080546001600160a01b0319163317905561005c8282610063565b50506101f3565b6000546001600160a01b031633146100d25760405162461bcd60e51b815260206004820152602760248201527f43616c6c6572206973206e6f74207468652073757072656d652061646d696e6960448201526639ba3930ba37b960c91b60648201526084015b60405180910390fd5b6001600160a01b0382166101285760405162461bcd60e51b815260206004820152601660248201527f496e76616c696420746f6b656e20616464726573732e0000000000000000000060448201526064016100c9565b600081116101865760405162461bcd60e51b815260206004820152602560248201527f46656520616d6f756e74206d7573742062652067726561746572207468616e206044820152643d32b9379760d91b60648201526084016100c9565b600480546001600160a01b0319166001600160a01b0393909316929092179091556005556006805460ff19166001179055565b600080604083850312156101cc57600080fd5b82516001600160a01b03811681146101e357600080fd5b6020939093015192949293505050565b6137cb80620002036000396000f3fe608060405260043610620000d25760003560e01c8063c63b5c2b1162000089578063e6b6119c1162000060578063e6b6119c146200027a578063e99b9d2d1462000284578063eebe578d14620002be578063fc0c546a14620002fb57600080fd5b8063c63b5c2b1462000209578063d2b7cc381462000230578063e58a9b91146200025557600080fd5b80630608978c14620000d75780632e4dd9a514620001165780633bac426a14620001505780637cbc613414620001775780638899c25414620001bc578063a8163cc014620001e1575b600080fd5b348015620000e457600080fd5b50600054620000f9906001600160a01b031681565b6040516001600160a01b0390911681526020015b60405180910390f35b3480156200012357600080fd5b50620000f96200013536600462000c93565b6001602052600090815260409020546001600160a01b031681565b3480156200015d57600080fd5b506200016860035481565b6040519081526020016200010d565b3480156200018457600080fd5b506200019c6200019636600462000c93565b6200031d565b604080516001600160a01b0390931683526020830191909152016200010d565b348015620001c957600080fd5b5062000168620001db36600462000c93565b62000554565b348015620001ee57600080fd5b50620001f962000674565b6040516200010d92919062000cba565b3480156200021657600080fd5b506200022e6200022836600462000d42565b62000812565b005b3480156200023d57600080fd5b506200022e6200024f36600462000c93565b62000923565b3480156200026257600080fd5b50620000f96200027436600462000d71565b62000adb565b6200019c62000b40565b3480156200029157600080fd5b50620000f9620002a336600462000d71565b6002602052600090815260409020546001600160a01b031681565b348015620002cb57600080fd5b50620000f9620002dd36600462000c93565b6001600160a01b039081166000908152600160205260409020541690565b3480156200030857600080fd5b50600454620000f9906001600160a01b031681565b6000805481906001600160a01b03163314620003565760405162461bcd60e51b81526004016200034d9062000d8b565b60405180910390fd5b6001600160a01b038381166000908152600160205260409020541615620003cc5760405162461bcd60e51b8152602060048201526024808201527f41646d696e20616c726561647920686173206120766f74696e6720696e7374616044820152633731b29760e11b60648201526084016200034d565b60065460ff161515600114620004255760405162461bcd60e51b815260206004820152601d60248201527f546f6b656e20616e642066656520616d6f756e74206e6f74207365742e00000060448201526064016200034d565b600354600080546004546005546040519394889490936001600160a01b0390811693169190620004559062000c6c565b6001600160a01b039586168152602081019490945291841660408401529092166060820152608081019190915260a001604051809103906000f080158015620004a2573d6000803e3d6000fd5b506001600160a01b03808616600090815260016020908152604080832080549486166001600160a01b0319958616811790915560038054855260029093529083208054909416179092558154929350829190620004ff8362000de8565b9091555050604080516001600160a01b038481168252602082018490528716917f29a650c7bc54146825eadc757435fc70c37c36bac1c70af8301ee8b6901f0f18910160405180910390a29092509050915091565b600080546001600160a01b03163314620005825760405162461bcd60e51b81526004016200034d9062000d8b565b6001600160a01b0382811660009081526001602052604090205416620005e65760405162461bcd60e51b815260206004820152601860248201527724b739ba30b731b2903237b2b9903737ba1032bc34b9ba1760411b60448201526064016200034d565b60015b60035481101562000631576000818152600260205260409020546001600160a01b038085169116036200061c5792915050565b80620006288162000de8565b915050620005e9565b5060405162461bcd60e51b815260206004820152601660248201527524b739ba30b731b29024a2103737ba103337bab7321760511b60448201526064016200034d565b60005460609081906001600160a01b03163314620006a65760405162461bcd60e51b81526004016200034d9062000d8b565b60006001600354620006b9919062000e04565b67ffffffffffffffff811115620006d457620006d462000e1a565b604051908082528060200260200182016040528015620006fe578160200160208202803683370190505b5090506000600160035462000714919062000e04565b67ffffffffffffffff8111156200072f576200072f62000e1a565b60405190808252806020026020018201604052801562000759578160200160208202803683370190505b50905060015b60035481101562000808576000818152600260205260409020546001600160a01b03168015620007f25780846200079860018562000e04565b81518110620007ab57620007ab62000e30565b6001600160a01b03909216602092830291909101909101528183620007d260018362000e04565b81518110620007e557620007e562000e30565b6020026020010181815250505b5080620007ff8162000de8565b9150506200075f565b5090925090509091565b6000546001600160a01b031633146200083f5760405162461bcd60e51b81526004016200034d9062000d8b565b6001600160a01b038216620008905760405162461bcd60e51b815260206004820152601660248201527524b73b30b634b2103a37b5b2b71030b2323932b9b99760511b60448201526064016200034d565b60008111620008f05760405162461bcd60e51b815260206004820152602560248201527f46656520616d6f756e74206d7573742062652067726561746572207468616e206044820152643d32b9379760d91b60648201526084016200034d565b600480546001600160a01b0319166001600160a01b0393909316929092179091556005556006805460ff19166001179055565b6000546001600160a01b03163314620009505760405162461bcd60e51b81526004016200034d9062000d8b565b6001600160a01b0381166200099b5760405162461bcd60e51b815260206004820152601060248201526f24b73b30b634b21030b2323932b9b99760811b60448201526064016200034d565b6001600160a01b0381811660009081526001602052604090205416620009ff5760405162461bcd60e51b815260206004820152601860248201527724b739ba30b731b2903237b2b9903737ba1032bc34b9ba1760411b60448201526064016200034d565b600060015b60035481101562000a4f576000818152600260205260409020546001600160a01b0380851691160362000a3a5780915062000a4f565b8062000a468162000de8565b91505062000a04565b508060000362000a9b5760405162461bcd60e51b815260206004820152601660248201527524b739ba30b731b29024a2103737ba103337bab7321760511b60448201526064016200034d565b6001600160a01b03909116600090815260016020908152604080832080546001600160a01b03199081169091559383526002909152902080549091169055565b6000818152600260205260408120546001600160a01b03168062000b3a5760405162461bcd60e51b8152602060048201526015602482015274566f746572206973206e6f7420656c696769626c6560581b60448201526064016200034d565b92915050565b60035460008054600454600554604051939485948594339492936001600160a01b03918216939091169162000b759062000c6c565b6001600160a01b039586168152602081019490945291841660408401529092166060820152608081019190915260a001604051809103906000f08015801562000bc2573d6000803e3d6000fd5b5033600090815260016020908152604080832080546001600160a01b0386166001600160a01b03199182168117909255600380548652600290945291842080549092161790558054929350829162000c1a8362000de8565b9091555050604080516001600160a01b03841681526020810183905233917f29a650c7bc54146825eadc757435fc70c37c36bac1c70af8301ee8b6901f0f18910160405180910390a290939092509050565b61294f8062000e4783390190565b6001600160a01b038116811462000c9057600080fd5b50565b60006020828403121562000ca657600080fd5b813562000cb38162000c7a565b9392505050565b604080825283519082018190526000906020906060840190828701845b8281101562000cfe5781516001600160a01b03168452928401929084019060010162000cd7565b5050508381038285015284518082528583019183019060005b8181101562000d355783518352928401929184019160010162000d17565b5090979650505050505050565b6000806040838503121562000d5657600080fd5b823562000d638162000c7a565b946020939093013593505050565b60006020828403121562000d8457600080fd5b5035919050565b60208082526027908201527f43616c6c6572206973206e6f74207468652073757072656d652061646d696e6960408201526639ba3930ba37b960c91b606082015260800190565b634e487b7160e01b600052601160045260246000fd5b60006001820162000dfd5762000dfd62000dd2565b5060010190565b8181038181111562000b3a5762000b3a62000dd2565b634e487b7160e01b600052604160045260246000fd5b634e487b7160e01b600052603260045260246000fdfe60806040523480156200001157600080fd5b506040516200294f3803806200294f833981016040819052620000349162000137565b6001546001600160a01b031615620000925760405162461bcd60e51b815260206004820152601460248201527f416c726561647920696e697469616c697a65642e000000000000000000000000604482015260640160405180910390fd5b600180546001600160a01b038088166001600160a01b03199283168117845560078890556003939093556008805487831661010002610100600160a81b03199091161790556009805491861691909216179055600a8290556040517fa9fcdaa1f6042c63ab0786fd526a2c78ae5c6fb77f547b49c99684886baa060c90600090a250505050506200019f565b6001600160a01b03811681146200013457600080fd5b50565b600080600080600060a086880312156200015057600080fd5b85516200015d816200011e565b60208701516040880151919650945062000177816200011e565b60608701519093506200018a816200011e565b80925050608086015190509295509295909350565b6127a080620001af6000396000f3fe6080604052600436106102045760003560e01c80638da5cb5b11610118578063c2e378aa116100a0578063f2fde38b1161006f578063f2fde38b146105b0578063fab2f86b146105d0578063fbb08e3e146105e5578063fc0c546a14610605578063fc35fe0d1461062557600080fd5b8063c2e378aa14610551578063e7dea02214610566578063ebc3f99e1461057b578063efb98bcf1461059b57600080fd5b806397371c04116100e757806397371c04146104b3578063a999e562146104d9578063b1cb0c21146104f9578063b293a6d11461050e578063bb20844e1461053b57600080fd5b80638da5cb5b1461042f5780638f32d59b1461044f57806390a9ab901461046f57806393d8bc051461049157600080fd5b8063462e91ec1161019b5780635c179f7e1161016a5780635c179f7e146103b657806369e15404146103cb57806372b9d616146103e157806385a38635146104035780638bc533e91461041957600080fd5b8063462e91ec1461033f578063553bd3971461035f578063581c281c146103745780635a4128ab1461038957600080fd5b8063161d4c22116101d7578063161d4c22146102b35780632a1d0547146102d75780633477ee2e146102f757806337b45f401461032557600080fd5b80630121b93f146102095780630608978c1461022b5780630e07f8801461026d578063101158af1461028f575b600080fd5b34801561021557600080fd5b50610229610224366004611e71565b610638565b005b34801561023757600080fd5b506008546102509061010090046001600160a01b031681565b6040516001600160a01b0390911681526020015b60405180910390f35b34801561027957600080fd5b50610282610849565b6040516102649190611e8a565b34801561029b57600080fd5b506102a560045481565b604051908152602001610264565b3480156102bf57600080fd5b5060085460ff165b6040519015158152602001610264565b3480156102e357600080fd5b506102296102f2366004611ef7565b6109a8565b34801561030357600080fd5b50610317610312366004611e71565b610a80565b604051610264929190611f98565b34801561033157600080fd5b506008546102c79060ff1681565b34801561034b57600080fd5b5061022961035a36600461206f565b610b3c565b34801561036b57600080fd5b50610229610c04565b34801561038057600080fd5b506102c7610c98565b34801561039557600080fd5b506102a56103a43660046120ab565b60026020526000908152604090205481565b3480156103c257600080fd5b50610229610ce5565b3480156103d757600080fd5b506102a5600a5481565b3480156103ed57600080fd5b506103f6610d8d565b60405161026491906120cf565b34801561040f57600080fd5b506102a560055481565b34801561042557600080fd5b506102a560075481565b34801561043b57600080fd5b50600154610250906001600160a01b031681565b34801561045b57600080fd5b506001546001600160a01b031633146102c7565b34801561047b57600080fd5b50610484610f52565b6040516102649190612131565b34801561049d57600080fd5b506104a6611220565b60405161026491906121a7565b3480156104bf57600080fd5b5060035433600090815260026020526040902054106102c7565b3480156104e557600080fd5b506102296104f436600461226c565b611335565b34801561050557600080fd5b506104846113a3565b34801561051a57600080fd5b506102a56105293660046120ab565b600b6020526000908152604090205481565b34801561054757600080fd5b506102a560035481565b34801561055d57600080fd5b506102a56114c0565b34801561057257600080fd5b506104a66114f4565b34801561058757600080fd5b5061022961059636600461235f565b611582565b3480156105a757600080fd5b506102a5611685565b3480156105bc57600080fd5b506102296105cb3660046120ab565b611723565b3480156105dc57600080fd5b506102296117ff565b3480156105f157600080fd5b506102296106003660046123c2565b611899565b34801561061157600080fd5b50600954610250906001600160a01b031681565b61022961063336600461244e565b6119db565b600454421015801561064b575060055442105b6106945760405162461bcd60e51b81526020600482015260156024820152742b37ba34b7339034b9903737ba1030b1ba34bb329760591b60448201526064015b60405180910390fd5b60005481106106e55760405162461bcd60e51b815260206004820152601860248201527f496e76616c69642063616e64696461746520696e6465782e0000000000000000604482015260640161068b565b60035433600090815260026020526040902054106107555760405162461bcd60e51b815260206004820152602760248201527f596f75206861766520616c726561647920766f74656420696e2074686973207360448201526632b9b9b4b7b71760c91b606482015260840161068b565b336000908152600b60205260409020546107a95760405162461bcd60e51b81526020600482015260156024820152742737ba1032b634b3b4b13632903a37903b37ba329760591b604482015260640161068b565b336000908152600b6020526040812054815490918291849081106107cf576107cf612553565b906000526020600020906002020160010160008282546107ef919061257f565b909155505060035433600081815260026020526040908190209290925590517f4d99b957a2bc29a30ebd96a7be8e68fe50a3c701db28a91436490b7d53870ca49061083d9085815260200190565b60405180910390a25050565b6001546060906001600160a01b031633146108765760405162461bcd60e51b815260040161068b90612598565b600c546000906001600160401b0381111561089357610893611fba565b6040519080825280602002602001820160405280156108d857816020015b60408051808201909152600080825260208201528152602001906001900390816108b15790505b50905060005b600c548110156109a2576040518060400160405280600c838154811061090657610906612553565b9060005260206000200160009054906101000a90046001600160a01b03166001600160a01b03168152602001600b6000600c858154811061094957610949612553565b60009182526020808320909101546001600160a01b031683528201929092526040019020549052825183908390811061098457610984612553565b6020026020010181905250808061099a906125cf565b9150506108de565b50905090565b6001546001600160a01b0316156109f85760405162461bcd60e51b815260206004820152601460248201527320b63932b0b23c9034b734ba34b0b634bd32b21760611b604482015260640161068b565b600180546001600160a01b038088166001600160a01b03199283168117845560078890556003939093556008805487831661010002610100600160a81b03199091161790556009805491861691909216179055600a8290556040517fa9fcdaa1f6042c63ab0786fd526a2c78ae5c6fb77f547b49c99684886baa060c90600090a25050505050565b60008181548110610a9057600080fd5b9060005260206000209060020201600091509050806000018054610ab3906125e8565b80601f0160208091040260200160405190810160405280929190818152602001828054610adf906125e8565b8015610b2c5780601f10610b0157610100808354040283529160200191610b2c565b820191906000526020600020905b815481529060010190602001808311610b0f57829003601f168201915b5050505050908060010154905082565b6001546001600160a01b03163314610b665760405162461bcd60e51b815260040161068b90612598565b604080518082019091528181526000602082018190528054600181018255908052815160029091027f290decd9548b62a8d60345a988386fc84ba6bc95484008f6362f93160ef3e56301908190610bbd9082612668565b506020820151816001015550507ff29562dad1599aea0ebb142466120aab326d5efa8f839df82a9c064bf78e893881604051610bf991906121a7565b60405180910390a150565b6001546001600160a01b03163314610c2e5760405162461bcd60e51b815260040161068b90612598565b60005b600c54811015610c8957600b6000600c8381548110610c5257610c52612553565b60009182526020808320909101546001600160a01b0316835282019290925260400181205580610c81816125cf565b915050610c31565b50610c96600c6000611db8565b565b6001546000906001600160a01b0316331480610cc25750336000908152600b602052604090205415155b15610cdf576004544210158015610cda575060055442105b905090565b50600090565b6001546001600160a01b03163314610d0f5760405162461bcd60e51b815260040161068b90612598565b600454421080610d20575060055442115b610d825760405162461bcd60e51b815260206004820152602d60248201527f43616e6e6f7420636c6561722063616e6469646174657320647572696e67207660448201526c37ba34b733903832b934b7b21760991b606482015260840161068b565b610c96600080611dd9565b336000908152600b6020526040902054606090151580610db757506001546001600160a01b031633145b610e175760405162461bcd60e51b815260206004820152602b60248201527f596f7520617265206e6f7420656c696769626c6520746f20736565207468652060448201526a31b0b73234b230ba32b99760a91b606482015260840161068b565b600080546001600160401b03811115610e3257610e32611fba565b604051908082528060200260200182016040528015610e6557816020015b6060815260200190600190039081610e505790505b50905060005b6000548110156109a25760008181548110610e8857610e88612553565b90600052602060002090600202016000018054610ea4906125e8565b80601f0160208091040260200160405190810160405280929190818152602001828054610ed0906125e8565b8015610f1d5780601f10610ef257610100808354040283529160200191610f1d565b820191906000526020600020905b815481529060010190602001808311610f0057829003601f168201915b5050505050828281518110610f3457610f34612553565b60200260200101819052508080610f4a906125cf565b915050610e6b565b336000908152600b6020526040902054606090610fa95760405162461bcd60e51b81526020600482015260156024820152742737ba1032b634b3b4b13632903a37903b34b2bb9760591b604482015260640161068b565b60085460ff16156110ad576000805480602002602001604051908101604052809291908181526020016000905b828210156110a45783829060005260206000209060020201604051806040016040529081600082018054611009906125e8565b80601f0160208091040260200160405190810160405280929190818152602001828054611035906125e8565b80156110825780601f1061105757610100808354040283529160200191611082565b820191906000526020600020905b81548152906001019060200180831161106557829003601f168201915b5050505050815260200160018201548152505081526020019060010190610fd6565b50505050905090565b600080546001600160401b038111156110c8576110c8611fba565b60405190808252806020026020018201604052801561110e57816020015b6040805180820190915260608152600060208201528152602001906001900390816110e65790505b50905060005b6000548110156109a2576000818154811061113157611131612553565b9060005260206000209060020201600001805461114d906125e8565b80601f0160208091040260200160405190810160405280929190818152602001828054611179906125e8565b80156111c65780601f1061119b576101008083540402835291602001916111c6565b820191906000526020600020905b8154815290600101906020018083116111a957829003601f168201915b50505050508282815181106111dd576111dd612553565b602002602001015160000181905250600082828151811061120057611200612553565b602090810291909101810151015280611218816125cf565b915050611114565b336000908152600b602052604090205460609015158061124a57506001546001600160a01b031633145b6112a55760405162461bcd60e51b815260206004820152602660248201527f596f7520617265206e6f7420656c696769626c6520746f2073656520746865206044820152653a34ba36329760d11b606482015260840161068b565b600680546112b2906125e8565b80601f01602080910402602001604051908101604052809291908181526020018280546112de906125e8565b801561132b5780601f106113005761010080835404028352916020019161132b565b820191906000526020600020905b81548152906001019060200180831161130e57829003601f168201915b5050505050905090565b6001546001600160a01b0316331461135f5760405162461bcd60e51b815260040161068b90612598565b60005b815181101561139f5761138d82828151811061138057611380612553565b6020026020010151610b3c565b80611397816125cf565b915050611362565b5050565b6001546060906001600160a01b031633146113d05760405162461bcd60e51b815260040161068b90612598565b6000805480602002602001604051908101604052809291908181526020016000905b828210156110a45783829060005260206000209060020201604051806040016040529081600082018054611425906125e8565b80601f0160208091040260200160405190810160405280929190818152602001828054611451906125e8565b801561149e5780601f106114735761010080835404028352916020019161149e565b820191906000526020600020905b81548152906001019060200180831161148157829003601f168201915b50505050508152602001600182015481525050815260200190600101906113f2565b6001546000906001600160a01b031633146114ed5760405162461bcd60e51b815260040161068b90612598565b5060075490565b60068054611501906125e8565b80601f016020809104026020016040519081016040528092919081815260200182805461152d906125e8565b801561157a5780601f1061154f5761010080835404028352916020019161157a565b820191906000526020600020905b81548152906001019060200180831161155d57829003601f168201915b505050505081565b6001546001600160a01b031633146115ac5760405162461bcd60e51b815260040161068b90612598565b6115b4610c04565b60005b825181101561168057600c8382815181106115d4576115d4612553565b60209081029190910181015182546001810184556000938452919092200180546001600160a01b0319166001600160a01b03909216919091179055815182908290811061162357611623612553565b6020026020010151600b600085848151811061164157611641612553565b60200260200101516001600160a01b03166001600160a01b03168152602001908152602001600020819055508080611678906125cf565b9150506115b7565b505050565b6001546000906001600160a01b03163314806116af5750336000908152600b602052604090205415155b15610cdf576004544210156117065760405162461bcd60e51b815260206004820152601b60248201527f566f74696e6720686173206e6f742073746172746564207965742e0000000000604482015260640161068b565b60055442106117155750600090565b42600554610cda9190612727565b6001546001600160a01b0316331461174d5760405162461bcd60e51b815260040161068b90612598565b6001600160a01b0381166117a35760405162461bcd60e51b815260206004820152601e60248201527f4e6577206f776e657220697320746865207a65726f20616464726573732e0000604482015260640161068b565b6001546040516001600160a01b038084169216907f8be0079c531659141344cd1fd0a4f28419497f9722a3daafe3b4186f6b6457e090600090a3600180546001600160a01b0319166001600160a01b0392909216919091179055565b6001546001600160a01b031633146118295760405162461bcd60e51b815260040161068b90612598565b6005544211156118935760405162461bcd60e51b815260206004820152602f60248201527f566f74696e6720686173206e6f74206265656e2073746172746564206f72206160448201526e363932b0b23c9039ba37b83832b21760891b606482015260840161068b565b42600555565b60085461010090046001600160a01b031633146119085760405162461bcd60e51b815260206004820152602760248201527f43616c6c6572206973206e6f74207468652073757072656d652061646d696e6960448201526639ba3930ba37b960c91b606482015260840161068b565b6001600160a01b0382166119575760405162461bcd60e51b815260206004820152601660248201527524b73b30b634b2103a37b5b2b71030b2323932b9b99760511b604482015260640161068b565b600081116119b55760405162461bcd60e51b815260206004820152602560248201527f46656520616d6f756e74206d7573742062652067726561746572207468616e206044820152643d32b9379760d91b606482015260840161068b565b600980546001600160a01b0319166001600160a01b039390931692909217909155600a55565b6001546001600160a01b03163314611a055760405162461bcd60e51b815260040161068b90612598565b426005541115611a7d5760405162461bcd60e51b815260206004820152603860248201527f566f74696e672068617320616c7265616479206265656e20737461727465642060448201527f6f7220686173206e6f74206265656e2073746f707065642e0000000000000000606482015260840161068b565b80341015611ae15760405162461bcd60e51b815260206004820152602b60248201527f4e6f7420656e6f756768204554482073656e7420666f722074686520766f746960448201526a373390383937b1b2b9b99760a91b606482015260840161068b565b600954604051636eb1769f60e11b81523360048201523060248201526000916001600160a01b03169063dd62ed3e90604401602060405180830381865afa158015611b30573d6000803e3d6000fd5b505050506040513d601f19601f82011682018060405250810190611b54919061273a565b9050600a54811015611bb75760405162461bcd60e51b815260206004820152602660248201527f4e6f7420656e6f75676820746f6b656e7320617070726f76656420666f72206260448201526575726e696e6760d01b606482015260840161068b565b600954600a5460405163079cc67960e41b815233600482015260248101919091526001600160a01b03909116906379cc679090604401600060405180830381600087803b158015611c0757600080fd5b505af1158015611c1b573d6000803e3d6000fd5b50505050611c2b85858585611c9f565b611c33610ce5565b611c3d8a8a611582565b611c4688611335565b6006611c528882612668565b5042600455611c628b603c612753565b611c6c904261257f565b6005556008805460ff191687151517905560038054906000611c8d836125cf565b91905055505050505050505050505050565b80341015611ce65760405162461bcd60e51b81526020600482015260146024820152732737ba1032b737bab3b41022aa241039b2b73a1760611b604482015260640161068b565b60005b83811015611d6357848482818110611d0357611d03612553565b9050602002016020810190611d1891906120ab565b6001600160a01b03166108fc849081150290604051600060405180830381858888f19350505050158015611d50573d6000803e3d6000fd5b5080611d5b816125cf565b915050611ce9565b506000611d708385612753565b611d7a9083612727565b90508015611db157604051339082156108fc029083906000818181858888f19350505050158015611daf573d6000803e3d6000fd5b505b5050505050565b5080546000825590600052602060002090810190611dd69190611dfa565b50565b5080546000825560020290600052602060002090810190611dd69190611e13565b5b80821115611e0f5760008155600101611dfb565b5090565b80821115611e0f576000611e278282611e37565b5060006001820155600201611e13565b508054611e43906125e8565b6000825580601f10611e53575050565b601f016020900490600052602060002090810190611dd69190611dfa565b600060208284031215611e8357600080fd5b5035919050565b602080825282518282018190526000919060409081850190868401855b82811015611ed557815180516001600160a01b03168552860151868501529284019290850190600101611ea7565b5091979650505050505050565b6001600160a01b0381168114611dd657600080fd5b600080600080600060a08688031215611f0f57600080fd5b8535611f1a81611ee2565b9450602086013593506040860135611f3181611ee2565b92506060860135611f4181611ee2565b949793965091946080013592915050565b6000815180845260005b81811015611f7857602081850181015186830182015201611f5c565b506000602082860101526020601f19601f83011685010191505092915050565b604081526000611fab6040830185611f52565b90508260208301529392505050565b634e487b7160e01b600052604160045260246000fd5b604051601f8201601f191681016001600160401b0381118282101715611ff857611ff8611fba565b604052919050565b600082601f83011261201157600080fd5b81356001600160401b0381111561202a5761202a611fba565b61203d601f8201601f1916602001611fd0565b81815284602083860101111561205257600080fd5b816020850160208301376000918101602001919091529392505050565b60006020828403121561208157600080fd5b81356001600160401b0381111561209757600080fd5b6120a384828501612000565b949350505050565b6000602082840312156120bd57600080fd5b81356120c881611ee2565b9392505050565b6000602080830181845280855180835260408601915060408160051b870101925083870160005b8281101561212457603f19888603018452612112858351611f52565b945092850192908501906001016120f6565b5092979650505050505050565b60006020808301818452808551808352604092508286019150828160051b87010184880160005b8381101561219957888303603f190185528151805187855261217c88860182611f52565b918901519489019490945294870194925090860190600101612158565b509098975050505050505050565b6020815260006120c86020830184611f52565b60006001600160401b038211156121d3576121d3611fba565b5060051b60200190565b600082601f8301126121ee57600080fd5b813560206122036121fe836121ba565b611fd0565b82815260059290921b8401810191818101908684111561222257600080fd5b8286015b848110156122615780356001600160401b038111156122455760008081fd5b6122538986838b0101612000565b845250918301918301612226565b509695505050505050565b60006020828403121561227e57600080fd5b81356001600160401b0381111561229457600080fd5b6120a3848285016121dd565b600082601f8301126122b157600080fd5b813560206122c16121fe836121ba565b82815260059290921b840181019181810190868411156122e057600080fd5b8286015b848110156122615780356122f781611ee2565b83529183019183016122e4565b600082601f83011261231557600080fd5b813560206123256121fe836121ba565b82815260059290921b8401810191818101908684111561234457600080fd5b8286015b848110156122615780358352918301918301612348565b6000806040838503121561237257600080fd5b82356001600160401b038082111561238957600080fd5b612395868387016122a0565b935060208501359150808211156123ab57600080fd5b506123b885828601612304565b9150509250929050565b600080604083850312156123d557600080fd5b82356123e081611ee2565b946020939093013593505050565b803580151581146123fe57600080fd5b919050565b60008083601f84011261241557600080fd5b5081356001600160401b0381111561242c57600080fd5b6020830191508360208260051b850101111561244757600080fd5b9250929050565b6000806000806000806000806000806101208b8d03121561246e57600080fd5b8a35995060208b01356001600160401b038082111561248c57600080fd5b6124988e838f016122a0565b9a5060408d01359150808211156124ae57600080fd5b6124ba8e838f01612304565b995060608d01359150808211156124d057600080fd5b6124dc8e838f016121dd565b985060808d01359150808211156124f257600080fd5b6124fe8e838f01612000565b975061250c60a08e016123ee565b965060c08d013591508082111561252257600080fd5b5061252f8d828e01612403565b9b9e9a9d50989b979a969995989760e0810135966101009091013595509350505050565b634e487b7160e01b600052603260045260246000fd5b634e487b7160e01b600052601160045260246000fd5b8082018082111561259257612592612569565b92915050565b60208082526017908201527f43616c6c6572206973206e6f7420746865206f776e6572000000000000000000604082015260600190565b6000600182016125e1576125e1612569565b5060010190565b600181811c908216806125fc57607f821691505b60208210810361261c57634e487b7160e01b600052602260045260246000fd5b50919050565b601f82111561168057600081815260208120601f850160051c810160208610156126495750805b601f850160051c820191505b81811015611daf57828155600101612655565b81516001600160401b0381111561268157612681611fba565b6126958161268f84546125e8565b84612622565b602080601f8311600181146126ca57600084156126b25750858301515b600019600386901b1c1916600185901b178555611daf565b600085815260208120601f198616915b828110156126f9578886015182559484019460019091019084016126da565b50858210156127175787850151600019600388901b60f8161c191681555b5050505050600190811b01905550565b8181038181111561259257612592612569565b60006020828403121561274c57600080fd5b5051919050565b80820281158282048414176125925761259261256956fea26469706673582212204b9047d47fe939111e5e857425cebecb0690725e381ea9d09167639f0e3866bb64736f6c63430008140033a26469706673582212206f8792112906569e8078851479ed0cd10baa28d0ee24c5749ac3a46049a14fb064736f6c63430008140033","opcodes":"PUSH1 0x80 PUSH1 0x40 MSTORE PUSH1 0x1 PUSH1 0x3 SSTORE PUSH1 0x6 DUP1 SLOAD PUSH1 0xFF NOT AND SWAP1 SSTORE CALLVALUE DUP1 ISZERO PUSH2 0x1F JUMPI PUSH1 0x0 DUP1 REVERT JUMPDEST POP PUSH1 0x40 MLOAD PUSH3 0x39CE CODESIZE SUB DUP1 PUSH3 0x39CE DUP4 CODECOPY DUP2 ADD PUSH1 0x40 DUP2 SWAP1 MSTORE PUSH2 0x40 SWAP2 PUSH2 0x1B9 JUMP JUMPDEST PUSH1 0x0 DUP1 SLOAD PUSH1 0x1 PUSH1 0x1 PUSH1 0xA0 SHL SUB NOT AND CALLER OR SWAP1 SSTORE PUSH2 0x5C DUP3 DUP3 PUSH2 0x63 JUMP JUMPDEST POP POP PUSH2 0x1F3 JUMP JUMPDEST PUSH1 0x0 SLOAD PUSH1 0x1 PUSH1 0x1 PUSH1 0xA0 SHL SUB AND CALLER EQ PUSH2 0xD2 JUMPI PUSH1 0x40 MLOAD PUSH3 0x461BCD PUSH1 0xE5 SHL DUP2 MSTORE PUSH1 0x20 PUSH1 0x4 DUP3 ADD MSTORE PUSH1 0x27 PUSH1 0x24 DUP3 ADD MSTORE PUSH32 0x43616C6C6572206973206E6F74207468652073757072656D652061646D696E69 PUSH1 0x44 DUP3 ADD MSTORE PUSH7 0x39BA3930BA37B9 PUSH1 0xC9 SHL PUSH1 0x64 DUP3 ADD MSTORE PUSH1 0x84 ADD JUMPDEST PUSH1 0x40 MLOAD DUP1 SWAP2 SUB SWAP1 REVERT JUMPDEST PUSH1 0x1 PUSH1 0x1 PUSH1 0xA0 SHL SUB DUP3 AND PUSH2 0x128 JUMPI PUSH1 0x40 MLOAD PUSH3 0x461BCD PUSH1 0xE5 SHL DUP2 MSTORE PUSH1 0x20 PUSH1 0x4 DUP3 ADD MSTORE PUSH1 0x16 PUSH1 0x24 DUP3 ADD MSTORE PUSH32 0x496E76616C696420746F6B656E20616464726573732E00000000000000000000 PUSH1 0x44 DUP3 ADD MSTORE PUSH1 0x64 ADD PUSH2 0xC9 JUMP JUMPDEST PUSH1 0x0 DUP2 GT PUSH2 0x186 JUMPI PUSH1 0x40 MLOAD PUSH3 0x461BCD PUSH1 0xE5 SHL DUP2 MSTORE PUSH1 0x20 PUSH1 0x4 DUP3 ADD MSTORE PUSH1 0x25 PUSH1 0x24 DUP3 ADD MSTORE PUSH32 0x46656520616D6F756E74206D7573742062652067726561746572207468616E20 PUSH1 0x44 DUP3 ADD MSTORE PUSH5 0x3D32B93797 PUSH1 0xD9 SHL PUSH1 0x64 DUP3 ADD MSTORE PUSH1 0x84 ADD PUSH2 0xC9 JUMP JUMPDEST PUSH1 0x4 DUP1 SLOAD PUSH1 0x1 PUSH1 0x1 PUSH1 0xA0 SHL SUB NOT AND PUSH1 0x1 PUSH1 0x1 PUSH1 0xA0 SHL SUB SWAP4 SWAP1 SWAP4 AND SWAP3 SWAP1 SWAP3 OR SWAP1 SWAP2 SSTORE PUSH1 0x5 SSTORE PUSH1 0x6 DUP1 SLOAD PUSH1 0xFF NOT AND PUSH1 0x1 OR SWAP1 SSTORE JUMP JUMPDEST PUSH1 0x0 DUP1 PUSH1 0x40 DUP4 DUP6 SUB SLT ISZERO PUSH2 0x1CC JUMPI PUSH1 0x0 DUP1 REVERT JUMPDEST DUP3 MLOAD PUSH1 0x1 PUSH1 0x1 PUSH1 0xA0 SHL SUB DUP2 AND DUP2 EQ PUSH2 0x1E3 JUMPI PUSH1 0x0 DUP1 REVERT JUMPDEST PUSH1 0x20 SWAP4 SWAP1 SWAP4 ADD MLOAD SWAP3 SWAP5 SWAP3 SWAP4 POP POP POP JUMP JUMPDEST PUSH2 0x37CB DUP1 PUSH3 0x203 PUSH1 0x0 CODECOPY PUSH1 0x0 RETURN INVALID PUSH1 0x80 PUSH1 0x40 MSTORE PUSH1 0x4 CALLDATASIZE LT PUSH3 0xD2 JUMPI PUSH1 0x0 CALLDATALOAD PUSH1 0xE0 SHR DUP1 PUSH4 0xC63B5C2B GT PUSH3 0x89 JUMPI DUP1 PUSH4 0xE6B6119C GT PUSH3 0x60 JUMPI DUP1 PUSH4 0xE6B6119C EQ PUSH3 0x27A JUMPI DUP1 PUSH4 0xE99B9D2D EQ PUSH3 0x284 JUMPI DUP1 PUSH4 0xEEBE578D EQ PUSH3 0x2BE JUMPI DUP1 PUSH4 0xFC0C546A EQ PUSH3 0x2FB JUMPI PUSH1 0x0 DUP1 REVERT JUMPDEST DUP1 PUSH4 0xC63B5C2B EQ PUSH3 0x209 JUMPI DUP1 PUSH4 0xD2B7CC38 EQ PUSH3 0x230 JUMPI DUP1 PUSH4 0xE58A9B91 EQ PUSH3 0x255 JUMPI PUSH1 0x0 DUP1 REVERT JUMPDEST DUP1 PUSH4 0x608978C EQ PUSH3 0xD7 JUMPI DUP1 PUSH4 0x2E4DD9A5 EQ PUSH3 0x116 JUMPI DUP1 PUSH4 0x3BAC426A EQ PUSH3 0x150 JUMPI DUP1 PUSH4 0x7CBC6134 EQ PUSH3 0x177 JUMPI DUP1 PUSH4 0x8899C254 EQ PUSH3 0x1BC JUMPI DUP1 PUSH4 0xA8163CC0 EQ PUSH3 0x1E1 JUMPI JUMPDEST PUSH1 0x0 DUP1 REVERT JUMPDEST CALLVALUE DUP1 ISZERO PUSH3 0xE4 JUMPI PUSH1 0x0 DUP1 REVERT JUMPDEST POP PUSH1 0x0 SLOAD PUSH3 0xF9 SWAP1 PUSH1 0x1 PUSH1 0x1 PUSH1 0xA0 SHL SUB AND DUP2 JUMP JUMPDEST PUSH1 0x40 MLOAD PUSH1 0x1 PUSH1 0x1 PUSH1 0xA0 SHL SUB SWAP1 SWAP2 AND DUP2 MSTORE PUSH1 0x20 ADD JUMPDEST PUSH1 0x40 MLOAD DUP1 SWAP2 SUB SWAP1 RETURN JUMPDEST CALLVALUE DUP1 ISZERO PUSH3 0x123 JUMPI PUSH1 0x0 DUP1 REVERT JUMPDEST POP PUSH3 0xF9 PUSH3 0x135 CALLDATASIZE PUSH1 0x4 PUSH3 0xC93 JUMP JUMPDEST PUSH1 0x1 PUSH1 0x20 MSTORE PUSH1 0x0 SWAP1 DUP2 MSTORE PUSH1 0x40 SWAP1 KECCAK256 SLOAD PUSH1 0x1 PUSH1 0x1 PUSH1 0xA0 SHL SUB AND DUP2 JUMP JUMPDEST CALLVALUE DUP1 ISZERO PUSH3 0x15D JUMPI PUSH1 0x0 DUP1 REVERT JUMPDEST POP PUSH3 0x168 PUSH1 0x3 SLOAD DUP2 JUMP JUMPDEST PUSH1 0x40 MLOAD SWAP1 DUP2 MSTORE PUSH1 0x20 ADD PUSH3 0x10D JUMP JUMPDEST CALLVALUE DUP1 ISZERO PUSH3 0x184 JUMPI PUSH1 0x0 DUP1 REVERT JUMPDEST POP PUSH3 0x19C PUSH3 0x196 CALLDATASIZE PUSH1 0x4 PUSH3 0xC93 JUMP JUMPDEST PUSH3 0x31D JUMP JUMPDEST PUSH1 0x40 DUP1 MLOAD PUSH1 0x1 PUSH1 0x1 PUSH1 0xA0 SHL SUB SWAP1 SWAP4 AND DUP4 MSTORE PUSH1 0x20 DUP4 ADD SWAP2 SWAP1 SWAP2 MSTORE ADD PUSH3 0x10D JUMP JUMPDEST CALLVALUE DUP1 ISZERO PUSH3 0x1C9 JUMPI PUSH1 0x0 DUP1 REVERT JUMPDEST POP PUSH3 0x168 PUSH3 0x1DB CALLDATASIZE PUSH1 0x4 PUSH3 0xC93 JUMP JUMPDEST PUSH3 0x554 JUMP JUMPDEST CALLVALUE DUP1 ISZERO PUSH3 0x1EE JUMPI PUSH1 0x0 DUP1 REVERT JUMPDEST POP PUSH3 0x1F9 PUSH3 0x674 JUMP JUMPDEST PUSH1 0x40 MLOAD PUSH3 0x10D SWAP3 SWAP2 SWAP1 PUSH3 0xCBA JUMP JUMPDEST CALLVALUE DUP1 ISZERO PUSH3 0x216 JUMPI PUSH1 0x0 DUP1 REVERT JUMPDEST POP PUSH3 0x22E PUSH3 0x228 CALLDATASIZE PUSH1 0x4 PUSH3 0xD42 JUMP JUMPDEST PUSH3 0x812 JUMP JUMPDEST STOP JUMPDEST CALLVALUE DUP1 ISZERO PUSH3 0x23D JUMPI PUSH1 0x0 DUP1 REVERT JUMPDEST POP PUSH3 0x22E PUSH3 0x24F CALLDATASIZE PUSH1 0x4 PUSH3 0xC93 JUMP JUMPDEST PUSH3 0x923 JUMP JUMPDEST CALLVALUE DUP1 ISZERO PUSH3 0x262 JUMPI PUSH1 0x0 DUP1 REVERT JUMPDEST POP PUSH3 0xF9 PUSH3 0x274 CALLDATASIZE PUSH1 0x4 PUSH3 0xD71 JUMP JUMPDEST PUSH3 0xADB JUMP JUMPDEST PUSH3 0x19C PUSH3 0xB40 JUMP JUMPDEST CALLVALUE DUP1 ISZERO PUSH3 0x291 JUMPI PUSH1 0x0 DUP1 REVERT JUMPDEST POP PUSH3 0xF9 PUSH3 0x2A3 CALLDATASIZE PUSH1 0x4 PUSH3 0xD71 JUMP JUMPDEST PUSH1 0x2 PUSH1 0x20 MSTORE PUSH1 0x0 SWAP1 DUP2 MSTORE PUSH1 0x40 SWAP1 KECCAK256 SLOAD PUSH1 0x1 PUSH1 0x1 PUSH1 0xA0 SHL SUB AND DUP2 JUMP JUMPDEST CALLVALUE DUP1 ISZERO PUSH3 0x2CB JUMPI PUSH1 0x0 DUP1 REVERT JUMPDEST POP PUSH3 0xF9 PUSH3 0x2DD CALLDATASIZE PUSH1 0x4 PUSH3 0xC93 JUMP JUMPDEST PUSH1 0x1 PUSH1 0x1 PUSH1 0xA0 SHL SUB SWAP1 DUP2 AND PUSH1 0x0 SWAP1 DUP2 MSTORE PUSH1 0x1 PUSH1 0x20 MSTORE PUSH1 0x40 SWAP1 KECCAK256 SLOAD AND SWAP1 JUMP JUMPDEST CALLVALUE DUP1 ISZERO PUSH3 0x308 JUMPI PUSH1 0x0 DUP1 REVERT JUMPDEST POP PUSH1 0x4 SLOAD PUSH3 0xF9 SWAP1 PUSH1 0x1 PUSH1 0x1 PUSH1 0xA0 SHL SUB AND DUP2 JUMP JUMPDEST PUSH1 0x0 DUP1 SLOAD DUP2 SWAP1 PUSH1 0x1 PUSH1 0x1 PUSH1 0xA0 SHL SUB AND CALLER EQ PUSH3 0x356 JUMPI PUSH1 0x40 MLOAD PUSH3 0x461BCD PUSH1 0xE5 SHL DUP2 MSTORE PUSH1 0x4 ADD PUSH3 0x34D SWAP1 PUSH3 0xD8B JUMP JUMPDEST PUSH1 0x40 MLOAD DUP1 SWAP2 SUB SWAP1 REVERT JUMPDEST PUSH1 0x1 PUSH1 0x1 PUSH1 0xA0 SHL SUB DUP4 DUP2 AND PUSH1 0x0 SWAP1 DUP2 MSTORE PUSH1 0x1 PUSH1 0x20 MSTORE PUSH1 0x40 SWAP1 KECCAK256 SLOAD AND ISZERO PUSH3 0x3CC JUMPI PUSH1 0x40 MLOAD PUSH3 0x461BCD PUSH1 0xE5 SHL DUP2 MSTORE PUSH1 0x20 PUSH1 0x4 DUP3 ADD MSTORE PUSH1 0x24 DUP1 DUP3 ADD MSTORE PUSH32 0x41646D696E20616C726561647920686173206120766F74696E6720696E737461 PUSH1 0x44 DUP3 ADD MSTORE PUSH4 0x3731B297 PUSH1 0xE1 SHL PUSH1 0x64 DUP3 ADD MSTORE PUSH1 0x84 ADD PUSH3 0x34D JUMP JUMPDEST PUSH1 0x6 SLOAD PUSH1 0xFF AND ISZERO ISZERO PUSH1 0x1 EQ PUSH3 0x425 JUMPI PUSH1 0x40 MLOAD PUSH3 0x461BCD PUSH1 0xE5 SHL DUP2 MSTORE PUSH1 0x20 PUSH1 0x4 DUP3 ADD MSTORE PUSH1 0x1D PUSH1 0x24 DUP3 ADD MSTORE PUSH32 0x546F6B656E20616E642066656520616D6F756E74206E6F74207365742E000000 PUSH1 0x44 DUP3 ADD MSTORE PUSH1 0x64 ADD PUSH3 0x34D JUMP JUMPDEST PUSH1 0x3 SLOAD PUSH1 0x0 DUP1 SLOAD PUSH1 0x4 SLOAD PUSH1 0x5 SLOAD PUSH1 0x40 MLOAD SWAP4 SWAP5 DUP9 SWAP5 SWAP1 SWAP4 PUSH1 0x1 PUSH1 0x1 PUSH1 0xA0 SHL SUB SWAP1 DUP2 AND SWAP4 AND SWAP2 SWAP1 PUSH3 0x455 SWAP1 PUSH3 0xC6C JUMP JUMPDEST PUSH1 0x1 PUSH1 0x1 PUSH1 0xA0 SHL SUB SWAP6 DUP7 AND DUP2 MSTORE PUSH1 0x20 DUP2 ADD SWAP5 SWAP1 SWAP5 MSTORE SWAP2 DUP5 AND PUSH1 0x40 DUP5 ADD MSTORE SWAP1 SWAP3 AND PUSH1 0x60 DUP3 ADD MSTORE PUSH1 0x80 DUP2 ADD SWAP2 SWAP1 SWAP2 MSTORE PUSH1 0xA0 ADD PUSH1 0x40 MLOAD DUP1 SWAP2 SUB SWAP1 PUSH1 0x0 CREATE DUP1 ISZERO DUP1 ISZERO PUSH3 0x4A2 JUMPI RETURNDATASIZE PUSH1 0x0 DUP1 RETURNDATACOPY RETURNDATASIZE PUSH1 0x0 REVERT JUMPDEST POP PUSH1 0x1 PUSH1 0x1 PUSH1 0xA0 SHL SUB DUP1 DUP7 AND PUSH1 0x0 SWAP1 DUP2 MSTORE PUSH1 0x1 PUSH1 0x20 SWAP1 DUP2 MSTORE PUSH1 0x40 DUP1 DUP4 KECCAK256 DUP1 SLOAD SWAP5 DUP7 AND PUSH1 0x1 PUSH1 0x1 PUSH1 0xA0 SHL SUB NOT SWAP6 DUP7 AND DUP2 OR SWAP1 SWAP2 SSTORE PUSH1 0x3 DUP1 SLOAD DUP6 MSTORE PUSH1 0x2 SWAP1 SWAP4 MSTORE SWAP1 DUP4 KECCAK256 DUP1 SLOAD SWAP1 SWAP5 AND OR SWAP1 SWAP3 SSTORE DUP2 SLOAD SWAP3 SWAP4 POP DUP3 SWAP2 SWAP1 PUSH3 0x4FF DUP4 PUSH3 0xDE8 JUMP JUMPDEST SWAP1 SWAP2 SSTORE POP POP PUSH1 0x40 DUP1 MLOAD PUSH1 0x1 PUSH1 0x1 PUSH1 0xA0 SHL SUB DUP5 DUP2 AND DUP3 MSTORE PUSH1 0x20 DUP3 ADD DUP5 SWAP1 MSTORE DUP8 AND SWAP2 PUSH32 0x29A650C7BC54146825EADC757435FC70C37C36BAC1C70AF8301EE8B6901F0F18 SWAP2 ADD PUSH1 0x40 MLOAD DUP1 SWAP2 SUB SWAP1 LOG2 SWAP1 SWAP3 POP SWAP1 POP SWAP2 POP SWAP2 JUMP JUMPDEST PUSH1 0x0 DUP1 SLOAD PUSH1 0x1 PUSH1 0x1 PUSH1 0xA0 SHL SUB AND CALLER EQ PUSH3 0x582 JUMPI PUSH1 0x40 MLOAD PUSH3 0x461BCD PUSH1 0xE5 SHL DUP2 MSTORE PUSH1 0x4 ADD PUSH3 0x34D SWAP1 PUSH3 0xD8B JUMP JUMPDEST PUSH1 0x1 PUSH1 0x1 PUSH1 0xA0 SHL SUB DUP3 DUP2 AND PUSH1 0x0 SWAP1 DUP2 MSTORE PUSH1 0x1 PUSH1 0x20 MSTORE PUSH1 0x40 SWAP1 KECCAK256 SLOAD AND PUSH3 0x5E6 JUMPI PUSH1 0x40 MLOAD PUSH3 0x461BCD PUSH1 0xE5 SHL DUP2 MSTORE PUSH1 0x20 PUSH1 0x4 DUP3 ADD MSTORE PUSH1 0x18 PUSH1 0x24 DUP3 ADD MSTORE PUSH24 0x24B739BA30B731B2903237B2B9903737BA1032BC34B9BA17 PUSH1 0x41 SHL PUSH1 0x44 DUP3 ADD MSTORE PUSH1 0x64 ADD PUSH3 0x34D JUMP JUMPDEST PUSH1 0x1 JUMPDEST PUSH1 0x3 SLOAD DUP2 LT ISZERO PUSH3 0x631 JUMPI PUSH1 0x0 DUP2 DUP2 MSTORE PUSH1 0x2 PUSH1 0x20 MSTORE PUSH1 0x40 SWAP1 KECCAK256 SLOAD PUSH1 0x1 PUSH1 0x1 PUSH1 0xA0 SHL SUB DUP1 DUP6 AND SWAP2 AND SUB PUSH3 0x61C JUMPI SWAP3 SWAP2 POP POP JUMP JUMPDEST DUP1 PUSH3 0x628 DUP2 PUSH3 0xDE8 JUMP JUMPDEST SWAP2 POP POP PUSH3 0x5E9 JUMP JUMPDEST POP PUSH1 0x40 MLOAD PUSH3 0x461BCD PUSH1 0xE5 SHL DUP2 MSTORE PUSH1 0x20 PUSH1 0x4 DUP3 ADD MSTORE PUSH1 0x16 PUSH1 0x24 DUP3 ADD MSTORE PUSH22 0x24B739BA30B731B29024A2103737BA103337BAB73217 PUSH1 0x51 SHL PUSH1 0x44 DUP3 ADD MSTORE PUSH1 0x64 ADD PUSH3 0x34D JUMP JUMPDEST PUSH1 0x0 SLOAD PUSH1 0x60 SWAP1 DUP2 SWAP1 PUSH1 0x1 PUSH1 0x1 PUSH1 0xA0 SHL SUB AND CALLER EQ PUSH3 0x6A6 JUMPI PUSH1 0x40 MLOAD PUSH3 0x461BCD PUSH1 0xE5 SHL DUP2 MSTORE PUSH1 0x4 ADD PUSH3 0x34D SWAP1 PUSH3 0xD8B JUMP JUMPDEST PUSH1 0x0 PUSH1 0x1 PUSH1 0x3 SLOAD PUSH3 0x6B9 SWAP2 SWAP1 PUSH3 0xE04 JUMP JUMPDEST PUSH8 0xFFFFFFFFFFFFFFFF DUP2 GT ISZERO PUSH3 0x6D4 JUMPI PUSH3 0x6D4 PUSH3 0xE1A JUMP JUMPDEST PUSH1 0x40 MLOAD SWAP1 DUP1 DUP3 MSTORE DUP1 PUSH1 0x20 MUL PUSH1 0x20 ADD DUP3 ADD PUSH1 0x40 MSTORE DUP1 ISZERO PUSH3 0x6FE JUMPI DUP2 PUSH1 0x20 ADD PUSH1 0x20 DUP3 MUL DUP1 CALLDATASIZE DUP4 CALLDATACOPY ADD SWAP1 POP JUMPDEST POP SWAP1 POP PUSH1 0x0 PUSH1 0x1 PUSH1 0x3 SLOAD PUSH3 0x714 SWAP2 SWAP1 PUSH3 0xE04 JUMP JUMPDEST PUSH8 0xFFFFFFFFFFFFFFFF DUP2 GT ISZERO PUSH3 0x72F JUMPI PUSH3 0x72F PUSH3 0xE1A JUMP JUMPDEST PUSH1 0x40 MLOAD SWAP1 DUP1 DUP3 MSTORE DUP1 PUSH1 0x20 MUL PUSH1 0x20 ADD DUP3 ADD PUSH1 0x40 MSTORE DUP1 ISZERO PUSH3 0x759 JUMPI DUP2 PUSH1 0x20 ADD PUSH1 0x20 DUP3 MUL DUP1 CALLDATASIZE DUP4 CALLDATACOPY ADD SWAP1 POP JUMPDEST POP SWAP1 POP PUSH1 0x1 JUMPDEST PUSH1 0x3 SLOAD DUP2 LT ISZERO PUSH3 0x808 JUMPI PUSH1 0x0 DUP2 DUP2 MSTORE PUSH1 0x2 PUSH1 0x20 MSTORE PUSH1 0x40 SWAP1 KECCAK256 SLOAD PUSH1 0x1 PUSH1 0x1 PUSH1 0xA0 SHL SUB AND DUP1 ISZERO PUSH3 0x7F2 JUMPI DUP1 DUP5 PUSH3 0x798 PUSH1 0x1 DUP6 PUSH3 0xE04 JUMP JUMPDEST DUP2 MLOAD DUP2 LT PUSH3 0x7AB JUMPI PUSH3 0x7AB PUSH3 0xE30 JUMP JUMPDEST PUSH1 0x1 PUSH1 0x1 PUSH1 0xA0 SHL SUB SWAP1 SWAP3 AND PUSH1 0x20 SWAP3 DUP4 MUL SWAP2 SWAP1 SWAP2 ADD SWAP1 SWAP2 ADD MSTORE DUP2 DUP4 PUSH3 0x7D2 PUSH1 0x1 DUP4 PUSH3 0xE04 JUMP JUMPDEST DUP2 MLOAD DUP2 LT PUSH3 0x7E5 JUMPI PUSH3 0x7E5 PUSH3 0xE30 JUMP JUMPDEST PUSH1 0x20 MUL PUSH1 0x20 ADD ADD DUP2 DUP2 MSTORE POP POP JUMPDEST POP DUP1 PUSH3 0x7FF DUP2 PUSH3 0xDE8 JUMP JUMPDEST SWAP2 POP POP PUSH3 0x75F JUMP JUMPDEST POP SWAP1 SWAP3 POP SWAP1 POP SWAP1 SWAP2 JUMP JUMPDEST PUSH1 0x0 SLOAD PUSH1 0x1 PUSH1 0x1 PUSH1 0xA0 SHL SUB AND CALLER EQ PUSH3 0x83F JUMPI PUSH1 0x40 MLOAD PUSH3 0x461BCD PUSH1 0xE5 SHL DUP2 MSTORE PUSH1 0x4 ADD PUSH3 0x34D SWAP1 PUSH3 0xD8B JUMP JUMPDEST PUSH1 0x1 PUSH1 0x1 PUSH1 0xA0 SHL SUB DUP3 AND PUSH3 0x890 JUMPI PUSH1 0x40 MLOAD PUSH3 0x461BCD PUSH1 0xE5 SHL DUP2 MSTORE PUSH1 0x20 PUSH1 0x4 DUP3 ADD MSTORE PUSH1 0x16 PUSH1 0x24 DUP3 ADD MSTORE PUSH22 0x24B73B30B634B2103A37B5B2B71030B2323932B9B997 PUSH1 0x51 SHL PUSH1 0x44 DUP3 ADD MSTORE PUSH1 0x64 ADD PUSH3 0x34D JUMP JUMPDEST PUSH1 0x0 DUP2 GT PUSH3 0x8F0 JUMPI PUSH1 0x40 MLOAD PUSH3 0x461BCD PUSH1 0xE5 SHL DUP2 MSTORE PUSH1 0x20 PUSH1 0x4 DUP3 ADD MSTORE PUSH1 0x25 PUSH1 0x24 DUP3 ADD MSTORE PUSH32 0x46656520616D6F756E74206D7573742062652067726561746572207468616E20 PUSH1 0x44 DUP3 ADD MSTORE PUSH5 0x3D32B93797 PUSH1 0xD9 SHL PUSH1 0x64 DUP3 ADD MSTORE PUSH1 0x84 ADD PUSH3 0x34D JUMP JUMPDEST PUSH1 0x4 DUP1 SLOAD PUSH1 0x1 PUSH1 0x1 PUSH1 0xA0 SHL SUB NOT AND PUSH1 0x1 PUSH1 0x1 PUSH1 0xA0 SHL SUB SWAP4 SWAP1 SWAP4 AND SWAP3 SWAP1 SWAP3 OR SWAP1 SWAP2 SSTORE PUSH1 0x5 SSTORE PUSH1 0x6 DUP1 SLOAD PUSH1 0xFF NOT AND PUSH1 0x1 OR SWAP1 SSTORE JUMP JUMPDEST PUSH1 0x0 SLOAD PUSH1 0x1 PUSH1 0x1 PUSH1 0xA0 SHL SUB AND CALLER EQ PUSH3 0x950 JUMPI PUSH1 0x40 MLOAD PUSH3 0x461BCD PUSH1 0xE5 SHL DUP2 MSTORE PUSH1 0x4 ADD PUSH3 0x34D SWAP1 PUSH3 0xD8B JUMP JUMPDEST PUSH1 0x1 PUSH1 0x1 PUSH1 0xA0 SHL SUB DUP2 AND PUSH3 0x99B JUMPI PUSH1 0x40 MLOAD PUSH3 0x461BCD PUSH1 0xE5 SHL DUP2 MSTORE PUSH1 0x20 PUSH1 0x4 DUP3 ADD MSTORE PUSH1 0x10 PUSH1 0x24 DUP3 ADD MSTORE PUSH16 0x24B73B30B634B21030B2323932B9B997 PUSH1 0x81 SHL PUSH1 0x44 DUP3 ADD MSTORE PUSH1 0x64 ADD PUSH3 0x34D JUMP JUMPDEST PUSH1 0x1 PUSH1 0x1 PUSH1 0xA0 SHL SUB DUP2 DUP2 AND PUSH1 0x0 SWAP1 DUP2 MSTORE PUSH1 0x1 PUSH1 0x20 MSTORE PUSH1 0x40 SWAP1 KECCAK256 SLOAD AND PUSH3 0x9FF JUMPI PUSH1 0x40 MLOAD PUSH3 0x461BCD PUSH1 0xE5 SHL DUP2 MSTORE PUSH1 0x20 PUSH1 0x4 DUP3 ADD MSTORE PUSH1 0x18 PUSH1 0x24 DUP3 ADD MSTORE PUSH24 0x24B739BA30B731B2903237B2B9903737BA1032BC34B9BA17 PUSH1 0x41 SHL PUSH1 0x44 DUP3 ADD MSTORE PUSH1 0x64 ADD PUSH3 0x34D JUMP JUMPDEST PUSH1 0x0 PUSH1 0x1 JUMPDEST PUSH1 0x3 SLOAD DUP2 LT ISZERO PUSH3 0xA4F JUMPI PUSH1 0x0 DUP2 DUP2 MSTORE PUSH1 0x2 PUSH1 0x20 MSTORE PUSH1 0x40 SWAP1 KECCAK256 SLOAD PUSH1 0x1 PUSH1 0x1 PUSH1 0xA0 SHL SUB DUP1 DUP6 AND SWAP2 AND SUB PUSH3 0xA3A JUMPI DUP1 SWAP2 POP PUSH3 0xA4F JUMP JUMPDEST DUP1 PUSH3 0xA46 DUP2 PUSH3 0xDE8 JUMP JUMPDEST SWAP2 POP POP PUSH3 0xA04 JUMP JUMPDEST POP DUP1 PUSH1 0x0 SUB PUSH3 0xA9B JUMPI PUSH1 0x40 MLOAD PUSH3 0x461BCD PUSH1 0xE5 SHL DUP2 MSTORE PUSH1 0x20 PUSH1 0x4 DUP3 ADD MSTORE PUSH1 0x16 PUSH1 0x24 DUP3 ADD MSTORE PUSH22 0x24B739BA30B731B29024A2103737BA103337BAB73217 PUSH1 0x51 SHL PUSH1 0x44 DUP3 ADD MSTORE PUSH1 0x64 ADD PUSH3 0x34D JUMP JUMPDEST PUSH1 0x1 PUSH1 0x1 PUSH1 0xA0 SHL SUB SWAP1 SWAP2 AND PUSH1 0x0 SWAP1 DUP2 MSTORE PUSH1 0x1 PUSH1 0x20 SWAP1 DUP2 MSTORE PUSH1 0x40 DUP1 DUP4 KECCAK256 DUP1 SLOAD PUSH1 0x1 PUSH1 0x1 PUSH1 0xA0 SHL SUB NOT SWAP1 DUP2 AND SWAP1 SWAP2 SSTORE SWAP4 DUP4 MSTORE PUSH1 0x2 SWAP1 SWAP2 MSTORE SWAP1 KECCAK256 DUP1 SLOAD SWAP1 SWAP2 AND SWAP1 SSTORE JUMP JUMPDEST PUSH1 0x0 DUP2 DUP2 MSTORE PUSH1 0x2 PUSH1 0x20 MSTORE PUSH1 0x40 DUP2 KECCAK256 SLOAD PUSH1 0x1 PUSH1 0x1 PUSH1 0xA0 SHL SUB AND DUP1 PUSH3 0xB3A JUMPI PUSH1 0x40 MLOAD PUSH3 0x461BCD PUSH1 0xE5 SHL DUP2 MSTORE PUSH1 0x20 PUSH1 0x4 DUP3 ADD MSTORE PUSH1 0x15 PUSH1 0x24 DUP3 ADD MSTORE PUSH21 0x566F746572206973206E6F7420656C696769626C65 PUSH1 0x58 SHL PUSH1 0x44 DUP3 ADD MSTORE PUSH1 0x64 ADD PUSH3 0x34D JUMP JUMPDEST SWAP3 SWAP2 POP POP JUMP JUMPDEST PUSH1 0x3 SLOAD PUSH1 0x0 DUP1 SLOAD PUSH1 0x4 SLOAD PUSH1 0x5 SLOAD PUSH1 0x40 MLOAD SWAP4 SWAP5 DUP6 SWAP5 DUP6 SWAP5 CALLER SWAP5 SWAP3 SWAP4 PUSH1 0x1 PUSH1 0x1 PUSH1 0xA0 SHL SUB SWAP2 DUP3 AND SWAP4 SWAP1 SWAP2 AND SWAP2 PUSH3 0xB75 SWAP1 PUSH3 0xC6C JUMP JUMPDEST PUSH1 0x1 PUSH1 0x1 PUSH1 0xA0 SHL SUB SWAP6 DUP7 AND DUP2 MSTORE PUSH1 0x20 DUP2 ADD SWAP5 SWAP1 SWAP5 MSTORE SWAP2 DUP5 AND PUSH1 0x40 DUP5 ADD MSTORE SWAP1 SWAP3 AND PUSH1 0x60 DUP3 ADD MSTORE PUSH1 0x80 DUP2 ADD SWAP2 SWAP1 SWAP2 MSTORE PUSH1 0xA0 ADD PUSH1 0x40 MLOAD DUP1 SWAP2 SUB SWAP1 PUSH1 0x0 CREATE DUP1 ISZERO DUP1 ISZERO PUSH3 0xBC2 JUMPI RETURNDATASIZE PUSH1 0x0 DUP1 RETURNDATACOPY RETURNDATASIZE PUSH1 0x0 REVERT JUMPDEST POP CALLER PUSH1 0x0 SWAP1 DUP2 MSTORE PUSH1 0x1 PUSH1 0x20 SWAP1 DUP2 MSTORE PUSH1 0x40 DUP1 DUP4 KECCAK256 DUP1 SLOAD PUSH1 0x1 PUSH1 0x1 PUSH1 0xA0 SHL SUB DUP7 AND PUSH1 0x1 PUSH1 0x1 PUSH1 0xA0 SHL SUB NOT SWAP2 DUP3 AND DUP2 OR SWAP1 SWAP3 SSTORE PUSH1 0x3 DUP1 SLOAD DUP7 MSTORE PUSH1 0x2 SWAP1 SWAP5 MSTORE SWAP2 DUP5 KECCAK256 DUP1 SLOAD SWAP1 SWAP3 AND OR SWAP1 SSTORE DUP1 SLOAD SWAP3 SWAP4 POP DUP3 SWAP2 PUSH3 0xC1A DUP4 PUSH3 0xDE8 JUMP JUMPDEST SWAP1 SWAP2 SSTORE POP POP PUSH1 0x40 DUP1 MLOAD PUSH1 0x1 PUSH1 0x1 PUSH1 0xA0 SHL SUB DUP5 AND DUP2 MSTORE PUSH1 0x20 DUP2 ADD DUP4 SWAP1 MSTORE CALLER SWAP2 PUSH32 0x29A650C7BC54146825EADC757435FC70C37C36BAC1C70AF8301EE8B6901F0F18 SWAP2 ADD PUSH1 0x40 MLOAD DUP1 SWAP2 SUB SWAP1 LOG2 SWAP1 SWAP4 SWAP1 SWAP3 POP SWAP1 POP JUMP JUMPDEST PUSH2 0x294F DUP1 PUSH3 0xE47 DUP4 CODECOPY ADD SWAP1 JUMP JUMPDEST PUSH1 0x1 PUSH1 0x1 PUSH1 0xA0 SHL SUB DUP2 AND DUP2 EQ PUSH3 0xC90 JUMPI PUSH1 0x0 DUP1 REVERT JUMPDEST POP JUMP JUMPDEST PUSH1 0x0 PUSH1 0x20 DUP3 DUP5 SUB SLT ISZERO PUSH3 0xCA6 JUMPI PUSH1 0x0 DUP1 REVERT JUMPDEST DUP2 CALLDATALOAD PUSH3 0xCB3 DUP2 PUSH3 0xC7A JUMP JUMPDEST SWAP4 SWAP3 POP POP POP JUMP JUMPDEST PUSH1 0x40 DUP1 DUP3 MSTORE DUP4 MLOAD SWAP1 DUP3 ADD DUP2 SWAP1 MSTORE PUSH1 0x0 SWAP1 PUSH1 0x20 SWAP1 PUSH1 0x60 DUP5 ADD SWAP1 DUP3 DUP8 ADD DUP5 JUMPDEST DUP3 DUP2 LT ISZERO PUSH3 0xCFE JUMPI DUP2 MLOAD PUSH1 0x1 PUSH1 0x1 PUSH1 0xA0 SHL SUB AND DUP5 MSTORE SWAP3 DUP5 ADD SWAP3 SWAP1 DUP5 ADD SWAP1 PUSH1 0x1 ADD PUSH3 0xCD7 JUMP JUMPDEST POP POP POP DUP4 DUP2 SUB DUP3 DUP6 ADD MSTORE DUP5 MLOAD DUP1 DUP3 MSTORE DUP6 DUP4 ADD SWAP2 DUP4 ADD SWAP1 PUSH1 0x0 JUMPDEST DUP2 DUP2 LT ISZERO PUSH3 0xD35 JUMPI DUP4 MLOAD DUP4 MSTORE SWAP3 DUP5 ADD SWAP3 SWAP2 DUP5 ADD SWAP2 PUSH1 0x1 ADD PUSH3 0xD17 JUMP JUMPDEST POP SWAP1 SWAP8 SWAP7 POP POP POP POP POP POP POP JUMP JUMPDEST PUSH1 0x0 DUP1 PUSH1 0x40 DUP4 DUP6 SUB SLT ISZERO PUSH3 0xD56 JUMPI PUSH1 0x0 DUP1 REVERT JUMPDEST DUP3 CALLDATALOAD PUSH3 0xD63 DUP2 PUSH3 0xC7A JUMP JUMPDEST SWAP5 PUSH1 0x20 SWAP4 SWAP1 SWAP4 ADD CALLDATALOAD SWAP4 POP POP POP JUMP JUMPDEST PUSH1 0x0 PUSH1 0x20 DUP3 DUP5 SUB SLT ISZERO PUSH3 0xD84 JUMPI PUSH1 0x0 DUP1 REVERT JUMPDEST POP CALLDATALOAD SWAP2 SWAP1 POP JUMP JUMPDEST PUSH1 0x20 DUP1 DUP3 MSTORE PUSH1 0x27 SWAP1 DUP3 ADD MSTORE PUSH32 0x43616C6C6572206973206E6F74207468652073757072656D652061646D696E69 PUSH1 0x40 DUP3 ADD MSTORE PUSH7 0x39BA3930BA37B9 PUSH1 0xC9 SHL PUSH1 0x60 DUP3 ADD MSTORE PUSH1 0x80 ADD SWAP1 JUMP JUMPDEST PUSH4 0x4E487B71 PUSH1 0xE0 SHL PUSH1 0x0 MSTORE PUSH1 0x11 PUSH1 0x4 MSTORE PUSH1 0x24 PUSH1 0x0 REVERT JUMPDEST PUSH1 0x0 PUSH1 0x1 DUP3 ADD PUSH3 0xDFD JUMPI PUSH3 0xDFD PUSH3 0xDD2 JUMP JUMPDEST POP PUSH1 0x1 ADD SWAP1 JUMP JUMPDEST DUP2 DUP2 SUB DUP2 DUP2 GT ISZERO PUSH3 0xB3A JUMPI PUSH3 0xB3A PUSH3 0xDD2 JUMP JUMPDEST PUSH4 0x4E487B71 PUSH1 0xE0 SHL PUSH1 0x0 MSTORE PUSH1 0x41 PUSH1 0x4 MSTORE PUSH1 0x24 PUSH1 0x0 REVERT JUMPDEST PUSH4 0x4E487B71 PUSH1 0xE0 SHL PUSH1 0x0 MSTORE PUSH1 0x32 PUSH1 0x4 MSTORE PUSH1 0x24 PUSH1 0x0 REVERT INVALID PUSH1 0x80 PUSH1 0x40 MSTORE CALLVALUE DUP1 ISZERO PUSH3 0x11 JUMPI PUSH1 0x0 DUP1 REVERT JUMPDEST POP PUSH1 0x40 MLOAD PUSH3 0x294F CODESIZE SUB DUP1 PUSH3 0x294F DUP4 CODECOPY DUP2 ADD PUSH1 0x40 DUP2 SWAP1 MSTORE PUSH3 0x34 SWAP2 PUSH3 0x137 JUMP JUMPDEST PUSH1 0x1 SLOAD PUSH1 0x1 PUSH1 0x1 PUSH1 0xA0 SHL SUB AND ISZERO PUSH3 0x92 JUMPI PUSH1 0x40 MLOAD PUSH3 0x461BCD PUSH1 0xE5 SHL DUP2 MSTORE PUSH1 0x20 PUSH1 0x4 DUP3 ADD MSTORE PUSH1 0x14 PUSH1 0x24 DUP3 ADD MSTORE PUSH32 0x416C726561647920696E697469616C697A65642E000000000000000000000000 PUSH1 0x44 DUP3 ADD MSTORE PUSH1 0x64 ADD PUSH1 0x40 MLOAD DUP1 SWAP2 SUB SWAP1 REVERT JUMPDEST PUSH1 0x1 DUP1 SLOAD PUSH1 0x1 PUSH1 0x1 PUSH1 0xA0 SHL SUB DUP1 DUP9 AND PUSH1 0x1 PUSH1 0x1 PUSH1 0xA0 SHL SUB NOT SWAP3 DUP4 AND DUP2 OR DUP5 SSTORE PUSH1 0x7 DUP9 SWAP1 SSTORE PUSH1 0x3 SWAP4 SWAP1 SWAP4 SSTORE PUSH1 0x8 DUP1 SLOAD DUP8 DUP4 AND PUSH2 0x100 MUL PUSH2 0x100 PUSH1 0x1 PUSH1 0xA8 SHL SUB NOT SWAP1 SWAP2 AND OR SWAP1 SSTORE PUSH1 0x9 DUP1 SLOAD SWAP2 DUP7 AND SWAP2 SWAP1 SWAP3 AND OR SWAP1 SSTORE PUSH1 0xA DUP3 SWAP1 SSTORE PUSH1 0x40 MLOAD PUSH32 0xA9FCDAA1F6042C63AB0786FD526A2C78AE5C6FB77F547B49C99684886BAA060C SWAP1 PUSH1 0x0 SWAP1 LOG2 POP POP POP POP POP PUSH3 0x19F JUMP JUMPDEST PUSH1 0x1 PUSH1 0x1 PUSH1 0xA0 SHL SUB DUP2 AND DUP2 EQ PUSH3 0x134 JUMPI PUSH1 0x0 DUP1 REVERT JUMPDEST POP JUMP JUMPDEST PUSH1 0x0 DUP1 PUSH1 0x0 DUP1 PUSH1 0x0 PUSH1 0xA0 DUP7 DUP9 SUB SLT ISZERO PUSH3 0x150 JUMPI PUSH1 0x0 DUP1 REVERT JUMPDEST DUP6 MLOAD PUSH3 0x15D DUP2 PUSH3 0x11E JUMP JUMPDEST PUSH1 0x20 DUP8 ADD MLOAD PUSH1 0x40 DUP9 ADD MLOAD SWAP2 SWAP7 POP SWAP5 POP PUSH3 0x177 DUP2 PUSH3 0x11E JUMP JUMPDEST PUSH1 0x60 DUP8 ADD MLOAD SWAP1 SWAP4 POP PUSH3 0x18A DUP2 PUSH3 0x11E JUMP JUMPDEST DUP1 SWAP3 POP POP PUSH1 0x80 DUP7 ADD MLOAD SWAP1 POP SWAP3 SWAP6 POP SWAP3 SWAP6 SWAP1 SWAP4 POP JUMP JUMPDEST PUSH2 0x27A0 DUP1 PUSH3 0x1AF PUSH1 0x0 CODECOPY PUSH1 0x0 RETURN INVALID PUSH1 0x80 PUSH1 0x40 MSTORE PUSH1 0x4 CALLDATASIZE LT PUSH2 0x204 JUMPI PUSH1 0x0 CALLDATALOAD PUSH1 0xE0 SHR DUP1 PUSH4 0x8DA5CB5B GT PUSH2 0x118 JUMPI DUP1 PUSH4 0xC2E378AA GT PUSH2 0xA0 JUMPI DUP1 PUSH4 0xF2FDE38B GT PUSH2 0x6F JUMPI DUP1 PUSH4 0xF2FDE38B EQ PUSH2 0x5B0 JUMPI DUP1 PUSH4 0xFAB2F86B EQ PUSH2 0x5D0 JUMPI DUP1 PUSH4 0xFBB08E3E EQ PUSH2 0x5E5 JUMPI DUP1 PUSH4 0xFC0C546A EQ PUSH2 0x605 JUMPI DUP1 PUSH4 0xFC35FE0D EQ PUSH2 0x625 JUMPI PUSH1 0x0 DUP1 REVERT JUMPDEST DUP1 PUSH4 0xC2E378AA EQ PUSH2 0x551 JUMPI DUP1 PUSH4 0xE7DEA022 EQ PUSH2 0x566 JUMPI DUP1 PUSH4 0xEBC3F99E EQ PUSH2 0x57B JUMPI DUP1 PUSH4 0xEFB98BCF EQ PUSH2 0x59B JUMPI PUSH1 0x0 DUP1 REVERT JUMPDEST DUP1 PUSH4 0x97371C04 GT PUSH2 0xE7 JUMPI DUP1 PUSH4 0x97371C04 EQ PUSH2 0x4B3 JUMPI DUP1 PUSH4 0xA999E562 EQ PUSH2 0x4D9 JUMPI DUP1 PUSH4 0xB1CB0C21 EQ PUSH2 0x4F9 JUMPI DUP1 PUSH4 0xB293A6D1 EQ PUSH2 0x50E JUMPI DUP1 PUSH4 0xBB20844E EQ PUSH2 0x53B JUMPI PUSH1 0x0 DUP1 REVERT JUMPDEST DUP1 PUSH4 0x8DA5CB5B EQ PUSH2 0x42F JUMPI DUP1 PUSH4 0x8F32D59B EQ PUSH2 0x44F JUMPI DUP1 PUSH4 0x90A9AB90 EQ PUSH2 0x46F JUMPI DUP1 PUSH4 0x93D8BC05 EQ PUSH2 0x491 JUMPI PUSH1 0x0 DUP1 REVERT JUMPDEST DUP1 PUSH4 0x462E91EC GT PUSH2 0x19B JUMPI DUP1 PUSH4 0x5C179F7E GT PUSH2 0x16A JUMPI DUP1 PUSH4 0x5C179F7E EQ PUSH2 0x3B6 JUMPI DUP1 PUSH4 0x69E15404 EQ PUSH2 0x3CB JUMPI DUP1 PUSH4 0x72B9D616 EQ PUSH2 0x3E1 JUMPI DUP1 PUSH4 0x85A38635 EQ PUSH2 0x403 JUMPI DUP1 PUSH4 0x8BC533E9 EQ PUSH2 0x419 JUMPI PUSH1 0x0 DUP1 REVERT JUMPDEST DUP1 PUSH4 0x462E91EC EQ PUSH2 0x33F JUMPI DUP1 PUSH4 0x553BD397 EQ PUSH2 0x35F JUMPI DUP1 PUSH4 0x581C281C EQ PUSH2 0x374 JUMPI DUP1 PUSH4 0x5A4128AB EQ PUSH2 0x389 JUMPI PUSH1 0x0 DUP1 REVERT JUMPDEST DUP1 PUSH4 0x161D4C22 GT PUSH2 0x1D7 JUMPI DUP1 PUSH4 0x161D4C22 EQ PUSH2 0x2B3 JUMPI DUP1 PUSH4 0x2A1D0547 EQ PUSH2 0x2D7 JUMPI DUP1 PUSH4 0x3477EE2E EQ PUSH2 0x2F7 JUMPI DUP1 PUSH4 0x37B45F40 EQ PUSH2 0x325 JUMPI PUSH1 0x0 DUP1 REVERT JUMPDEST DUP1 PUSH4 0x121B93F EQ PUSH2 0x209 JUMPI DUP1 PUSH4 0x608978C EQ PUSH2 0x22B JUMPI DUP1 PUSH4 0xE07F880 EQ PUSH2 0x26D JUMPI DUP1 PUSH4 0x101158AF EQ PUSH2 0x28F JUMPI JUMPDEST PUSH1 0x0 DUP1 REVERT JUMPDEST CALLVALUE DUP1 ISZERO PUSH2 0x215 JUMPI PUSH1 0x0 DUP1 REVERT JUMPDEST POP PUSH2 0x229 PUSH2 0x224 CALLDATASIZE PUSH1 0x4 PUSH2 0x1E71 JUMP JUMPDEST PUSH2 0x638 JUMP JUMPDEST STOP JUMPDEST CALLVALUE DUP1 ISZERO PUSH2 0x237 JUMPI PUSH1 0x0 DUP1 REVERT JUMPDEST POP PUSH1 0x8 SLOAD PUSH2 0x250 SWAP1 PUSH2 0x100 SWAP1 DIV PUSH1 0x1 PUSH1 0x1 PUSH1 0xA0 SHL SUB AND DUP2 JUMP JUMPDEST PUSH1 0x40 MLOAD PUSH1 0x1 PUSH1 0x1 PUSH1 0xA0 SHL SUB SWAP1 SWAP2 AND DUP2 MSTORE PUSH1 0x20 ADD JUMPDEST PUSH1 0x40 MLOAD DUP1 SWAP2 SUB SWAP1 RETURN JUMPDEST CALLVALUE DUP1 ISZERO PUSH2 0x279 JUMPI PUSH1 0x0 DUP1 REVERT JUMPDEST POP PUSH2 0x282 PUSH2 0x849 JUMP JUMPDEST PUSH1 0x40 MLOAD PUSH2 0x264 SWAP2 SWAP1 PUSH2 0x1E8A JUMP JUMPDEST CALLVALUE DUP1 ISZERO PUSH2 0x29B JUMPI PUSH1 0x0 DUP1 REVERT JUMPDEST POP PUSH2 0x2A5 PUSH1 0x4 SLOAD DUP2 JUMP JUMPDEST PUSH1 0x40 MLOAD SWAP1 DUP2 MSTORE PUSH1 0x20 ADD PUSH2 0x264 JUMP JUMPDEST CALLVALUE DUP1 ISZERO PUSH2 0x2BF JUMPI PUSH1 0x0 DUP1 REVERT JUMPDEST POP PUSH1 0x8 SLOAD PUSH1 0xFF AND JUMPDEST PUSH1 0x40 MLOAD SWAP1 ISZERO ISZERO DUP2 MSTORE PUSH1 0x20 ADD PUSH2 0x264 JUMP JUMPDEST CALLVALUE DUP1 ISZERO PUSH2 0x2E3 JUMPI PUSH1 0x0 DUP1 REVERT JUMPDEST POP PUSH2 0x229 PUSH2 0x2F2 CALLDATASIZE PUSH1 0x4 PUSH2 0x1EF7 JUMP JUMPDEST PUSH2 0x9A8 JUMP JUMPDEST CALLVALUE DUP1 ISZERO PUSH2 0x303 JUMPI PUSH1 0x0 DUP1 REVERT JUMPDEST POP PUSH2 0x317 PUSH2 0x312 CALLDATASIZE PUSH1 0x4 PUSH2 0x1E71 JUMP JUMPDEST PUSH2 0xA80 JUMP JUMPDEST PUSH1 0x40 MLOAD PUSH2 0x264 SWAP3 SWAP2 SWAP1 PUSH2 0x1F98 JUMP JUMPDEST CALLVALUE DUP1 ISZERO PUSH2 0x331 JUMPI PUSH1 0x0 DUP1 REVERT JUMPDEST POP PUSH1 0x8 SLOAD PUSH2 0x2C7 SWAP1 PUSH1 0xFF AND DUP2 JUMP JUMPDEST CALLVALUE DUP1 ISZERO PUSH2 0x34B JUMPI PUSH1 0x0 DUP1 REVERT JUMPDEST POP PUSH2 0x229 PUSH2 0x35A CALLDATASIZE PUSH1 0x4 PUSH2 0x206F JUMP JUMPDEST PUSH2 0xB3C JUMP JUMPDEST CALLVALUE DUP1 ISZERO PUSH2 0x36B JUMPI PUSH1 0x0 DUP1 REVERT JUMPDEST POP PUSH2 0x229 PUSH2 0xC04 JUMP JUMPDEST CALLVALUE DUP1 ISZERO PUSH2 0x380 JUMPI PUSH1 0x0 DUP1 REVERT JUMPDEST POP PUSH2 0x2C7 PUSH2 0xC98 JUMP JUMPDEST CALLVALUE DUP1 ISZERO PUSH2 0x395 JUMPI PUSH1 0x0 DUP1 REVERT JUMPDEST POP PUSH2 0x2A5 PUSH2 0x3A4 CALLDATASIZE PUSH1 0x4 PUSH2 0x20AB JUMP JUMPDEST PUSH1 0x2 PUSH1 0x20 MSTORE PUSH1 0x0 SWAP1 DUP2 MSTORE PUSH1 0x40 SWAP1 KECCAK256 SLOAD DUP2 JUMP JUMPDEST CALLVALUE DUP1 ISZERO PUSH2 0x3C2 JUMPI PUSH1 0x0 DUP1 REVERT JUMPDEST POP PUSH2 0x229 PUSH2 0xCE5 JUMP JUMPDEST CALLVALUE DUP1 ISZERO PUSH2 0x3D7 JUMPI PUSH1 0x0 DUP1 REVERT JUMPDEST POP PUSH2 0x2A5 PUSH1 0xA SLOAD DUP2 JUMP JUMPDEST CALLVALUE DUP1 ISZERO PUSH2 0x3ED JUMPI PUSH1 0x0 DUP1 REVERT JUMPDEST POP PUSH2 0x3F6 PUSH2 0xD8D JUMP JUMPDEST PUSH1 0x40 MLOAD PUSH2 0x264 SWAP2 SWAP1 PUSH2 0x20CF JUMP JUMPDEST CALLVALUE DUP1 ISZERO PUSH2 0x40F JUMPI PUSH1 0x0 DUP1 REVERT JUMPDEST POP PUSH2 0x2A5 PUSH1 0x5 SLOAD DUP2 JUMP JUMPDEST CALLVALUE DUP1 ISZERO PUSH2 0x425 JUMPI PUSH1 0x0 DUP1 REVERT JUMPDEST POP PUSH2 0x2A5 PUSH1 0x7 SLOAD DUP2 JUMP JUMPDEST CALLVALUE DUP1 ISZERO PUSH2 0x43B JUMPI PUSH1 0x0 DUP1 REVERT JUMPDEST POP PUSH1 0x1 SLOAD PUSH2 0x250 SWAP1 PUSH1 0x1 PUSH1 0x1 PUSH1 0xA0 SHL SUB AND DUP2 JUMP JUMPDEST CALLVALUE DUP1 ISZERO PUSH2 0x45B JUMPI PUSH1 0x0 DUP1 REVERT JUMPDEST POP PUSH1 0x1 SLOAD PUSH1 0x1 PUSH1 0x1 PUSH1 0xA0 SHL SUB AND CALLER EQ PUSH2 0x2C7 JUMP JUMPDEST CALLVALUE DUP1 ISZERO PUSH2 0x47B JUMPI PUSH1 0x0 DUP1 REVERT JUMPDEST POP PUSH2 0x484 PUSH2 0xF52 JUMP JUMPDEST PUSH1 0x40 MLOAD PUSH2 0x264 SWAP2 SWAP1 PUSH2 0x2131 JUMP JUMPDEST CALLVALUE DUP1 ISZERO PUSH2 0x49D JUMPI PUSH1 0x0 DUP1 REVERT JUMPDEST POP PUSH2 0x4A6 PUSH2 0x1220 JUMP JUMPDEST PUSH1 0x40 MLOAD PUSH2 0x264 SWAP2 SWAP1 PUSH2 0x21A7 JUMP JUMPDEST CALLVALUE DUP1 ISZERO PUSH2 0x4BF JUMPI PUSH1 0x0 DUP1 REVERT JUMPDEST POP PUSH1 0x3 SLOAD CALLER PUSH1 0x0 SWAP1 DUP2 MSTORE PUSH1 0x2 PUSH1 0x20 MSTORE PUSH1 0x40 SWAP1 KECCAK256 SLOAD LT PUSH2 0x2C7 JUMP JUMPDEST CALLVALUE DUP1 ISZERO PUSH2 0x4E5 JUMPI PUSH1 0x0 DUP1 REVERT JUMPDEST POP PUSH2 0x229 PUSH2 0x4F4 CALLDATASIZE PUSH1 0x4 PUSH2 0x226C JUMP JUMPDEST PUSH2 0x1335 JUMP JUMPDEST CALLVALUE DUP1 ISZERO PUSH2 0x505 JUMPI PUSH1 0x0 DUP1 REVERT JUMPDEST POP PUSH2 0x484 PUSH2 0x13A3 JUMP JUMPDEST CALLVALUE DUP1 ISZERO PUSH2 0x51A JUMPI PUSH1 0x0 DUP1 REVERT JUMPDEST POP PUSH2 0x2A5 PUSH2 0x529 CALLDATASIZE PUSH1 0x4 PUSH2 0x20AB JUMP JUMPDEST PUSH1 0xB PUSH1 0x20 MSTORE PUSH1 0x0 SWAP1 DUP2 MSTORE PUSH1 0x40 SWAP1 KECCAK256 SLOAD DUP2 JUMP JUMPDEST CALLVALUE DUP1 ISZERO PUSH2 0x547 JUMPI PUSH1 0x0 DUP1 REVERT JUMPDEST POP PUSH2 0x2A5 PUSH1 0x3 SLOAD DUP2 JUMP JUMPDEST CALLVALUE DUP1 ISZERO PUSH2 0x55D JUMPI PUSH1 0x0 DUP1 REVERT JUMPDEST POP PUSH2 0x2A5 PUSH2 0x14C0 JUMP JUMPDEST CALLVALUE DUP1 ISZERO PUSH2 0x572 JUMPI PUSH1 0x0 DUP1 REVERT JUMPDEST POP PUSH2 0x4A6 PUSH2 0x14F4 JUMP JUMPDEST CALLVALUE DUP1 ISZERO PUSH2 0x587 JUMPI PUSH1 0x0 DUP1 REVERT JUMPDEST POP PUSH2 0x229 PUSH2 0x596 CALLDATASIZE PUSH1 0x4 PUSH2 0x235F JUMP JUMPDEST PUSH2 0x1582 JUMP JUMPDEST CALLVALUE DUP1 ISZERO PUSH2 0x5A7 JUMPI PUSH1 0x0 DUP1 REVERT JUMPDEST POP PUSH2 0x2A5 PUSH2 0x1685 JUMP JUMPDEST CALLVALUE DUP1 ISZERO PUSH2 0x5BC JUMPI PUSH1 0x0 DUP1 REVERT JUMPDEST POP PUSH2 0x229 PUSH2 0x5CB CALLDATASIZE PUSH1 0x4 PUSH2 0x20AB JUMP JUMPDEST PUSH2 0x1723 JUMP JUMPDEST CALLVALUE DUP1 ISZERO PUSH2 0x5DC JUMPI PUSH1 0x0 DUP1 REVERT JUMPDEST POP PUSH2 0x229 PUSH2 0x17FF JUMP JUMPDEST CALLVALUE DUP1 ISZERO PUSH2 0x5F1 JUMPI PUSH1 0x0 DUP1 REVERT JUMPDEST POP PUSH2 0x229 PUSH2 0x600 CALLDATASIZE PUSH1 0x4 PUSH2 0x23C2 JUMP JUMPDEST PUSH2 0x1899 JUMP JUMPDEST CALLVALUE DUP1 ISZERO PUSH2 0x611 JUMPI PUSH1 0x0 DUP1 REVERT JUMPDEST POP PUSH1 0x9 SLOAD PUSH2 0x250 SWAP1 PUSH1 0x1 PUSH1 0x1 PUSH1 0xA0 SHL SUB AND DUP2 JUMP JUMPDEST PUSH2 0x229 PUSH2 0x633 CALLDATASIZE PUSH1 0x4 PUSH2 0x244E JUMP JUMPDEST PUSH2 0x19DB JUMP JUMPDEST PUSH1 0x4 SLOAD TIMESTAMP LT ISZERO DUP1 ISZERO PUSH2 0x64B JUMPI POP PUSH1 0x5 SLOAD TIMESTAMP LT JUMPDEST PUSH2 0x694 JUMPI PUSH1 0x40 MLOAD PUSH3 0x461BCD PUSH1 0xE5 SHL DUP2 MSTORE PUSH1 0x20 PUSH1 0x4 DUP3 ADD MSTORE PUSH1 0x15 PUSH1 0x24 DUP3 ADD MSTORE PUSH21 0x2B37BA34B7339034B9903737BA1030B1BA34BB3297 PUSH1 0x59 SHL PUSH1 0x44 DUP3 ADD MSTORE PUSH1 0x64 ADD JUMPDEST PUSH1 0x40 MLOAD DUP1 SWAP2 SUB SWAP1 REVERT JUMPDEST PUSH1 0x0 SLOAD DUP2 LT PUSH2 0x6E5 JUMPI PUSH1 0x40 MLOAD PUSH3 0x461BCD PUSH1 0xE5 SHL DUP2 MSTORE PUSH1 0x20 PUSH1 0x4 DUP3 ADD MSTORE PUSH1 0x18 PUSH1 0x24 DUP3 ADD MSTORE PUSH32 0x496E76616C69642063616E64696461746520696E6465782E0000000000000000 PUSH1 0x44 DUP3 ADD MSTORE PUSH1 0x64 ADD PUSH2 0x68B JUMP JUMPDEST PUSH1 0x3 SLOAD CALLER PUSH1 0x0 SWAP1 DUP2 MSTORE PUSH1 0x2 PUSH1 0x20 MSTORE PUSH1 0x40 SWAP1 KECCAK256 SLOAD LT PUSH2 0x755 JUMPI PUSH1 0x40 MLOAD PUSH3 0x461BCD PUSH1 0xE5 SHL DUP2 MSTORE PUSH1 0x20 PUSH1 0x4 DUP3 ADD MSTORE PUSH1 0x27 PUSH1 0x24 DUP3 ADD MSTORE PUSH32 0x596F75206861766520616C726561647920766F74656420696E20746869732073 PUSH1 0x44 DUP3 ADD MSTORE PUSH7 0x32B9B9B4B7B717 PUSH1 0xC9 SHL PUSH1 0x64 DUP3 ADD MSTORE PUSH1 0x84 ADD PUSH2 0x68B JUMP JUMPDEST CALLER PUSH1 0x0 SWAP1 DUP2 MSTORE PUSH1 0xB PUSH1 0x20 MSTORE PUSH1 0x40 SWAP1 KECCAK256 SLOAD PUSH2 0x7A9 JUMPI PUSH1 0x40 MLOAD PUSH3 0x461BCD PUSH1 0xE5 SHL DUP2 MSTORE PUSH1 0x20 PUSH1 0x4 DUP3 ADD MSTORE PUSH1 0x15 PUSH1 0x24 DUP3 ADD MSTORE PUSH21 0x2737BA1032B634B3B4B13632903A37903B37BA3297 PUSH1 0x59 SHL PUSH1 0x44 DUP3 ADD MSTORE PUSH1 0x64 ADD PUSH2 0x68B JUMP JUMPDEST CALLER PUSH1 0x0 SWAP1 DUP2 MSTORE PUSH1 0xB PUSH1 0x20 MSTORE PUSH1 0x40 DUP2 KECCAK256 SLOAD DUP2 SLOAD SWAP1 SWAP2 DUP3 SWAP2 DUP5 SWAP1 DUP2 LT PUSH2 0x7CF JUMPI PUSH2 0x7CF PUSH2 0x2553 JUMP JUMPDEST SWAP1 PUSH1 0x0 MSTORE PUSH1 0x20 PUSH1 0x0 KECCAK256 SWAP1 PUSH1 0x2 MUL ADD PUSH1 0x1 ADD PUSH1 0x0 DUP3 DUP3 SLOAD PUSH2 0x7EF SWAP2 SWAP1 PUSH2 0x257F JUMP JUMPDEST SWAP1 SWAP2 SSTORE POP POP PUSH1 0x3 SLOAD CALLER PUSH1 0x0 DUP2 DUP2 MSTORE PUSH1 0x2 PUSH1 0x20 MSTORE PUSH1 0x40 SWAP1 DUP2 SWAP1 KECCAK256 SWAP3 SWAP1 SWAP3 SSTORE SWAP1 MLOAD PUSH32 0x4D99B957A2BC29A30EBD96A7BE8E68FE50A3C701DB28A91436490B7D53870CA4 SWAP1 PUSH2 0x83D SWAP1 DUP6 DUP2 MSTORE PUSH1 0x20 ADD SWAP1 JUMP JUMPDEST PUSH1 0x40 MLOAD DUP1 SWAP2 SUB SWAP1 LOG2 POP POP JUMP JUMPDEST PUSH1 0x1 SLOAD PUSH1 0x60 SWAP1 PUSH1 0x1 PUSH1 0x1 PUSH1 0xA0 SHL SUB AND CALLER EQ PUSH2 0x876 JUMPI PUSH1 0x40 MLOAD PUSH3 0x461BCD PUSH1 0xE5 SHL DUP2 MSTORE PUSH1 0x4 ADD PUSH2 0x68B SWAP1 PUSH2 0x2598 JUMP JUMPDEST PUSH1 0xC SLOAD PUSH1 0x0 SWAP1 PUSH1 0x1 PUSH1 0x1 PUSH1 0x40 SHL SUB DUP2 GT ISZERO PUSH2 0x893 JUMPI PUSH2 0x893 PUSH2 0x1FBA JUMP JUMPDEST PUSH1 0x40 MLOAD SWAP1 DUP1 DUP3 MSTORE DUP1 PUSH1 0x20 MUL PUSH1 0x20 ADD DUP3 ADD PUSH1 0x40 MSTORE DUP1 ISZERO PUSH2 0x8D8 JUMPI DUP2 PUSH1 0x20 ADD JUMPDEST PUSH1 0x40 DUP1 MLOAD DUP1 DUP3 ADD SWAP1 SWAP2 MSTORE PUSH1 0x0 DUP1 DUP3 MSTORE PUSH1 0x20 DUP3 ADD MSTORE DUP2 MSTORE PUSH1 0x20 ADD SWAP1 PUSH1 0x1 SWAP1 SUB SWAP1 DUP2 PUSH2 0x8B1 JUMPI SWAP1 POP JUMPDEST POP SWAP1 POP PUSH1 0x0 JUMPDEST PUSH1 0xC SLOAD DUP2 LT ISZERO PUSH2 0x9A2 JUMPI PUSH1 0x40 MLOAD DUP1 PUSH1 0x40 ADD PUSH1 0x40 MSTORE DUP1 PUSH1 0xC DUP4 DUP2 SLOAD DUP2 LT PUSH2 0x906 JUMPI PUSH2 0x906 PUSH2 0x2553 JUMP JUMPDEST SWAP1 PUSH1 0x0 MSTORE PUSH1 0x20 PUSH1 0x0 KECCAK256 ADD PUSH1 0x0 SWAP1 SLOAD SWAP1 PUSH2 0x100 EXP SWAP1 DIV PUSH1 0x1 PUSH1 0x1 PUSH1 0xA0 SHL SUB AND PUSH1 0x1 PUSH1 0x1 PUSH1 0xA0 SHL SUB AND DUP2 MSTORE PUSH1 0x20 ADD PUSH1 0xB PUSH1 0x0 PUSH1 0xC DUP6 DUP2 SLOAD DUP2 LT PUSH2 0x949 JUMPI PUSH2 0x949 PUSH2 0x2553 JUMP JUMPDEST PUSH1 0x0 SWAP2 DUP3 MSTORE PUSH1 0x20 DUP1 DUP4 KECCAK256 SWAP1 SWAP2 ADD SLOAD PUSH1 0x1 PUSH1 0x1 PUSH1 0xA0 SHL SUB AND DUP4 MSTORE DUP3 ADD SWAP3 SWAP1 SWAP3 MSTORE PUSH1 0x40 ADD SWAP1 KECCAK256 SLOAD SWAP1 MSTORE DUP3 MLOAD DUP4 SWAP1 DUP4 SWAP1 DUP2 LT PUSH2 0x984 JUMPI PUSH2 0x984 PUSH2 0x2553 JUMP JUMPDEST PUSH1 0x20 MUL PUSH1 0x20 ADD ADD DUP2 SWAP1 MSTORE POP DUP1 DUP1 PUSH2 0x99A SWAP1 PUSH2 0x25CF JUMP JUMPDEST SWAP2 POP POP PUSH2 0x8DE JUMP JUMPDEST POP SWAP1 POP SWAP1 JUMP JUMPDEST PUSH1 0x1 SLOAD PUSH1 0x1 PUSH1 0x1 PUSH1 0xA0 SHL SUB AND ISZERO PUSH2 0x9F8 JUMPI PUSH1 0x40 MLOAD PUSH3 0x461BCD PUSH1 0xE5 SHL DUP2 MSTORE PUSH1 0x20 PUSH1 0x4 DUP3 ADD MSTORE PUSH1 0x14 PUSH1 0x24 DUP3 ADD MSTORE PUSH20 0x20B63932B0B23C9034B734BA34B0B634BD32B217 PUSH1 0x61 SHL PUSH1 0x44 DUP3 ADD MSTORE PUSH1 0x64 ADD PUSH2 0x68B JUMP JUMPDEST PUSH1 0x1 DUP1 SLOAD PUSH1 0x1 PUSH1 0x1 PUSH1 0xA0 SHL SUB DUP1 DUP9 AND PUSH1 0x1 PUSH1 0x1 PUSH1 0xA0 SHL SUB NOT SWAP3 DUP4 AND DUP2 OR DUP5 SSTORE PUSH1 0x7 DUP9 SWAP1 SSTORE PUSH1 0x3 SWAP4 SWAP1 SWAP4 SSTORE PUSH1 0x8 DUP1 SLOAD DUP8 DUP4 AND PUSH2 0x100 MUL PUSH2 0x100 PUSH1 0x1 PUSH1 0xA8 SHL SUB NOT SWAP1 SWAP2 AND OR SWAP1 SSTORE PUSH1 0x9 DUP1 SLOAD SWAP2 DUP7 AND SWAP2 SWAP1 SWAP3 AND OR SWAP1 SSTORE PUSH1 0xA DUP3 SWAP1 SSTORE PUSH1 0x40 MLOAD PUSH32 0xA9FCDAA1F6042C63AB0786FD526A2C78AE5C6FB77F547B49C99684886BAA060C SWAP1 PUSH1 0x0 SWAP1 LOG2 POP POP POP POP POP JUMP JUMPDEST PUSH1 0x0 DUP2 DUP2 SLOAD DUP2 LT PUSH2 0xA90 JUMPI PUSH1 0x0 DUP1 REVERT JUMPDEST SWAP1 PUSH1 0x0 MSTORE PUSH1 0x20 PUSH1 0x0 KECCAK256 SWAP1 PUSH1 0x2 MUL ADD PUSH1 0x0 SWAP2 POP SWAP1 POP DUP1 PUSH1 0x0 ADD DUP1 SLOAD PUSH2 0xAB3 SWAP1 PUSH2 0x25E8 JUMP JUMPDEST DUP1 PUSH1 0x1F ADD PUSH1 0x20 DUP1 SWAP2 DIV MUL PUSH1 0x20 ADD PUSH1 0x40 MLOAD SWAP1 DUP2 ADD PUSH1 0x40 MSTORE DUP1 SWAP3 SWAP2 SWAP1 DUP2 DUP2 MSTORE PUSH1 0x20 ADD DUP3 DUP1 SLOAD PUSH2 0xADF SWAP1 PUSH2 0x25E8 JUMP JUMPDEST DUP1 ISZERO PUSH2 0xB2C JUMPI DUP1 PUSH1 0x1F LT PUSH2 0xB01 JUMPI PUSH2 0x100 DUP1 DUP4 SLOAD DIV MUL DUP4 MSTORE SWAP2 PUSH1 0x20 ADD SWAP2 PUSH2 0xB2C JUMP JUMPDEST DUP3 ADD SWAP2 SWAP1 PUSH1 0x0 MSTORE PUSH1 0x20 PUSH1 0x0 KECCAK256 SWAP1 JUMPDEST DUP2 SLOAD DUP2 MSTORE SWAP1 PUSH1 0x1 ADD SWAP1 PUSH1 0x20 ADD DUP1 DUP4 GT PUSH2 0xB0F JUMPI DUP3 SWAP1 SUB PUSH1 0x1F AND DUP3 ADD SWAP2 JUMPDEST POP POP POP POP POP SWAP1 DUP1 PUSH1 0x1 ADD SLOAD SWAP1 POP DUP3 JUMP JUMPDEST PUSH1 0x1 SLOAD PUSH1 0x1 PUSH1 0x1 PUSH1 0xA0 SHL SUB AND CALLER EQ PUSH2 0xB66 JUMPI PUSH1 0x40 MLOAD PUSH3 0x461BCD PUSH1 0xE5 SHL DUP2 MSTORE PUSH1 0x4 ADD PUSH2 0x68B SWAP1 PUSH2 0x2598 JUMP JUMPDEST PUSH1 0x40 DUP1 MLOAD DUP1 DUP3 ADD SWAP1 SWAP2 MSTORE DUP2 DUP2 MSTORE PUSH1 0x0 PUSH1 0x20 DUP3 ADD DUP2 SWAP1 MSTORE DUP1 SLOAD PUSH1 0x1 DUP2 ADD DUP3 SSTORE SWAP1 DUP1 MSTORE DUP2 MLOAD PUSH1 0x2 SWAP1 SWAP2 MUL PUSH32 0x290DECD9548B62A8D60345A988386FC84BA6BC95484008F6362F93160EF3E563 ADD SWAP1 DUP2 SWAP1 PUSH2 0xBBD SWAP1 DUP3 PUSH2 0x2668 JUMP JUMPDEST POP PUSH1 0x20 DUP3 ADD MLOAD DUP2 PUSH1 0x1 ADD SSTORE POP POP PUSH32 0xF29562DAD1599AEA0EBB142466120AAB326D5EFA8F839DF82A9C064BF78E8938 DUP2 PUSH1 0x40 MLOAD PUSH2 0xBF9 SWAP2 SWAP1 PUSH2 0x21A7 JUMP JUMPDEST PUSH1 0x40 MLOAD DUP1 SWAP2 SUB SWAP1 LOG1 POP JUMP JUMPDEST PUSH1 0x1 SLOAD PUSH1 0x1 PUSH1 0x1 PUSH1 0xA0 SHL SUB AND CALLER EQ PUSH2 0xC2E JUMPI PUSH1 0x40 MLOAD PUSH3 0x461BCD PUSH1 0xE5 SHL DUP2 MSTORE PUSH1 0x4 ADD PUSH2 0x68B SWAP1 PUSH2 0x2598 JUMP JUMPDEST PUSH1 0x0 JUMPDEST PUSH1 0xC SLOAD DUP2 LT ISZERO PUSH2 0xC89 JUMPI PUSH1 0xB PUSH1 0x0 PUSH1 0xC DUP4 DUP2 SLOAD DUP2 LT PUSH2 0xC52 JUMPI PUSH2 0xC52 PUSH2 0x2553 JUMP JUMPDEST PUSH1 0x0 SWAP2 DUP3 MSTORE PUSH1 0x20 DUP1 DUP4 KECCAK256 SWAP1 SWAP2 ADD SLOAD PUSH1 0x1 PUSH1 0x1 PUSH1 0xA0 SHL SUB AND DUP4 MSTORE DUP3 ADD SWAP3 SWAP1 SWAP3 MSTORE PUSH1 0x40 ADD DUP2 KECCAK256 SSTORE DUP1 PUSH2 0xC81 DUP2 PUSH2 0x25CF JUMP JUMPDEST SWAP2 POP POP PUSH2 0xC31 JUMP JUMPDEST POP PUSH2 0xC96 PUSH1 0xC PUSH1 0x0 PUSH2 0x1DB8 JUMP JUMPDEST JUMP JUMPDEST PUSH1 0x1 SLOAD PUSH1 0x0 SWAP1 PUSH1 0x1 PUSH1 0x1 PUSH1 0xA0 SHL SUB AND CALLER EQ DUP1 PUSH2 0xCC2 JUMPI POP CALLER PUSH1 0x0 SWAP1 DUP2 MSTORE PUSH1 0xB PUSH1 0x20 MSTORE PUSH1 0x40 SWAP1 KECCAK256 SLOAD ISZERO ISZERO JUMPDEST ISZERO PUSH2 0xCDF JUMPI PUSH1 0x4 SLOAD TIMESTAMP LT ISZERO DUP1 ISZERO PUSH2 0xCDA JUMPI POP PUSH1 0x5 SLOAD TIMESTAMP LT JUMPDEST SWAP1 POP SWAP1 JUMP JUMPDEST POP PUSH1 0x0 SWAP1 JUMP JUMPDEST PUSH1 0x1 SLOAD PUSH1 0x1 PUSH1 0x1 PUSH1 0xA0 SHL SUB AND CALLER EQ PUSH2 0xD0F JUMPI PUSH1 0x40 MLOAD PUSH3 0x461BCD PUSH1 0xE5 SHL DUP2 MSTORE PUSH1 0x4 ADD PUSH2 0x68B SWAP1 PUSH2 0x2598 JUMP JUMPDEST PUSH1 0x4 SLOAD TIMESTAMP LT DUP1 PUSH2 0xD20 JUMPI POP PUSH1 0x5 SLOAD TIMESTAMP GT JUMPDEST PUSH2 0xD82 JUMPI PUSH1 0x40 MLOAD PUSH3 0x461BCD PUSH1 0xE5 SHL DUP2 MSTORE PUSH1 0x20 PUSH1 0x4 DUP3 ADD MSTORE PUSH1 0x2D PUSH1 0x24 DUP3 ADD MSTORE PUSH32 0x43616E6E6F7420636C6561722063616E6469646174657320647572696E672076 PUSH1 0x44 DUP3 ADD MSTORE PUSH13 0x37BA34B733903832B934B7B217 PUSH1 0x99 SHL PUSH1 0x64 DUP3 ADD MSTORE PUSH1 0x84 ADD PUSH2 0x68B JUMP JUMPDEST PUSH2 0xC96 PUSH1 0x0 DUP1 PUSH2 0x1DD9 JUMP JUMPDEST CALLER PUSH1 0x0 SWAP1 DUP2 MSTORE PUSH1 0xB PUSH1 0x20 MSTORE PUSH1 0x40 SWAP1 KECCAK256 SLOAD PUSH1 0x60 SWAP1 ISZERO ISZERO DUP1 PUSH2 0xDB7 JUMPI POP PUSH1 0x1 SLOAD PUSH1 0x1 PUSH1 0x1 PUSH1 0xA0 SHL SUB AND CALLER EQ JUMPDEST PUSH2 0xE17 JUMPI PUSH1 0x40 MLOAD PUSH3 0x461BCD PUSH1 0xE5 SHL DUP2 MSTORE PUSH1 0x20 PUSH1 0x4 DUP3 ADD MSTORE PUSH1 0x2B PUSH1 0x24 DUP3 ADD MSTORE PUSH32 0x596F7520617265206E6F7420656C696769626C6520746F207365652074686520 PUSH1 0x44 DUP3 ADD MSTORE PUSH11 0x31B0B73234B230BA32B997 PUSH1 0xA9 SHL PUSH1 0x64 DUP3 ADD MSTORE PUSH1 0x84 ADD PUSH2 0x68B JUMP JUMPDEST PUSH1 0x0 DUP1 SLOAD PUSH1 0x1 PUSH1 0x1 PUSH1 0x40 SHL SUB DUP2 GT ISZERO PUSH2 0xE32 JUMPI PUSH2 0xE32 PUSH2 0x1FBA JUMP JUMPDEST PUSH1 0x40 MLOAD SWAP1 DUP1 DUP3 MSTORE DUP1 PUSH1 0x20 MUL PUSH1 0x20 ADD DUP3 ADD PUSH1 0x40 MSTORE DUP1 ISZERO PUSH2 0xE65 JUMPI DUP2 PUSH1 0x20 ADD JUMPDEST PUSH1 0x60 DUP2 MSTORE PUSH1 0x20 ADD SWAP1 PUSH1 0x1 SWAP1 SUB SWAP1 DUP2 PUSH2 0xE50 JUMPI SWAP1 POP JUMPDEST POP SWAP1 POP PUSH1 0x0 JUMPDEST PUSH1 0x0 SLOAD DUP2 LT ISZERO PUSH2 0x9A2 JUMPI PUSH1 0x0 DUP2 DUP2 SLOAD DUP2 LT PUSH2 0xE88 JUMPI PUSH2 0xE88 PUSH2 0x2553 JUMP JUMPDEST SWAP1 PUSH1 0x0 MSTORE PUSH1 0x20 PUSH1 0x0 KECCAK256 SWAP1 PUSH1 0x2 MUL ADD PUSH1 0x0 ADD DUP1 SLOAD PUSH2 0xEA4 SWAP1 PUSH2 0x25E8 JUMP JUMPDEST DUP1 PUSH1 0x1F ADD PUSH1 0x20 DUP1 SWAP2 DIV MUL PUSH1 0x20 ADD PUSH1 0x40 MLOAD SWAP1 DUP2 ADD PUSH1 0x40 MSTORE DUP1 SWAP3 SWAP2 SWAP1 DUP2 DUP2 MSTORE PUSH1 0x20 ADD DUP3 DUP1 SLOAD PUSH2 0xED0 SWAP1 PUSH2 0x25E8 JUMP JUMPDEST DUP1 ISZERO PUSH2 0xF1D JUMPI DUP1 PUSH1 0x1F LT PUSH2 0xEF2 JUMPI PUSH2 0x100 DUP1 DUP4 SLOAD DIV MUL DUP4 MSTORE SWAP2 PUSH1 0x20 ADD SWAP2 PUSH2 0xF1D JUMP JUMPDEST DUP3 ADD SWAP2 SWAP1 PUSH1 0x0 MSTORE PUSH1 0x20 PUSH1 0x0 KECCAK256 SWAP1 JUMPDEST DUP2 SLOAD DUP2 MSTORE SWAP1 PUSH1 0x1 ADD SWAP1 PUSH1 0x20 ADD DUP1 DUP4 GT PUSH2 0xF00 JUMPI DUP3 SWAP1 SUB PUSH1 0x1F AND DUP3 ADD SWAP2 JUMPDEST POP POP POP POP POP DUP3 DUP3 DUP2 MLOAD DUP2 LT PUSH2 0xF34 JUMPI PUSH2 0xF34 PUSH2 0x2553 JUMP JUMPDEST PUSH1 0x20 MUL PUSH1 0x20 ADD ADD DUP2 SWAP1 MSTORE POP DUP1 DUP1 PUSH2 0xF4A SWAP1 PUSH2 0x25CF JUMP JUMPDEST SWAP2 POP POP PUSH2 0xE6B JUMP JUMPDEST CALLER PUSH1 0x0 SWAP1 DUP2 MSTORE PUSH1 0xB PUSH1 0x20 MSTORE PUSH1 0x40 SWAP1 KECCAK256 SLOAD PUSH1 0x60 SWAP1 PUSH2 0xFA9 JUMPI PUSH1 0x40 MLOAD PUSH3 0x461BCD PUSH1 0xE5 SHL DUP2 MSTORE PUSH1 0x20 PUSH1 0x4 DUP3 ADD MSTORE PUSH1 0x15 PUSH1 0x24 DUP3 ADD MSTORE PUSH21 0x2737BA1032B634B3B4B13632903A37903B34B2BB97 PUSH1 0x59 SHL PUSH1 0x44 DUP3 ADD MSTORE PUSH1 0x64 ADD PUSH2 0x68B JUMP JUMPDEST PUSH1 0x8 SLOAD PUSH1 0xFF AND ISZERO PUSH2 0x10AD JUMPI PUSH1 0x0 DUP1 SLOAD DUP1 PUSH1 0x20 MUL PUSH1 0x20 ADD PUSH1 0x40 MLOAD SWAP1 DUP2 ADD PUSH1 0x40 MSTORE DUP1 SWAP3 SWAP2 SWAP1 DUP2 DUP2 MSTORE PUSH1 0x20 ADD PUSH1 0x0 SWAP1 JUMPDEST DUP3 DUP3 LT ISZERO PUSH2 0x10A4 JUMPI DUP4 DUP3 SWAP1 PUSH1 0x0 MSTORE PUSH1 0x20 PUSH1 0x0 KECCAK256 SWAP1 PUSH1 0x2 MUL ADD PUSH1 0x40 MLOAD DUP1 PUSH1 0x40 ADD PUSH1 0x40 MSTORE SWAP1 DUP2 PUSH1 0x0 DUP3 ADD DUP1 SLOAD PUSH2 0x1009 SWAP1 PUSH2 0x25E8 JUMP JUMPDEST DUP1 PUSH1 0x1F ADD PUSH1 0x20 DUP1 SWAP2 DIV MUL PUSH1 0x20 ADD PUSH1 0x40 MLOAD SWAP1 DUP2 ADD PUSH1 0x40 MSTORE DUP1 SWAP3 SWAP2 SWAP1 DUP2 DUP2 MSTORE PUSH1 0x20 ADD DUP3 DUP1 SLOAD PUSH2 0x1035 SWAP1 PUSH2 0x25E8 JUMP JUMPDEST DUP1 ISZERO PUSH2 0x1082 JUMPI DUP1 PUSH1 0x1F LT PUSH2 0x1057 JUMPI PUSH2 0x100 DUP1 DUP4 SLOAD DIV MUL DUP4 MSTORE SWAP2 PUSH1 0x20 ADD SWAP2 PUSH2 0x1082 JUMP JUMPDEST DUP3 ADD SWAP2 SWAP1 PUSH1 0x0 MSTORE PUSH1 0x20 PUSH1 0x0 KECCAK256 SWAP1 JUMPDEST DUP2 SLOAD DUP2 MSTORE SWAP1 PUSH1 0x1 ADD SWAP1 PUSH1 0x20 ADD DUP1 DUP4 GT PUSH2 0x1065 JUMPI DUP3 SWAP1 SUB PUSH1 0x1F AND DUP3 ADD SWAP2 JUMPDEST POP POP POP POP POP DUP2 MSTORE PUSH1 0x20 ADD PUSH1 0x1 DUP3 ADD SLOAD DUP2 MSTORE POP POP DUP2 MSTORE PUSH1 0x20 ADD SWAP1 PUSH1 0x1 ADD SWAP1 PUSH2 0xFD6 JUMP JUMPDEST POP POP POP POP SWAP1 POP SWAP1 JUMP JUMPDEST PUSH1 0x0 DUP1 SLOAD PUSH1 0x1 PUSH1 0x1 PUSH1 0x40 SHL SUB DUP2 GT ISZERO PUSH2 0x10C8 JUMPI PUSH2 0x10C8 PUSH2 0x1FBA JUMP JUMPDEST PUSH1 0x40 MLOAD SWAP1 DUP1 DUP3 MSTORE DUP1 PUSH1 0x20 MUL PUSH1 0x20 ADD DUP3 ADD PUSH1 0x40 MSTORE DUP1 ISZERO PUSH2 0x110E JUMPI DUP2 PUSH1 0x20 ADD JUMPDEST PUSH1 0x40 DUP1 MLOAD DUP1 DUP3 ADD SWAP1 SWAP2 MSTORE PUSH1 0x60 DUP2 MSTORE PUSH1 0x0 PUSH1 0x20 DUP3 ADD MSTORE DUP2 MSTORE PUSH1 0x20 ADD SWAP1 PUSH1 0x1 SWAP1 SUB SWAP1 DUP2 PUSH2 0x10E6 JUMPI SWAP1 POP JUMPDEST POP SWAP1 POP PUSH1 0x0 JUMPDEST PUSH1 0x0 SLOAD DUP2 LT ISZERO PUSH2 0x9A2 JUMPI PUSH1 0x0 DUP2 DUP2 SLOAD DUP2 LT PUSH2 0x1131 JUMPI PUSH2 0x1131 PUSH2 0x2553 JUMP JUMPDEST SWAP1 PUSH1 0x0 MSTORE PUSH1 0x20 PUSH1 0x0 KECCAK256 SWAP1 PUSH1 0x2 MUL ADD PUSH1 0x0 ADD DUP1 SLOAD PUSH2 0x114D SWAP1 PUSH2 0x25E8 JUMP JUMPDEST DUP1 PUSH1 0x1F ADD PUSH1 0x20 DUP1 SWAP2 DIV MUL PUSH1 0x20 ADD PUSH1 0x40 MLOAD SWAP1 DUP2 ADD PUSH1 0x40 MSTORE DUP1 SWAP3 SWAP2 SWAP1 DUP2 DUP2 MSTORE PUSH1 0x20 ADD DUP3 DUP1 SLOAD PUSH2 0x1179 SWAP1 PUSH2 0x25E8 JUMP JUMPDEST DUP1 ISZERO PUSH2 0x11C6 JUMPI DUP1 PUSH1 0x1F LT PUSH2 0x119B JUMPI PUSH2 0x100 DUP1 DUP4 SLOAD DIV MUL DUP4 MSTORE SWAP2 PUSH1 0x20 ADD SWAP2 PUSH2 0x11C6 JUMP JUMPDEST DUP3 ADD SWAP2 SWAP1 PUSH1 0x0 MSTORE PUSH1 0x20 PUSH1 0x0 KECCAK256 SWAP1 JUMPDEST DUP2 SLOAD DUP2 MSTORE SWAP1 PUSH1 0x1 ADD SWAP1 PUSH1 0x20 ADD DUP1 DUP4 GT PUSH2 0x11A9 JUMPI DUP3 SWAP1 SUB PUSH1 0x1F AND DUP3 ADD SWAP2 JUMPDEST POP POP POP POP POP DUP3 DUP3 DUP2 MLOAD DUP2 LT PUSH2 0x11DD JUMPI PUSH2 0x11DD PUSH2 0x2553 JUMP JUMPDEST PUSH1 0x20 MUL PUSH1 0x20 ADD ADD MLOAD PUSH1 0x0 ADD DUP2 SWAP1 MSTORE POP PUSH1 0x0 DUP3 DUP3 DUP2 MLOAD DUP2 LT PUSH2 0x1200 JUMPI PUSH2 0x1200 PUSH2 0x2553 JUMP JUMPDEST PUSH1 0x20 SWAP1 DUP2 MUL SWAP2 SWAP1 SWAP2 ADD DUP2 ADD MLOAD ADD MSTORE DUP1 PUSH2 0x1218 DUP2 PUSH2 0x25CF JUMP JUMPDEST SWAP2 POP POP PUSH2 0x1114 JUMP JUMPDEST CALLER PUSH1 0x0 SWAP1 DUP2 MSTORE PUSH1 0xB PUSH1 0x20 MSTORE PUSH1 0x40 SWAP1 KECCAK256 SLOAD PUSH1 0x60 SWAP1 ISZERO ISZERO DUP1 PUSH2 0x124A JUMPI POP PUSH1 0x1 SLOAD PUSH1 0x1 PUSH1 0x1 PUSH1 0xA0 SHL SUB AND CALLER EQ JUMPDEST PUSH2 0x12A5 JUMPI PUSH1 0x40 MLOAD PUSH3 0x461BCD PUSH1 0xE5 SHL DUP2 MSTORE PUSH1 0x20 PUSH1 0x4 DUP3 ADD MSTORE PUSH1 0x26 PUSH1 0x24 DUP3 ADD MSTORE PUSH32 0x596F7520617265206E6F7420656C696769626C6520746F207365652074686520 PUSH1 0x44 DUP3 ADD MSTORE PUSH6 0x3A34BA363297 PUSH1 0xD1 SHL PUSH1 0x64 DUP3 ADD MSTORE PUSH1 0x84 ADD PUSH2 0x68B JUMP JUMPDEST PUSH1 0x6 DUP1 SLOAD PUSH2 0x12B2 SWAP1 PUSH2 0x25E8 JUMP JUMPDEST DUP1 PUSH1 0x1F ADD PUSH1 0x20 DUP1 SWAP2 DIV MUL PUSH1 0x20 ADD PUSH1 0x40 MLOAD SWAP1 DUP2 ADD PUSH1 0x40 MSTORE DUP1 SWAP3 SWAP2 SWAP1 DUP2 DUP2 MSTORE PUSH1 0x20 ADD DUP3 DUP1 SLOAD PUSH2 0x12DE SWAP1 PUSH2 0x25E8 JUMP JUMPDEST DUP1 ISZERO PUSH2 0x132B JUMPI DUP1 PUSH1 0x1F LT PUSH2 0x1300 JUMPI PUSH2 0x100 DUP1 DUP4 SLOAD DIV MUL DUP4 MSTORE SWAP2 PUSH1 0x20 ADD SWAP2 PUSH2 0x132B JUMP JUMPDEST DUP3 ADD SWAP2 SWAP1 PUSH1 0x0 MSTORE PUSH1 0x20 PUSH1 0x0 KECCAK256 SWAP1 JUMPDEST DUP2 SLOAD DUP2 MSTORE SWAP1 PUSH1 0x1 ADD SWAP1 PUSH1 0x20 ADD DUP1 DUP4 GT PUSH2 0x130E JUMPI DUP3 SWAP1 SUB PUSH1 0x1F AND DUP3 ADD SWAP2 JUMPDEST POP POP POP POP POP SWAP1 POP SWAP1 JUMP JUMPDEST PUSH1 0x1 SLOAD PUSH1 0x1 PUSH1 0x1 PUSH1 0xA0 SHL SUB AND CALLER EQ PUSH2 0x135F JUMPI PUSH1 0x40 MLOAD PUSH3 0x461BCD PUSH1 0xE5 SHL DUP2 MSTORE PUSH1 0x4 ADD PUSH2 0x68B SWAP1 PUSH2 0x2598 JUMP JUMPDEST PUSH1 0x0 JUMPDEST DUP2 MLOAD DUP2 LT ISZERO PUSH2 0x139F JUMPI PUSH2 0x138D DUP3 DUP3 DUP2 MLOAD DUP2 LT PUSH2 0x1380 JUMPI PUSH2 0x1380 PUSH2 0x2553 JUMP JUMPDEST PUSH1 0x20 MUL PUSH1 0x20 ADD ADD MLOAD PUSH2 0xB3C JUMP JUMPDEST DUP1 PUSH2 0x1397 DUP2 PUSH2 0x25CF JUMP JUMPDEST SWAP2 POP POP PUSH2 0x1362 JUMP JUMPDEST POP POP JUMP JUMPDEST PUSH1 0x1 SLOAD PUSH1 0x60 SWAP1 PUSH1 0x1 PUSH1 0x1 PUSH1 0xA0 SHL SUB AND CALLER EQ PUSH2 0x13D0 JUMPI PUSH1 0x40 MLOAD PUSH3 0x461BCD PUSH1 0xE5 SHL DUP2 MSTORE PUSH1 0x4 ADD PUSH2 0x68B SWAP1 PUSH2 0x2598 JUMP JUMPDEST PUSH1 0x0 DUP1 SLOAD DUP1 PUSH1 0x20 MUL PUSH1 0x20 ADD PUSH1 0x40 MLOAD SWAP1 DUP2 ADD PUSH1 0x40 MSTORE DUP1 SWAP3 SWAP2 SWAP1 DUP2 DUP2 MSTORE PUSH1 0x20 ADD PUSH1 0x0 SWAP1 JUMPDEST DUP3 DUP3 LT ISZERO PUSH2 0x10A4 JUMPI DUP4 DUP3 SWAP1 PUSH1 0x0 MSTORE PUSH1 0x20 PUSH1 0x0 KECCAK256 SWAP1 PUSH1 0x2 MUL ADD PUSH1 0x40 MLOAD DUP1 PUSH1 0x40 ADD PUSH1 0x40 MSTORE SWAP1 DUP2 PUSH1 0x0 DUP3 ADD DUP1 SLOAD PUSH2 0x1425 SWAP1 PUSH2 0x25E8 JUMP JUMPDEST DUP1 PUSH1 0x1F ADD PUSH1 0x20 DUP1 SWAP2 DIV MUL PUSH1 0x20 ADD PUSH1 0x40 MLOAD SWAP1 DUP2 ADD PUSH1 0x40 MSTORE DUP1 SWAP3 SWAP2 SWAP1 DUP2 DUP2 MSTORE PUSH1 0x20 ADD DUP3 DUP1 SLOAD PUSH2 0x1451 SWAP1 PUSH2 0x25E8 JUMP JUMPDEST DUP1 ISZERO PUSH2 0x149E JUMPI DUP1 PUSH1 0x1F LT PUSH2 0x1473 JUMPI PUSH2 0x100 DUP1 DUP4 SLOAD DIV MUL DUP4 MSTORE SWAP2 PUSH1 0x20 ADD SWAP2 PUSH2 0x149E JUMP JUMPDEST DUP3 ADD SWAP2 SWAP1 PUSH1 0x0 MSTORE PUSH1 0x20 PUSH1 0x0 KECCAK256 SWAP1 JUMPDEST DUP2 SLOAD DUP2 MSTORE SWAP1 PUSH1 0x1 ADD SWAP1 PUSH1 0x20 ADD DUP1 DUP4 GT PUSH2 0x1481 JUMPI DUP3 SWAP1 SUB PUSH1 0x1F AND DUP3 ADD SWAP2 JUMPDEST POP POP POP POP POP DUP2 MSTORE PUSH1 0x20 ADD PUSH1 0x1 DUP3 ADD SLOAD DUP2 MSTORE POP POP DUP2 MSTORE PUSH1 0x20 ADD SWAP1 PUSH1 0x1 ADD SWAP1 PUSH2 0x13F2 JUMP JUMPDEST PUSH1 0x1 SLOAD PUSH1 0x0 SWAP1 PUSH1 0x1 PUSH1 0x1 PUSH1 0xA0 SHL SUB AND CALLER EQ PUSH2 0x14ED JUMPI PUSH1 0x40 MLOAD PUSH3 0x461BCD PUSH1 0xE5 SHL DUP2 MSTORE PUSH1 0x4 ADD PUSH2 0x68B SWAP1 PUSH2 0x2598 JUMP JUMPDEST POP PUSH1 0x7 SLOAD SWAP1 JUMP JUMPDEST PUSH1 0x6 DUP1 SLOAD PUSH2 0x1501 SWAP1 PUSH2 0x25E8 JUMP JUMPDEST DUP1 PUSH1 0x1F ADD PUSH1 0x20 DUP1 SWAP2 DIV MUL PUSH1 0x20 ADD PUSH1 0x40 MLOAD SWAP1 DUP2 ADD PUSH1 0x40 MSTORE DUP1 SWAP3 SWAP2 SWAP1 DUP2 DUP2 MSTORE PUSH1 0x20 ADD DUP3 DUP1 SLOAD PUSH2 0x152D SWAP1 PUSH2 0x25E8 JUMP JUMPDEST DUP1 ISZERO PUSH2 0x157A JUMPI DUP1 PUSH1 0x1F LT PUSH2 0x154F JUMPI PUSH2 0x100 DUP1 DUP4 SLOAD DIV MUL DUP4 MSTORE SWAP2 PUSH1 0x20 ADD SWAP2 PUSH2 0x157A JUMP JUMPDEST DUP3 ADD SWAP2 SWAP1 PUSH1 0x0 MSTORE PUSH1 0x20 PUSH1 0x0 KECCAK256 SWAP1 JUMPDEST DUP2 SLOAD DUP2 MSTORE SWAP1 PUSH1 0x1 ADD SWAP1 PUSH1 0x20 ADD DUP1 DUP4 GT PUSH2 0x155D JUMPI DUP3 SWAP1 SUB PUSH1 0x1F AND DUP3 ADD SWAP2 JUMPDEST POP POP POP POP POP DUP2 JUMP JUMPDEST PUSH1 0x1 SLOAD PUSH1 0x1 PUSH1 0x1 PUSH1 0xA0 SHL SUB AND CALLER EQ PUSH2 0x15AC JUMPI PUSH1 0x40 MLOAD PUSH3 0x461BCD PUSH1 0xE5 SHL DUP2 MSTORE PUSH1 0x4 ADD PUSH2 0x68B SWAP1 PUSH2 0x2598 JUMP JUMPDEST PUSH2 0x15B4 PUSH2 0xC04 JUMP JUMPDEST PUSH1 0x0 JUMPDEST DUP3 MLOAD DUP2 LT ISZERO PUSH2 0x1680 JUMPI PUSH1 0xC DUP4 DUP3 DUP2 MLOAD DUP2 LT PUSH2 0x15D4 JUMPI PUSH2 0x15D4 PUSH2 0x2553 JUMP JUMPDEST PUSH1 0x20 SWAP1 DUP2 MUL SWAP2 SWAP1 SWAP2 ADD DUP2 ADD MLOAD DUP3 SLOAD PUSH1 0x1 DUP2 ADD DUP5 SSTORE PUSH1 0x0 SWAP4 DUP5 MSTORE SWAP2 SWAP1 SWAP3 KECCAK256 ADD DUP1 SLOAD PUSH1 0x1 PUSH1 0x1 PUSH1 0xA0 SHL SUB NOT AND PUSH1 0x1 PUSH1 0x1 PUSH1 0xA0 SHL SUB SWAP1 SWAP3 AND SWAP2 SWAP1 SWAP2 OR SWAP1 SSTORE DUP2 MLOAD DUP3 SWAP1 DUP3 SWAP1 DUP2 LT PUSH2 0x1623 JUMPI PUSH2 0x1623 PUSH2 0x2553 JUMP JUMPDEST PUSH1 0x20 MUL PUSH1 0x20 ADD ADD MLOAD PUSH1 0xB PUSH1 0x0 DUP6 DUP5 DUP2 MLOAD DUP2 LT PUSH2 0x1641 JUMPI PUSH2 0x1641 PUSH2 0x2553 JUMP JUMPDEST PUSH1 0x20 MUL PUSH1 0x20 ADD ADD MLOAD PUSH1 0x1 PUSH1 0x1 PUSH1 0xA0 SHL SUB AND PUSH1 0x1 PUSH1 0x1 PUSH1 0xA0 SHL SUB AND DUP2 MSTORE PUSH1 0x20 ADD SWAP1 DUP2 MSTORE PUSH1 0x20 ADD PUSH1 0x0 KECCAK256 DUP2 SWAP1 SSTORE POP DUP1 DUP1 PUSH2 0x1678 SWAP1 PUSH2 0x25CF JUMP JUMPDEST SWAP2 POP POP PUSH2 0x15B7 JUMP JUMPDEST POP POP POP JUMP JUMPDEST PUSH1 0x1 SLOAD PUSH1 0x0 SWAP1 PUSH1 0x1 PUSH1 0x1 PUSH1 0xA0 SHL SUB AND CALLER EQ DUP1 PUSH2 0x16AF JUMPI POP CALLER PUSH1 0x0 SWAP1 DUP2 MSTORE PUSH1 0xB PUSH1 0x20 MSTORE PUSH1 0x40 SWAP1 KECCAK256 SLOAD ISZERO ISZERO JUMPDEST ISZERO PUSH2 0xCDF JUMPI PUSH1 0x4 SLOAD TIMESTAMP LT ISZERO PUSH2 0x1706 JUMPI PUSH1 0x40 MLOAD PUSH3 0x461BCD PUSH1 0xE5 SHL DUP2 MSTORE PUSH1 0x20 PUSH1 0x4 DUP3 ADD MSTORE PUSH1 0x1B PUSH1 0x24 DUP3 ADD MSTORE PUSH32 0x566F74696E6720686173206E6F742073746172746564207965742E0000000000 PUSH1 0x44 DUP3 ADD MSTORE PUSH1 0x64 ADD PUSH2 0x68B JUMP JUMPDEST PUSH1 0x5 SLOAD TIMESTAMP LT PUSH2 0x1715 JUMPI POP PUSH1 0x0 SWAP1 JUMP JUMPDEST TIMESTAMP PUSH1 0x5 SLOAD PUSH2 0xCDA SWAP2 SWAP1 PUSH2 0x2727 JUMP JUMPDEST PUSH1 0x1 SLOAD PUSH1 0x1 PUSH1 0x1 PUSH1 0xA0 SHL SUB AND CALLER EQ PUSH2 0x174D JUMPI PUSH1 0x40 MLOAD PUSH3 0x461BCD PUSH1 0xE5 SHL DUP2 MSTORE PUSH1 0x4 ADD PUSH2 0x68B SWAP1 PUSH2 0x2598 JUMP JUMPDEST PUSH1 0x1 PUSH1 0x1 PUSH1 0xA0 SHL SUB DUP2 AND PUSH2 0x17A3 JUMPI PUSH1 0x40 MLOAD PUSH3 0x461BCD PUSH1 0xE5 SHL DUP2 MSTORE PUSH1 0x20 PUSH1 0x4 DUP3 ADD MSTORE PUSH1 0x1E PUSH1 0x24 DUP3 ADD MSTORE PUSH32 0x4E6577206F776E657220697320746865207A65726F20616464726573732E0000 PUSH1 0x44 DUP3 ADD MSTORE PUSH1 0x64 ADD PUSH2 0x68B JUMP JUMPDEST PUSH1 0x1 SLOAD PUSH1 0x40 MLOAD PUSH1 0x1 PUSH1 0x1 PUSH1 0xA0 SHL SUB DUP1 DUP5 AND SWAP3 AND SWAP1 PUSH32 0x8BE0079C531659141344CD1FD0A4F28419497F9722A3DAAFE3B4186F6B6457E0 SWAP1 PUSH1 0x0 SWAP1 LOG3 PUSH1 0x1 DUP1 SLOAD PUSH1 0x1 PUSH1 0x1 PUSH1 0xA0 SHL SUB NOT AND PUSH1 0x1 PUSH1 0x1 PUSH1 0xA0 SHL SUB SWAP3 SWAP1 SWAP3 AND SWAP2 SWAP1 SWAP2 OR SWAP1 SSTORE JUMP JUMPDEST PUSH1 0x1 SLOAD PUSH1 0x1 PUSH1 0x1 PUSH1 0xA0 SHL SUB AND CALLER EQ PUSH2 0x1829 JUMPI PUSH1 0x40 MLOAD PUSH3 0x461BCD PUSH1 0xE5 SHL DUP2 MSTORE PUSH1 0x4 ADD PUSH2 0x68B SWAP1 PUSH2 0x2598 JUMP JUMPDEST PUSH1 0x5 SLOAD TIMESTAMP GT ISZERO PUSH2 0x1893 JUMPI PUSH1 0x40 MLOAD PUSH3 0x461BCD PUSH1 0xE5 SHL DUP2 MSTORE PUSH1 0x20 PUSH1 0x4 DUP3 ADD MSTORE PUSH1 0x2F PUSH1 0x24 DUP3 ADD MSTORE PUSH32 0x566F74696E6720686173206E6F74206265656E2073746172746564206F722061 PUSH1 0x44 DUP3 ADD MSTORE PUSH15 0x363932B0B23C9039BA37B83832B217 PUSH1 0x89 SHL PUSH1 0x64 DUP3 ADD MSTORE PUSH1 0x84 ADD PUSH2 0x68B JUMP JUMPDEST TIMESTAMP PUSH1 0x5 SSTORE JUMP JUMPDEST PUSH1 0x8 SLOAD PUSH2 0x100 SWAP1 DIV PUSH1 0x1 PUSH1 0x1 PUSH1 0xA0 SHL SUB AND CALLER EQ PUSH2 0x1908 JUMPI PUSH1 0x40 MLOAD PUSH3 0x461BCD PUSH1 0xE5 SHL DUP2 MSTORE PUSH1 0x20 PUSH1 0x4 DUP3 ADD MSTORE PUSH1 0x27 PUSH1 0x24 DUP3 ADD MSTORE PUSH32 0x43616C6C6572206973206E6F74207468652073757072656D652061646D696E69 PUSH1 0x44 DUP3 ADD MSTORE PUSH7 0x39BA3930BA37B9 PUSH1 0xC9 SHL PUSH1 0x64 DUP3 ADD MSTORE PUSH1 0x84 ADD PUSH2 0x68B JUMP JUMPDEST PUSH1 0x1 PUSH1 0x1 PUSH1 0xA0 SHL SUB DUP3 AND PUSH2 0x1957 JUMPI PUSH1 0x40 MLOAD PUSH3 0x461BCD PUSH1 0xE5 SHL DUP2 MSTORE PUSH1 0x20 PUSH1 0x4 DUP3 ADD MSTORE PUSH1 0x16 PUSH1 0x24 DUP3 ADD MSTORE PUSH22 0x24B73B30B634B2103A37B5B2B71030B2323932B9B997 PUSH1 0x51 SHL PUSH1 0x44 DUP3 ADD MSTORE PUSH1 0x64 ADD PUSH2 0x68B JUMP JUMPDEST PUSH1 0x0 DUP2 GT PUSH2 0x19B5 JUMPI PUSH1 0x40 MLOAD PUSH3 0x461BCD PUSH1 0xE5 SHL DUP2 MSTORE PUSH1 0x20 PUSH1 0x4 DUP3 ADD MSTORE PUSH1 0x25 PUSH1 0x24 DUP3 ADD MSTORE PUSH32 0x46656520616D6F756E74206D7573742062652067726561746572207468616E20 PUSH1 0x44 DUP3 ADD MSTORE PUSH5 0x3D32B93797 PUSH1 0xD9 SHL PUSH1 0x64 DUP3 ADD MSTORE PUSH1 0x84 ADD PUSH2 0x68B JUMP JUMPDEST PUSH1 0x9 DUP1 SLOAD PUSH1 0x1 PUSH1 0x1 PUSH1 0xA0 SHL SUB NOT AND PUSH1 0x1 PUSH1 0x1 PUSH1 0xA0 SHL SUB SWAP4 SWAP1 SWAP4 AND SWAP3 SWAP1 SWAP3 OR SWAP1 SWAP2 SSTORE PUSH1 0xA SSTORE JUMP JUMPDEST PUSH1 0x1 SLOAD PUSH1 0x1 PUSH1 0x1 PUSH1 0xA0 SHL SUB AND CALLER EQ PUSH2 0x1A05 JUMPI PUSH1 0x40 MLOAD PUSH3 0x461BCD PUSH1 0xE5 SHL DUP2 MSTORE PUSH1 0x4 ADD PUSH2 0x68B SWAP1 PUSH2 0x2598 JUMP JUMPDEST TIMESTAMP PUSH1 0x5 SLOAD GT ISZERO PUSH2 0x1A7D JUMPI PUSH1 0x40 MLOAD PUSH3 0x461BCD PUSH1 0xE5 SHL DUP2 MSTORE PUSH1 0x20 PUSH1 0x4 DUP3 ADD MSTORE PUSH1 0x38 PUSH1 0x24 DUP3 ADD MSTORE PUSH32 0x566F74696E672068617320616C7265616479206265656E207374617274656420 PUSH1 0x44 DUP3 ADD MSTORE PUSH32 0x6F7220686173206E6F74206265656E2073746F707065642E0000000000000000 PUSH1 0x64 DUP3 ADD MSTORE PUSH1 0x84 ADD PUSH2 0x68B JUMP JUMPDEST DUP1 CALLVALUE LT ISZERO PUSH2 0x1AE1 JUMPI PUSH1 0x40 MLOAD PUSH3 0x461BCD PUSH1 0xE5 SHL DUP2 MSTORE PUSH1 0x20 PUSH1 0x4 DUP3 ADD MSTORE PUSH1 0x2B PUSH1 0x24 DUP3 ADD MSTORE PUSH32 0x4E6F7420656E6F756768204554482073656E7420666F722074686520766F7469 PUSH1 0x44 DUP3 ADD MSTORE PUSH11 0x373390383937B1B2B9B997 PUSH1 0xA9 SHL PUSH1 0x64 DUP3 ADD MSTORE PUSH1 0x84 ADD PUSH2 0x68B JUMP JUMPDEST PUSH1 0x9 SLOAD PUSH1 0x40 MLOAD PUSH4 0x6EB1769F PUSH1 0xE1 SHL DUP2 MSTORE CALLER PUSH1 0x4 DUP3 ADD MSTORE ADDRESS PUSH1 0x24 DUP3 ADD MSTORE PUSH1 0x0 SWAP2 PUSH1 0x1 PUSH1 0x1 PUSH1 0xA0 SHL SUB AND SWAP1 PUSH4 0xDD62ED3E SWAP1 PUSH1 0x44 ADD PUSH1 0x20 PUSH1 0x40 MLOAD DUP1 DUP4 SUB DUP2 DUP7 GAS STATICCALL ISZERO DUP1 ISZERO PUSH2 0x1B30 JUMPI RETURNDATASIZE PUSH1 0x0 DUP1 RETURNDATACOPY RETURNDATASIZE PUSH1 0x0 REVERT JUMPDEST POP POP POP POP PUSH1 0x40 MLOAD RETURNDATASIZE PUSH1 0x1F NOT PUSH1 0x1F DUP3 ADD AND DUP3 ADD DUP1 PUSH1 0x40 MSTORE POP DUP2 ADD SWAP1 PUSH2 0x1B54 SWAP2 SWAP1 PUSH2 0x273A JUMP JUMPDEST SWAP1 POP PUSH1 0xA SLOAD DUP2 LT ISZERO PUSH2 0x1BB7 JUMPI PUSH1 0x40 MLOAD PUSH3 0x461BCD PUSH1 0xE5 SHL DUP2 MSTORE PUSH1 0x20 PUSH1 0x4 DUP3 ADD MSTORE PUSH1 0x26 PUSH1 0x24 DUP3 ADD MSTORE PUSH32 0x4E6F7420656E6F75676820746F6B656E7320617070726F76656420666F722062 PUSH1 0x44 DUP3 ADD MSTORE PUSH6 0x75726E696E67 PUSH1 0xD0 SHL PUSH1 0x64 DUP3 ADD MSTORE PUSH1 0x84 ADD PUSH2 0x68B JUMP JUMPDEST PUSH1 0x9 SLOAD PUSH1 0xA SLOAD PUSH1 0x40 MLOAD PUSH4 0x79CC679 PUSH1 0xE4 SHL DUP2 MSTORE CALLER PUSH1 0x4 DUP3 ADD MSTORE PUSH1 0x24 DUP2 ADD SWAP2 SWAP1 SWAP2 MSTORE PUSH1 0x1 PUSH1 0x1 PUSH1 0xA0 SHL SUB SWAP1 SWAP2 AND SWAP1 PUSH4 0x79CC6790 SWAP1 PUSH1 0x44 ADD PUSH1 0x0 PUSH1 0x40 MLOAD DUP1 DUP4 SUB DUP2 PUSH1 0x0 DUP8 DUP1 EXTCODESIZE ISZERO DUP1 ISZERO PUSH2 0x1C07 JUMPI PUSH1 0x0 DUP1 REVERT JUMPDEST POP GAS CALL ISZERO DUP1 ISZERO PUSH2 0x1C1B JUMPI RETURNDATASIZE PUSH1 0x0 DUP1 RETURNDATACOPY RETURNDATASIZE PUSH1 0x0 REVERT JUMPDEST POP POP POP POP PUSH2 0x1C2B DUP6 DUP6 DUP6 DUP6 PUSH2 0x1C9F JUMP JUMPDEST PUSH2 0x1C33 PUSH2 0xCE5 JUMP JUMPDEST PUSH2 0x1C3D DUP11 DUP11 PUSH2 0x1582 JUMP JUMPDEST PUSH2 0x1C46 DUP9 PUSH2 0x1335 JUMP JUMPDEST PUSH1 0x6 PUSH2 0x1C52 DUP9 DUP3 PUSH2 0x2668 JUMP JUMPDEST POP TIMESTAMP PUSH1 0x4 SSTORE PUSH2 0x1C62 DUP12 PUSH1 0x3C PUSH2 0x2753 JUMP JUMPDEST PUSH2 0x1C6C SWAP1 TIMESTAMP PUSH2 0x257F JUMP JUMPDEST PUSH1 0x5 SSTORE PUSH1 0x8 DUP1 SLOAD PUSH1 0xFF NOT AND DUP8 ISZERO ISZERO OR SWAP1 SSTORE PUSH1 0x3 DUP1 SLOAD SWAP1 PUSH1 0x0 PUSH2 0x1C8D DUP4 PUSH2 0x25CF JUMP JUMPDEST SWAP2 SWAP1 POP SSTORE POP POP POP POP POP POP POP POP POP POP POP POP JUMP JUMPDEST DUP1 CALLVALUE LT ISZERO PUSH2 0x1CE6 JUMPI PUSH1 0x40 MLOAD PUSH3 0x461BCD PUSH1 0xE5 SHL DUP2 MSTORE PUSH1 0x20 PUSH1 0x4 DUP3 ADD MSTORE PUSH1 0x14 PUSH1 0x24 DUP3 ADD MSTORE PUSH20 0x2737BA1032B737BAB3B41022AA241039B2B73A17 PUSH1 0x61 SHL PUSH1 0x44 DUP3 ADD MSTORE PUSH1 0x64 ADD PUSH2 0x68B JUMP JUMPDEST PUSH1 0x0 JUMPDEST DUP4 DUP2 LT ISZERO PUSH2 0x1D63 JUMPI DUP5 DUP5 DUP3 DUP2 DUP2 LT PUSH2 0x1D03 JUMPI PUSH2 0x1D03 PUSH2 0x2553 JUMP JUMPDEST SWAP1 POP PUSH1 0x20 MUL ADD PUSH1 0x20 DUP2 ADD SWAP1 PUSH2 0x1D18 SWAP2 SWAP1 PUSH2 0x20AB JUMP JUMPDEST PUSH1 0x1 PUSH1 0x1 PUSH1 0xA0 SHL SUB AND PUSH2 0x8FC DUP5 SWAP1 DUP2 ISZERO MUL SWAP1 PUSH1 0x40 MLOAD PUSH1 0x0 PUSH1 0x40 MLOAD DUP1 DUP4 SUB DUP2 DUP6 DUP9 DUP9 CALL SWAP4 POP POP POP POP ISZERO DUP1 ISZERO PUSH2 0x1D50 JUMPI RETURNDATASIZE PUSH1 0x0 DUP1 RETURNDATACOPY RETURNDATASIZE PUSH1 0x0 REVERT JUMPDEST POP DUP1 PUSH2 0x1D5B DUP2 PUSH2 0x25CF JUMP JUMPDEST SWAP2 POP POP PUSH2 0x1CE9 JUMP JUMPDEST POP PUSH1 0x0 PUSH2 0x1D70 DUP4 DUP6 PUSH2 0x2753 JUMP JUMPDEST PUSH2 0x1D7A SWAP1 DUP4 PUSH2 0x2727 JUMP JUMPDEST SWAP1 POP DUP1 ISZERO PUSH2 0x1DB1 JUMPI PUSH1 0x40 MLOAD CALLER SWAP1 DUP3 ISZERO PUSH2 0x8FC MUL SWAP1 DUP4 SWAP1 PUSH1 0x0 DUP2 DUP2 DUP2 DUP6 DUP9 DUP9 CALL SWAP4 POP POP POP POP ISZERO DUP1 ISZERO PUSH2 0x1DAF JUMPI RETURNDATASIZE PUSH1 0x0 DUP1 RETURNDATACOPY RETURNDATASIZE PUSH1 0x0 REVERT JUMPDEST POP JUMPDEST POP POP POP POP POP JUMP JUMPDEST POP DUP1 SLOAD PUSH1 0x0 DUP3 SSTORE SWAP1 PUSH1 0x0 MSTORE PUSH1 0x20 PUSH1 0x0 KECCAK256 SWAP1 DUP2 ADD SWAP1 PUSH2 0x1DD6 SWAP2 SWAP1 PUSH2 0x1DFA JUMP JUMPDEST POP JUMP JUMPDEST POP DUP1 SLOAD PUSH1 0x0 DUP3 SSTORE PUSH1 0x2 MUL SWAP1 PUSH1 0x0 MSTORE PUSH1 0x20 PUSH1 0x0 KECCAK256 SWAP1 DUP2 ADD SWAP1 PUSH2 0x1DD6 SWAP2 SWAP1 PUSH2 0x1E13 JUMP JUMPDEST JUMPDEST DUP1 DUP3 GT ISZERO PUSH2 0x1E0F JUMPI PUSH1 0x0 DUP2 SSTORE PUSH1 0x1 ADD PUSH2 0x1DFB JUMP JUMPDEST POP SWAP1 JUMP JUMPDEST DUP1 DUP3 GT ISZERO PUSH2 0x1E0F JUMPI PUSH1 0x0 PUSH2 0x1E27 DUP3 DUP3 PUSH2 0x1E37 JUMP JUMPDEST POP PUSH1 0x0 PUSH1 0x1 DUP3 ADD SSTORE PUSH1 0x2 ADD PUSH2 0x1E13 JUMP JUMPDEST POP DUP1 SLOAD PUSH2 0x1E43 SWAP1 PUSH2 0x25E8 JUMP JUMPDEST PUSH1 0x0 DUP3 SSTORE DUP1 PUSH1 0x1F LT PUSH2 0x1E53 JUMPI POP POP JUMP JUMPDEST PUSH1 0x1F ADD PUSH1 0x20 SWAP1 DIV SWAP1 PUSH1 0x0 MSTORE PUSH1 0x20 PUSH1 0x0 KECCAK256 SWAP1 DUP2 ADD SWAP1 PUSH2 0x1DD6 SWAP2 SWAP1 PUSH2 0x1DFA JUMP JUMPDEST PUSH1 0x0 PUSH1 0x20 DUP3 DUP5 SUB SLT ISZERO PUSH2 0x1E83 JUMPI PUSH1 0x0 DUP1 REVERT JUMPDEST POP CALLDATALOAD SWAP2 SWAP1 POP JUMP JUMPDEST PUSH1 0x20 DUP1 DUP3 MSTORE DUP3 MLOAD DUP3 DUP3 ADD DUP2 SWAP1 MSTORE PUSH1 0x0 SWAP2 SWAP1 PUSH1 0x40 SWAP1 DUP2 DUP6 ADD SWAP1 DUP7 DUP5 ADD DUP6 JUMPDEST DUP3 DUP2 LT ISZERO PUSH2 0x1ED5 JUMPI DUP2 MLOAD DUP1 MLOAD PUSH1 0x1 PUSH1 0x1 PUSH1 0xA0 SHL SUB AND DUP6 MSTORE DUP7 ADD MLOAD DUP7 DUP6 ADD MSTORE SWAP3 DUP5 ADD SWAP3 SWAP1 DUP6 ADD SWAP1 PUSH1 0x1 ADD PUSH2 0x1EA7 JUMP JUMPDEST POP SWAP2 SWAP8 SWAP7 POP POP POP POP POP POP POP JUMP JUMPDEST PUSH1 0x1 PUSH1 0x1 PUSH1 0xA0 SHL SUB DUP2 AND DUP2 EQ PUSH2 0x1DD6 JUMPI PUSH1 0x0 DUP1 REVERT JUMPDEST PUSH1 0x0 DUP1 PUSH1 0x0 DUP1 PUSH1 0x0 PUSH1 0xA0 DUP7 DUP9 SUB SLT ISZERO PUSH2 0x1F0F JUMPI PUSH1 0x0 DUP1 REVERT JUMPDEST DUP6 CALLDATALOAD PUSH2 0x1F1A DUP2 PUSH2 0x1EE2 JUMP JUMPDEST SWAP5 POP PUSH1 0x20 DUP7 ADD CALLDATALOAD SWAP4 POP PUSH1 0x40 DUP7 ADD CALLDATALOAD PUSH2 0x1F31 DUP2 PUSH2 0x1EE2 JUMP JUMPDEST SWAP3 POP PUSH1 0x60 DUP7 ADD CALLDATALOAD PUSH2 0x1F41 DUP2 PUSH2 0x1EE2 JUMP JUMPDEST SWAP5 SWAP8 SWAP4 SWAP7 POP SWAP2 SWAP5 PUSH1 0x80 ADD CALLDATALOAD SWAP3 SWAP2 POP POP JUMP JUMPDEST PUSH1 0x0 DUP2 MLOAD DUP1 DUP5 MSTORE PUSH1 0x0 JUMPDEST DUP2 DUP2 LT ISZERO PUSH2 0x1F78 JUMPI PUSH1 0x20 DUP2 DUP6 ADD DUP2 ADD MLOAD DUP7 DUP4 ADD DUP3 ADD MSTORE ADD PUSH2 0x1F5C JUMP JUMPDEST POP PUSH1 0x0 PUSH1 0x20 DUP3 DUP7 ADD ADD MSTORE PUSH1 0x20 PUSH1 0x1F NOT PUSH1 0x1F DUP4 ADD AND DUP6 ADD ADD SWAP2 POP POP SWAP3 SWAP2 POP POP JUMP JUMPDEST PUSH1 0x40 DUP2 MSTORE PUSH1 0x0 PUSH2 0x1FAB PUSH1 0x40 DUP4 ADD DUP6 PUSH2 0x1F52 JUMP JUMPDEST SWAP1 POP DUP3 PUSH1 0x20 DUP4 ADD MSTORE SWAP4 SWAP3 POP POP POP JUMP JUMPDEST PUSH4 0x4E487B71 PUSH1 0xE0 SHL PUSH1 0x0 MSTORE PUSH1 0x41 PUSH1 0x4 MSTORE PUSH1 0x24 PUSH1 0x0 REVERT JUMPDEST PUSH1 0x40 MLOAD PUSH1 0x1F DUP3 ADD PUSH1 0x1F NOT AND DUP2 ADD PUSH1 0x1 PUSH1 0x1 PUSH1 0x40 SHL SUB DUP2 GT DUP3 DUP3 LT OR ISZERO PUSH2 0x1FF8 JUMPI PUSH2 0x1FF8 PUSH2 0x1FBA JUMP JUMPDEST PUSH1 0x40 MSTORE SWAP2 SWAP1 POP JUMP JUMPDEST PUSH1 0x0 DUP3 PUSH1 0x1F DUP4 ADD SLT PUSH2 0x2011 JUMPI PUSH1 0x0 DUP1 REVERT JUMPDEST DUP2 CALLDATALOAD PUSH1 0x1 PUSH1 0x1 PUSH1 0x40 SHL SUB DUP2 GT ISZERO PUSH2 0x202A JUMPI PUSH2 0x202A PUSH2 0x1FBA JUMP JUMPDEST PUSH2 0x203D PUSH1 0x1F DUP3 ADD PUSH1 0x1F NOT AND PUSH1 0x20 ADD PUSH2 0x1FD0 JUMP JUMPDEST DUP2 DUP2 MSTORE DUP5 PUSH1 0x20 DUP4 DUP7 ADD ADD GT ISZERO PUSH2 0x2052 JUMPI PUSH1 0x0 DUP1 REVERT JUMPDEST DUP2 PUSH1 0x20 DUP6 ADD PUSH1 0x20 DUP4 ADD CALLDATACOPY PUSH1 0x0 SWAP2 DUP2 ADD PUSH1 0x20 ADD SWAP2 SWAP1 SWAP2 MSTORE SWAP4 SWAP3 POP POP POP JUMP JUMPDEST PUSH1 0x0 PUSH1 0x20 DUP3 DUP5 SUB SLT ISZERO PUSH2 0x2081 JUMPI PUSH1 0x0 DUP1 REVERT JUMPDEST DUP2 CALLDATALOAD PUSH1 0x1 PUSH1 0x1 PUSH1 0x40 SHL SUB DUP2 GT ISZERO PUSH2 0x2097 JUMPI PUSH1 0x0 DUP1 REVERT JUMPDEST PUSH2 0x20A3 DUP5 DUP3 DUP6 ADD PUSH2 0x2000 JUMP JUMPDEST SWAP5 SWAP4 POP POP POP POP JUMP JUMPDEST PUSH1 0x0 PUSH1 0x20 DUP3 DUP5 SUB SLT ISZERO PUSH2 0x20BD JUMPI PUSH1 0x0 DUP1 REVERT JUMPDEST DUP2 CALLDATALOAD PUSH2 0x20C8 DUP2 PUSH2 0x1EE2 JUMP JUMPDEST SWAP4 SWAP3 POP POP POP JUMP JUMPDEST PUSH1 0x0 PUSH1 0x20 DUP1 DUP4 ADD DUP2 DUP5 MSTORE DUP1 DUP6 MLOAD DUP1 DUP4 MSTORE PUSH1 0x40 DUP7 ADD SWAP2 POP PUSH1 0x40 DUP2 PUSH1 0x5 SHL DUP8 ADD ADD SWAP3 POP DUP4 DUP8 ADD PUSH1 0x0 JUMPDEST DUP3 DUP2 LT ISZERO PUSH2 0x2124 JUMPI PUSH1 0x3F NOT DUP9 DUP7 SUB ADD DUP5 MSTORE PUSH2 0x2112 DUP6 DUP4 MLOAD PUSH2 0x1F52 JUMP JUMPDEST SWAP5 POP SWAP3 DUP6 ADD SWAP3 SWAP1 DUP6 ADD SWAP1 PUSH1 0x1 ADD PUSH2 0x20F6 JUMP JUMPDEST POP SWAP3 SWAP8 SWAP7 POP POP POP POP POP POP POP JUMP JUMPDEST PUSH1 0x0 PUSH1 0x20 DUP1 DUP4 ADD DUP2 DUP5 MSTORE DUP1 DUP6 MLOAD DUP1 DUP4 MSTORE PUSH1 0x40 SWAP3 POP DUP3 DUP7 ADD SWAP2 POP DUP3 DUP2 PUSH1 0x5 SHL DUP8 ADD ADD DUP5 DUP9 ADD PUSH1 0x0 JUMPDEST DUP4 DUP2 LT ISZERO PUSH2 0x2199 JUMPI DUP9 DUP4 SUB PUSH1 0x3F NOT ADD DUP6 MSTORE DUP2 MLOAD DUP1 MLOAD DUP8 DUP6 MSTORE PUSH2 0x217C DUP9 DUP7 ADD DUP3 PUSH2 0x1F52 JUMP JUMPDEST SWAP2 DUP10 ADD MLOAD SWAP5 DUP10 ADD SWAP5 SWAP1 SWAP5 MSTORE SWAP5 DUP8 ADD SWAP5 SWAP3 POP SWAP1 DUP7 ADD SWAP1 PUSH1 0x1 ADD PUSH2 0x2158 JUMP JUMPDEST POP SWAP1 SWAP9 SWAP8 POP POP POP POP POP POP POP POP JUMP JUMPDEST PUSH1 0x20 DUP2 MSTORE PUSH1 0x0 PUSH2 0x20C8 PUSH1 0x20 DUP4 ADD DUP5 PUSH2 0x1F52 JUMP JUMPDEST PUSH1 0x0 PUSH1 0x1 PUSH1 0x1 PUSH1 0x40 SHL SUB DUP3 GT ISZERO PUSH2 0x21D3 JUMPI PUSH2 0x21D3 PUSH2 0x1FBA JUMP JUMPDEST POP PUSH1 0x5 SHL PUSH1 0x20 ADD SWAP1 JUMP JUMPDEST PUSH1 0x0 DUP3 PUSH1 0x1F DUP4 ADD SLT PUSH2 0x21EE JUMPI PUSH1 0x0 DUP1 REVERT JUMPDEST DUP2 CALLDATALOAD PUSH1 0x20 PUSH2 0x2203 PUSH2 0x21FE DUP4 PUSH2 0x21BA JUMP JUMPDEST PUSH2 0x1FD0 JUMP JUMPDEST DUP3 DUP2 MSTORE PUSH1 0x5 SWAP3 SWAP1 SWAP3 SHL DUP5 ADD DUP2 ADD SWAP2 DUP2 DUP2 ADD SWAP1 DUP7 DUP5 GT ISZERO PUSH2 0x2222 JUMPI PUSH1 0x0 DUP1 REVERT JUMPDEST DUP3 DUP7 ADD JUMPDEST DUP5 DUP2 LT ISZERO PUSH2 0x2261 JUMPI DUP1 CALLDATALOAD PUSH1 0x1 PUSH1 0x1 PUSH1 0x40 SHL SUB DUP2 GT ISZERO PUSH2 0x2245 JUMPI PUSH1 0x0 DUP1 DUP2 REVERT JUMPDEST PUSH2 0x2253 DUP10 DUP7 DUP4 DUP12 ADD ADD PUSH2 0x2000 JUMP JUMPDEST DUP5 MSTORE POP SWAP2 DUP4 ADD SWAP2 DUP4 ADD PUSH2 0x2226 JUMP JUMPDEST POP SWAP7 SWAP6 POP POP POP POP POP POP JUMP JUMPDEST PUSH1 0x0 PUSH1 0x20 DUP3 DUP5 SUB SLT ISZERO PUSH2 0x227E JUMPI PUSH1 0x0 DUP1 REVERT JUMPDEST DUP2 CALLDATALOAD PUSH1 0x1 PUSH1 0x1 PUSH1 0x40 SHL SUB DUP2 GT ISZERO PUSH2 0x2294 JUMPI PUSH1 0x0 DUP1 REVERT JUMPDEST PUSH2 0x20A3 DUP5 DUP3 DUP6 ADD PUSH2 0x21DD JUMP JUMPDEST PUSH1 0x0 DUP3 PUSH1 0x1F DUP4 ADD SLT PUSH2 0x22B1 JUMPI PUSH1 0x0 DUP1 REVERT JUMPDEST DUP2 CALLDATALOAD PUSH1 0x20 PUSH2 0x22C1 PUSH2 0x21FE DUP4 PUSH2 0x21BA JUMP JUMPDEST DUP3 DUP2 MSTORE PUSH1 0x5 SWAP3 SWAP1 SWAP3 SHL DUP5 ADD DUP2 ADD SWAP2 DUP2 DUP2 ADD SWAP1 DUP7 DUP5 GT ISZERO PUSH2 0x22E0 JUMPI PUSH1 0x0 DUP1 REVERT JUMPDEST DUP3 DUP7 ADD JUMPDEST DUP5 DUP2 LT ISZERO PUSH2 0x2261 JUMPI DUP1 CALLDATALOAD PUSH2 0x22F7 DUP2 PUSH2 0x1EE2 JUMP JUMPDEST DUP4 MSTORE SWAP2 DUP4 ADD SWAP2 DUP4 ADD PUSH2 0x22E4 JUMP JUMPDEST PUSH1 0x0 DUP3 PUSH1 0x1F DUP4 ADD SLT PUSH2 0x2315 JUMPI PUSH1 0x0 DUP1 REVERT JUMPDEST DUP2 CALLDATALOAD PUSH1 0x20 PUSH2 0x2325 PUSH2 0x21FE DUP4 PUSH2 0x21BA JUMP JUMPDEST DUP3 DUP2 MSTORE PUSH1 0x5 SWAP3 SWAP1 SWAP3 SHL DUP5 ADD DUP2 ADD SWAP2 DUP2 DUP2 ADD SWAP1 DUP7 DUP5 GT ISZERO PUSH2 0x2344 JUMPI PUSH1 0x0 DUP1 REVERT JUMPDEST DUP3 DUP7 ADD JUMPDEST DUP5 DUP2 LT ISZERO PUSH2 0x2261 JUMPI DUP1 CALLDATALOAD DUP4 MSTORE SWAP2 DUP4 ADD SWAP2 DUP4 ADD PUSH2 0x2348 JUMP JUMPDEST PUSH1 0x0 DUP1 PUSH1 0x40 DUP4 DUP6 SUB SLT ISZERO PUSH2 0x2372 JUMPI PUSH1 0x0 DUP1 REVERT JUMPDEST DUP3 CALLDATALOAD PUSH1 0x1 PUSH1 0x1 PUSH1 0x40 SHL SUB DUP1 DUP3 GT ISZERO PUSH2 0x2389 JUMPI PUSH1 0x0 DUP1 REVERT JUMPDEST PUSH2 0x2395 DUP7 DUP4 DUP8 ADD PUSH2 0x22A0 JUMP JUMPDEST SWAP4 POP PUSH1 0x20 DUP6 ADD CALLDATALOAD SWAP2 POP DUP1 DUP3 GT ISZERO PUSH2 0x23AB JUMPI PUSH1 0x0 DUP1 REVERT JUMPDEST POP PUSH2 0x23B8 DUP6 DUP3 DUP7 ADD PUSH2 0x2304 JUMP JUMPDEST SWAP2 POP POP SWAP3 POP SWAP3 SWAP1 POP JUMP JUMPDEST PUSH1 0x0 DUP1 PUSH1 0x40 DUP4 DUP6 SUB SLT ISZERO PUSH2 0x23D5 JUMPI PUSH1 0x0 DUP1 REVERT JUMPDEST DUP3 CALLDATALOAD PUSH2 0x23E0 DUP2 PUSH2 0x1EE2 JUMP JUMPDEST SWAP5 PUSH1 0x20 SWAP4 SWAP1 SWAP4 ADD CALLDATALOAD SWAP4 POP POP POP JUMP JUMPDEST DUP1 CALLDATALOAD DUP1 ISZERO ISZERO DUP2 EQ PUSH2 0x23FE JUMPI PUSH1 0x0 DUP1 REVERT JUMPDEST SWAP2 SWAP1 POP JUMP JUMPDEST PUSH1 0x0 DUP1 DUP4 PUSH1 0x1F DUP5 ADD SLT PUSH2 0x2415 JUMPI PUSH1 0x0 DUP1 REVERT JUMPDEST POP DUP2 CALLDATALOAD PUSH1 0x1 PUSH1 0x1 PUSH1 0x40 SHL SUB DUP2 GT ISZERO PUSH2 0x242C JUMPI PUSH1 0x0 DUP1 REVERT JUMPDEST PUSH1 0x20 DUP4 ADD SWAP2 POP DUP4 PUSH1 0x20 DUP3 PUSH1 0x5 SHL DUP6 ADD ADD GT ISZERO PUSH2 0x2447 JUMPI PUSH1 0x0 DUP1 REVERT JUMPDEST SWAP3 POP SWAP3 SWAP1 POP JUMP JUMPDEST PUSH1 0x0 DUP1 PUSH1 0x0 DUP1 PUSH1 0x0 DUP1 PUSH1 0x0 DUP1 PUSH1 0x0 DUP1 PUSH2 0x120 DUP12 DUP14 SUB SLT ISZERO PUSH2 0x246E JUMPI PUSH1 0x0 DUP1 REVERT JUMPDEST DUP11 CALLDATALOAD SWAP10 POP PUSH1 0x20 DUP12 ADD CALLDATALOAD PUSH1 0x1 PUSH1 0x1 PUSH1 0x40 SHL SUB DUP1 DUP3 GT ISZERO PUSH2 0x248C JUMPI PUSH1 0x0 DUP1 REVERT JUMPDEST PUSH2 0x2498 DUP15 DUP4 DUP16 ADD PUSH2 0x22A0 JUMP JUMPDEST SWAP11 POP PUSH1 0x40 DUP14 ADD CALLDATALOAD SWAP2 POP DUP1 DUP3 GT ISZERO PUSH2 0x24AE JUMPI PUSH1 0x0 DUP1 REVERT JUMPDEST PUSH2 0x24BA DUP15 DUP4 DUP16 ADD PUSH2 0x2304 JUMP JUMPDEST SWAP10 POP PUSH1 0x60 DUP14 ADD CALLDATALOAD SWAP2 POP DUP1 DUP3 GT ISZERO PUSH2 0x24D0 JUMPI PUSH1 0x0 DUP1 REVERT JUMPDEST PUSH2 0x24DC DUP15 DUP4 DUP16 ADD PUSH2 0x21DD JUMP JUMPDEST SWAP9 POP PUSH1 0x80 DUP14 ADD CALLDATALOAD SWAP2 POP DUP1 DUP3 GT ISZERO PUSH2 0x24F2 JUMPI PUSH1 0x0 DUP1 REVERT JUMPDEST PUSH2 0x24FE DUP15 DUP4 DUP16 ADD PUSH2 0x2000 JUMP JUMPDEST SWAP8 POP PUSH2 0x250C PUSH1 0xA0 DUP15 ADD PUSH2 0x23EE JUMP JUMPDEST SWAP7 POP PUSH1 0xC0 DUP14 ADD CALLDATALOAD SWAP2 POP DUP1 DUP3 GT ISZERO PUSH2 0x2522 JUMPI PUSH1 0x0 DUP1 REVERT JUMPDEST POP PUSH2 0x252F DUP14 DUP3 DUP15 ADD PUSH2 0x2403 JUMP JUMPDEST SWAP12 SWAP15 SWAP11 SWAP14 POP SWAP9 SWAP12 SWAP8 SWAP11 SWAP7 SWAP10 SWAP6 SWAP9 SWAP8 PUSH1 0xE0 DUP2 ADD CALLDATALOAD SWAP7 PUSH2 0x100 SWAP1 SWAP2 ADD CALLDATALOAD SWAP6 POP SWAP4 POP POP POP POP JUMP JUMPDEST PUSH4 0x4E487B71 PUSH1 0xE0 SHL PUSH1 0x0 MSTORE PUSH1 0x32 PUSH1 0x4 MSTORE PUSH1 0x24 PUSH1 0x0 REVERT JUMPDEST PUSH4 0x4E487B71 PUSH1 0xE0 SHL PUSH1 0x0 MSTORE PUSH1 0x11 PUSH1 0x4 MSTORE PUSH1 0x24 PUSH1 0x0 REVERT JUMPDEST DUP1 DUP3 ADD DUP1 DUP3 GT ISZERO PUSH2 0x2592 JUMPI PUSH2 0x2592 PUSH2 0x2569 JUMP JUMPDEST SWAP3 SWAP2 POP POP JUMP JUMPDEST PUSH1 0x20 DUP1 DUP3 MSTORE PUSH1 0x17 SWAP1 DUP3 ADD MSTORE PUSH32 0x43616C6C6572206973206E6F7420746865206F776E6572000000000000000000 PUSH1 0x40 DUP3 ADD MSTORE PUSH1 0x60 ADD SWAP1 JUMP JUMPDEST PUSH1 0x0 PUSH1 0x1 DUP3 ADD PUSH2 0x25E1 JUMPI PUSH2 0x25E1 PUSH2 0x2569 JUMP JUMPDEST POP PUSH1 0x1 ADD SWAP1 JUMP JUMPDEST PUSH1 0x1 DUP2 DUP2 SHR SWAP1 DUP3 AND DUP1 PUSH2 0x25FC JUMPI PUSH1 0x7F DUP3 AND SWAP2 POP JUMPDEST PUSH1 0x20 DUP3 LT DUP2 SUB PUSH2 0x261C JUMPI PUSH4 0x4E487B71 PUSH1 0xE0 SHL PUSH1 0x0 MSTORE PUSH1 0x22 PUSH1 0x4 MSTORE PUSH1 0x24 PUSH1 0x0 REVERT JUMPDEST POP SWAP2 SWAP1 POP JUMP JUMPDEST PUSH1 0x1F DUP3 GT ISZERO PUSH2 0x1680 JUMPI PUSH1 0x0 DUP2 DUP2 MSTORE PUSH1 0x20 DUP2 KECCAK256 PUSH1 0x1F DUP6 ADD PUSH1 0x5 SHR DUP2 ADD PUSH1 0x20 DUP7 LT ISZERO PUSH2 0x2649 JUMPI POP DUP1 JUMPDEST PUSH1 0x1F DUP6 ADD PUSH1 0x5 SHR DUP3 ADD SWAP2 POP JUMPDEST DUP2 DUP2 LT ISZERO PUSH2 0x1DAF JUMPI DUP3 DUP2 SSTORE PUSH1 0x1 ADD PUSH2 0x2655 JUMP JUMPDEST DUP2 MLOAD PUSH1 0x1 PUSH1 0x1 PUSH1 0x40 SHL SUB DUP2 GT ISZERO PUSH2 0x2681 JUMPI PUSH2 0x2681 PUSH2 0x1FBA JUMP JUMPDEST PUSH2 0x2695 DUP2 PUSH2 0x268F DUP5 SLOAD PUSH2 0x25E8 JUMP JUMPDEST DUP5 PUSH2 0x2622 JUMP JUMPDEST PUSH1 0x20 DUP1 PUSH1 0x1F DUP4 GT PUSH1 0x1 DUP2 EQ PUSH2 0x26CA JUMPI PUSH1 0x0 DUP5 ISZERO PUSH2 0x26B2 JUMPI POP DUP6 DUP4 ADD MLOAD JUMPDEST PUSH1 0x0 NOT PUSH1 0x3 DUP7 SWAP1 SHL SHR NOT AND PUSH1 0x1 DUP6 SWAP1 SHL OR DUP6 SSTORE PUSH2 0x1DAF JUMP JUMPDEST PUSH1 0x0 DUP6 DUP2 MSTORE PUSH1 0x20 DUP2 KECCAK256 PUSH1 0x1F NOT DUP7 AND SWAP2 JUMPDEST DUP3 DUP2 LT ISZERO PUSH2 0x26F9 JUMPI DUP9 DUP7 ADD MLOAD DUP3 SSTORE SWAP5 DUP5 ADD SWAP5 PUSH1 0x1 SWAP1 SWAP2 ADD SWAP1 DUP5 ADD PUSH2 0x26DA JUMP JUMPDEST POP DUP6 DUP3 LT ISZERO PUSH2 0x2717 JUMPI DUP8 DUP6 ADD MLOAD PUSH1 0x0 NOT PUSH1 0x3 DUP9 SWAP1 SHL PUSH1 0xF8 AND SHR NOT AND DUP2 SSTORE JUMPDEST POP POP POP POP POP PUSH1 0x1 SWAP1 DUP2 SHL ADD SWAP1 SSTORE POP JUMP JUMPDEST DUP2 DUP2 SUB DUP2 DUP2 GT ISZERO PUSH2 0x2592 JUMPI PUSH2 0x2592 PUSH2 0x2569 JUMP JUMPDEST PUSH1 0x0 PUSH1 0x20 DUP3 DUP5 SUB SLT ISZERO PUSH2 0x274C JUMPI PUSH1 0x0 DUP1 REVERT JUMPDEST POP MLOAD SWAP2 SWAP1 POP JUMP JUMPDEST DUP1 DUP3 MUL DUP2 ISZERO DUP3 DUP3 DIV DUP5 EQ OR PUSH2 0x2592 JUMPI PUSH2 0x2592 PUSH2 0x2569 JUMP INVALID LOG2 PUSH5 0x6970667358 0x22 SLT KECCAK256 0x4B SWAP1 SELFBALANCE 0xD4 PUSH32 0xE939111E5E857425CEBECB0690725E381EA9D09167639F0E3866BB64736F6C63 NUMBER STOP ADDMOD EQ STOP CALLER LOG2 PUSH5 0x6970667358 0x22 SLT KECCAK256 PUSH16 0x8792112906569E8078851479ED0CD10B 0xAA 0x28 0xD0 0xEE 0x24 0xC5 PUSH21 0x9AC3A46049A14FB064736F6C634300081400330000 "},"methodIdentifiers":{"adminToVotingInstance(address)":"2e4dd9a5","createUserVotingInstance()":"e6b6119c","createVotingInstance(address)":"7cbc6134","deleteVotingInstance(address)":"d2b7cc38","getAdminInstanceAddress(address)":"eebe578d","getVotingInstanceForVoter(uint256)":"e58a9b91","getVotingInstanceID(address)":"8899c254","idToVotingInstance(uint256)":"e99b9d2d","listAllVotingInstances()":"a8163cc0","nextUniqueID()":"3bac426a","setTokenAndFee(address,uint256)":"c63b5c2b","supremeAdministrator()":"0608978c","token()":"fc0c546a"}}}}}