{
  "_format": "hh-sol-artifact-1",
  "contractName": "SolidVoteToken",
  "sourceName": "contracts/SolidVoteToken.sol",
  "abi": [
    {
      "inputs": [],
      "stateMutability": "nonpayable",
      "type": "constructor"
    },
    {
      "inputs": [
        {
          "internalType": "address",
          "name": "spender",
          "type": "address"
        },
        {
          "internalType": "uint256",
          "name": "allowance",
          "type": "uint256"
        },
        {
          "internalType": "uint256",
          "name": "needed",
          "type": "uint256"
        }
      ],
      "name": "ERC20InsufficientAllowance",
      "type": "error"
    },
    {
      "inputs": [
        {
          "internalType": "address",
          "name": "sender",
          "type": "address"
        },
        {
          "internalType": "uint256",
          "name": "balance",
          "type": "uint256"
        },
        {
          "internalType": "uint256",
          "name": "needed",
          "type": "uint256"
        }
      ],
      "name": "ERC20InsufficientBalance",
      "type": "error"
    },
    {
      "inputs": [
        {
          "internalType": "address",
          "name": "approver",
          "type": "address"
        }
      ],
      "name": "ERC20InvalidApprover",
      "type": "error"
    },
    {
      "inputs": [
        {
          "internalType": "address",
          "name": "receiver",
          "type": "address"
        }
      ],
      "name": "ERC20InvalidReceiver",
      "type": "error"
    },
    {
      "inputs": [
        {
          "internalType": "address",
          "name": "sender",
          "type": "address"
        }
      ],
      "name": "ERC20InvalidSender",
      "type": "error"
    },
    {
      "inputs": [
        {
          "internalType": "address",
          "name": "spender",
          "type": "address"
        }
      ],
      "name": "ERC20InvalidSpender",
      "type": "error"
    },
    {
      "anonymous": false,
      "inputs": [
        {
          "indexed": true,
          "internalType": "address",
          "name": "owner",
          "type": "address"
        },
        {
          "indexed": true,
          "internalType": "address",
          "name": "spender",
          "type": "address"
        },
        {
          "indexed": false,
          "internalType": "uint256",
          "name": "value",
          "type": "uint256"
        }
      ],
      "name": "Approval",
      "type": "event"
    },
    {
      "anonymous": false,
      "inputs": [
        {
          "indexed": true,
          "internalType": "address",
          "name": "from",
          "type": "address"
        },
        {
          "indexed": true,
          "internalType": "address",
          "name": "to",
          "type": "address"
        },
        {
          "indexed": false,
          "internalType": "uint256",
          "name": "value",
          "type": "uint256"
        }
      ],
      "name": "Transfer",
      "type": "event"
    },
    {
      "inputs": [
        {
          "internalType": "address",
          "name": "owner",
          "type": "address"
        },
        {
          "internalType": "address",
          "name": "spender",
          "type": "address"
        }
      ],
      "name": "allowance",
      "outputs": [
        {
          "internalType": "uint256",
          "name": "",
          "type": "uint256"
        }
      ],
      "stateMutability": "view",
      "type": "function"
    },
    {
      "inputs": [
        {
          "internalType": "address",
          "name": "spender",
          "type": "address"
        },
        {
          "internalType": "uint256",
          "name": "value",
          "type": "uint256"
        }
      ],
      "name": "approve",
      "outputs": [
        {
          "internalType": "bool",
          "name": "",
          "type": "bool"
        }
      ],
      "stateMutability": "nonpayable",
      "type": "function"
    },
    {
      "inputs": [
        {
          "internalType": "address",
          "name": "account",
          "type": "address"
        }
      ],
      "name": "balanceOf",
      "outputs": [
        {
          "internalType": "uint256",
          "name": "",
          "type": "uint256"
        }
      ],
      "stateMutability": "view",
      "type": "function"
    },
    {
      "inputs": [
        {
          "internalType": "uint256",
          "name": "value",
          "type": "uint256"
        }
      ],
      "name": "burn",
      "outputs": [],
      "stateMutability": "nonpayable",
      "type": "function"
    },
    {
      "inputs": [
        {
          "internalType": "address",
          "name": "account",
          "type": "address"
        },
        {
          "internalType": "uint256",
          "name": "value",
          "type": "uint256"
        }
      ],
      "name": "burnFrom",
      "outputs": [],
      "stateMutability": "nonpayable",
      "type": "function"
    },
    {
      "inputs": [],
      "name": "decimals",
      "outputs": [
        {
          "internalType": "uint8",
          "name": "",
          "type": "uint8"
        }
      ],
      "stateMutability": "view",
      "type": "function"
    },
    {
      "inputs": [],
      "name": "destroy",
      "outputs": [],
      "stateMutability": "nonpayable",
      "type": "function"
    },
    {
      "inputs": [],
      "name": "name",
      "outputs": [
        {
          "internalType": "string",
          "name": "",
          "type": "string"
        }
      ],
      "stateMutability": "view",
      "type": "function"
    },
    {
      "inputs": [],
      "name": "owner",
      "outputs": [
        {
          "internalType": "address",
          "name": "",
          "type": "address"
        }
      ],
      "stateMutability": "view",
      "type": "function"
    },
    {
      "inputs": [],
      "name": "symbol",
      "outputs": [
        {
          "internalType": "string",
          "name": "",
          "type": "string"
        }
      ],
      "stateMutability": "view",
      "type": "function"
    },
    {
      "inputs": [],
      "name": "totalSupply",
      "outputs": [
        {
          "internalType": "uint256",
          "name": "",
          "type": "uint256"
        }
      ],
      "stateMutability": "view",
      "type": "function"
    },
    {
      "inputs": [
        {
          "internalType": "address",
          "name": "to",
          "type": "address"
        },
        {
          "internalType": "uint256",
          "name": "value",
          "type": "uint256"
        }
      ],
      "name": "transfer",
      "outputs": [
        {
          "internalType": "bool",
          "name": "",
          "type": "bool"
        }
      ],
      "stateMutability": "nonpayable",
      "type": "function"
    },
    {
      "inputs": [
        {
          "internalType": "address",
          "name": "from",
          "type": "address"
        },
        {
          "internalType": "address",
          "name": "to",
          "type": "address"
        },
        {
          "internalType": "uint256",
          "name": "value",
          "type": "uint256"
        }
      ],
      "name": "transferFrom",
      "outputs": [
        {
          "internalType": "bool",
          "name": "",
          "type": "bool"
        }
      ],
      "stateMutability": "nonpayable",
      "type": "function"
    }
  ],
  "bytecode": "0x60806040523480156200001157600080fd5b5060405180604001604052806009815260200168536f6c6964566f746560b81b8152506040518060400160405280600381526020016229a7ab60e91b8152508160039081620000619190620002d7565b506004620000708282620002d7565b5050600580546001600160a01b03191633908117909155620000b7915062000096601290565b620000a390600a620004b8565b620000b190612710620004d0565b620000bd565b62000500565b6001600160a01b038216620000ed5760405163ec442f0560e01b8152600060048201526024015b60405180910390fd5b620000fb60008383620000ff565b5050565b6001600160a01b0383166200012e578060026000828254620001229190620004ea565b90915550620001a29050565b6001600160a01b03831660009081526020819052604090205481811015620001835760405163391434e360e21b81526001600160a01b03851660048201526024810182905260448101839052606401620000e4565b6001600160a01b03841660009081526020819052604090209082900390555b6001600160a01b038216620001c057600280548290039055620001df565b6001600160a01b03821660009081526020819052604090208054820190555b816001600160a01b0316836001600160a01b03167fddf252ad1be2c89b69c2b068fc378daa952ba7f163c4a11628f55a4df523b3ef836040516200022591815260200190565b60405180910390a3505050565b634e487b7160e01b600052604160045260246000fd5b600181811c908216806200025d57607f821691505b6020821081036200027e57634e487b7160e01b600052602260045260246000fd5b50919050565b601f821115620002d257600081815260208120601f850160051c81016020861015620002ad5750805b601f850160051c820191505b81811015620002ce57828155600101620002b9565b5050505b505050565b81516001600160401b03811115620002f357620002f362000232565b6200030b8162000304845462000248565b8462000284565b602080601f8311600181146200034357600084156200032a5750858301515b600019600386901b1c1916600185901b178555620002ce565b600085815260208120601f198616915b82811015620003745788860151825594840194600190910190840162000353565b5085821015620003935787850151600019600388901b60f8161c191681555b5050505050600190811b01905550565b634e487b7160e01b600052601160045260246000fd5b600181815b80851115620003fa578160001904821115620003de57620003de620003a3565b80851615620003ec57918102915b93841c9390800290620003be565b509250929050565b6000826200041357506001620004b2565b816200042257506000620004b2565b81600181146200043b5760028114620004465762000466565b6001915050620004b2565b60ff8411156200045a576200045a620003a3565b50506001821b620004b2565b5060208310610133831016604e8410600b84101617156200048b575081810a620004b2565b620004978383620003b9565b8060001904821115620004ae57620004ae620003a3565b0290505b92915050565b6000620004c960ff84168362000402565b9392505050565b8082028115828204841417620004b257620004b2620003a3565b80820180821115620004b257620004b2620003a3565b6108a280620005106000396000f3fe608060405234801561001057600080fd5b50600436106100cf5760003560e01c806370a082311161008c5780638da5cb5b116100665780638da5cb5b146101a257806395d89b41146101cd578063a9059cbb146101d5578063dd62ed3e146101e857600080fd5b806370a082311461015e57806379cc67901461018757806383197ef01461019a57600080fd5b806306fdde03146100d4578063095ea7b3146100f257806318160ddd1461011557806323b872dd14610127578063313ce5671461013a57806342966c6814610149575b600080fd5b6100dc610221565b6040516100e991906106d3565b60405180910390f35b61010561010036600461073d565b6102b3565b60405190151581526020016100e9565b6002545b6040519081526020016100e9565b610105610135366004610767565b6102cd565b604051601281526020016100e9565b61015c6101573660046107a3565b6102f1565b005b61011961016c3660046107bc565b6001600160a01b031660009081526020819052604090205490565b61015c61019536600461073d565b6102fe565b61015c610317565b6005546101b5906001600160a01b031681565b6040516001600160a01b0390911681526020016100e9565b6100dc610392565b6101056101e336600461073d565b6103a1565b6101196101f63660046107de565b6001600160a01b03918216600090815260016020908152604080832093909416825291909152205490565b60606003805461023090610811565b80601f016020809104026020016040519081016040528092919081815260200182805461025c90610811565b80156102a95780601f1061027e576101008083540402835291602001916102a9565b820191906000526020600020905b81548152906001019060200180831161028c57829003601f168201915b5050505050905090565b6000336102c18185856103af565b60019150505b92915050565b6000336102db8582856103c1565b6102e685858561043f565b506001949350505050565b6102fb338261049e565b50565b6103098233836103c1565b610313828261049e565b5050565b6005546001600160a01b031633146103845760405162461bcd60e51b815260206004820152602560248201527f4f6e6c7920746865206f776e65722063616e2063616c6c20746869732066756e60448201526431ba34b7b760d91b60648201526084015b60405180910390fd5b6005546001600160a01b0316ff5b60606004805461023090610811565b6000336102c181858561043f565b6103bc83838360016104d4565b505050565b6001600160a01b038381166000908152600160209081526040808320938616835292905220546000198114610439578181101561042a57604051637dc7a0d960e11b81526001600160a01b0384166004820152602481018290526044810183905260640161037b565b610439848484840360006104d4565b50505050565b6001600160a01b03831661046957604051634b637e8f60e11b81526000600482015260240161037b565b6001600160a01b0382166104935760405163ec442f0560e01b81526000600482015260240161037b565b6103bc8383836105a9565b6001600160a01b0382166104c857604051634b637e8f60e11b81526000600482015260240161037b565b610313826000836105a9565b6001600160a01b0384166104fe5760405163e602df0560e01b81526000600482015260240161037b565b6001600160a01b03831661052857604051634a1406b160e11b81526000600482015260240161037b565b6001600160a01b038085166000908152600160209081526040808320938716835292905220829055801561043957826001600160a01b0316846001600160a01b03167f8c5be1e5ebec7d5bd14f71427d1e84f3dd0314c0f7b2291e5b200ac8c7c3b9258460405161059b91815260200190565b60405180910390a350505050565b6001600160a01b0383166105d45780600260008282546105c9919061084b565b909155506106469050565b6001600160a01b038316600090815260208190526040902054818110156106275760405163391434e360e21b81526001600160a01b0385166004820152602481018290526044810183905260640161037b565b6001600160a01b03841660009081526020819052604090209082900390555b6001600160a01b03821661066257600280548290039055610681565b6001600160a01b03821660009081526020819052604090208054820190555b816001600160a01b0316836001600160a01b03167fddf252ad1be2c89b69c2b068fc378daa952ba7f163c4a11628f55a4df523b3ef836040516106c691815260200190565b60405180910390a3505050565b600060208083528351808285015260005b81811015610700578581018301518582016040015282016106e4565b506000604082860101526040601f19601f8301168501019250505092915050565b80356001600160a01b038116811461073857600080fd5b919050565b6000806040838503121561075057600080fd5b61075983610721565b946020939093013593505050565b60008060006060848603121561077c57600080fd5b61078584610721565b925061079360208501610721565b9150604084013590509250925092565b6000602082840312156107b557600080fd5b5035919050565b6000602082840312156107ce57600080fd5b6107d782610721565b9392505050565b600080604083850312156107f157600080fd5b6107fa83610721565b915061080860208401610721565b90509250929050565b600181811c9082168061082557607f821691505b60208210810361084557634e487b7160e01b600052602260045260246000fd5b50919050565b808201808211156102c757634e487b7160e01b600052601160045260246000fdfea2646970667358221220f8350b5b8ebe0c9756eb23050c081669fa3228248b19941a9dcb67a7124cedab64736f6c63430008140033",
  "linkReferences": {},
  "deployedLinkReferences": {}
}