{
  "_format": "hh-sol-artifact-1",
  "contractName": "Voting",
  "sourceName": "contracts/voting.sol",
  "abi": [
    {
      "inputs": [
        {
          "internalType": "address",
          "name": "_owner",
          "type": "address"
        },
        {
          "internalType": "uint256",
          "name": "_uniqueID",
          "type": "uint256"
        },
        {
          "internalType": "address",
          "name": "_supremeAdministrator",
          "type": "address"
        },
        {
          "internalType": "contract ERC20Burnable",
          "name": "_token",
          "type": "address"
        },
        {
          "internalType": "uint256",
          "name": "_feeAmount",
          "type": "uint256"
        }
      ],
      "stateMutability": "nonpayable",
      "type": "constructor"
    },
    {
      "anonymous": false,
      "inputs": [
        {
          "indexed": false,
          "internalType": "string",
          "name": "name",
          "type": "string"
        }
      ],
      "name": "CandidateAdded",
      "type": "event"
    },
    {
      "anonymous": false,
      "inputs": [
        {
          "indexed": true,
          "internalType": "address",
          "name": "previousOwner",
          "type": "address"
        },
        {
          "indexed": true,
          "internalType": "address",
          "name": "newOwner",
          "type": "address"
        }
      ],
      "name": "OwnershipTransferred",
      "type": "event"
    },
    {
      "anonymous": false,
      "inputs": [
        {
          "indexed": true,
          "internalType": "address",
          "name": "voter",
          "type": "address"
        },
        {
          "indexed": false,
          "internalType": "uint256",
          "name": "candidateIndex",
          "type": "uint256"
        }
      ],
      "name": "Voted",
      "type": "event"
    },
    {
      "anonymous": false,
      "inputs": [
        {
          "indexed": true,
          "internalType": "address",
          "name": "owner",
          "type": "address"
        }
      ],
      "name": "VotingInitialized",
      "type": "event"
    },
    {
      "inputs": [
        {
          "internalType": "string",
          "name": "_name",
          "type": "string"
        }
      ],
      "name": "addCandidate",
      "outputs": [],
      "stateMutability": "nonpayable",
      "type": "function"
    },
    {
      "inputs": [
        {
          "internalType": "string[]",
          "name": "_names",
          "type": "string[]"
        }
      ],
      "name": "addCandidates",
      "outputs": [],
      "stateMutability": "nonpayable",
      "type": "function"
    },
    {
      "inputs": [
        {
          "internalType": "address[]",
          "name": "addresses",
          "type": "address[]"
        },
        {
          "internalType": "uint256[]",
          "name": "points",
          "type": "uint256[]"
        }
      ],
      "name": "addVoters",
      "outputs": [],
      "stateMutability": "nonpayable",
      "type": "function"
    },
    {
      "inputs": [],
      "name": "allowSeeResults",
      "outputs": [
        {
          "internalType": "bool",
          "name": "",
          "type": "bool"
        }
      ],
      "stateMutability": "view",
      "type": "function"
    },
    {
      "inputs": [],
      "name": "canSeeResults",
      "outputs": [
        {
          "internalType": "bool",
          "name": "",
          "type": "bool"
        }
      ],
      "stateMutability": "view",
      "type": "function"
    },
    {
      "inputs": [
        {
          "internalType": "uint256",
          "name": "",
          "type": "uint256"
        }
      ],
      "name": "candidates",
      "outputs": [
        {
          "internalType": "string",
          "name": "name",
          "type": "string"
        },
        {
          "internalType": "uint256",
          "name": "voteCount",
          "type": "uint256"
        }
      ],
      "stateMutability": "view",
      "type": "function"
    },
    {
      "inputs": [],
      "name": "clearCandidates",
      "outputs": [],
      "stateMutability": "nonpayable",
      "type": "function"
    },
    {
      "inputs": [],
      "name": "currentQuestion",
      "outputs": [
        {
          "internalType": "string",
          "name": "",
          "type": "string"
        }
      ],
      "stateMutability": "view",
      "type": "function"
    },
    {
      "inputs": [],
      "name": "feeAmount",
      "outputs": [
        {
          "internalType": "uint256",
          "name": "",
          "type": "uint256"
        }
      ],
      "stateMutability": "view",
      "type": "function"
    },
    {
      "inputs": [],
      "name": "getALLVotersAdressAndWeight",
      "outputs": [
        {
          "components": [
            {
              "internalType": "address",
              "name": "Adress",
              "type": "address"
            },
            {
              "internalType": "uint256",
              "name": "Points",
              "type": "uint256"
            }
          ],
          "internalType": "struct Voting.Voter[]",
          "name": "",
          "type": "tuple[]"
        }
      ],
      "stateMutability": "view",
      "type": "function"
    },
    {
      "inputs": [],
      "name": "getAllVotesOfCandidates",
      "outputs": [
        {
          "components": [
            {
              "internalType": "string",
              "name": "name",
              "type": "string"
            },
            {
              "internalType": "uint256",
              "name": "voteCount",
              "type": "uint256"
            }
          ],
          "internalType": "struct Voting.Candidate[]",
          "name": "",
          "type": "tuple[]"
        }
      ],
      "stateMutability": "view",
      "type": "function"
    },
    {
      "inputs": [],
      "name": "getAllVotesOfCandidatesAdmin",
      "outputs": [
        {
          "components": [
            {
              "internalType": "string",
              "name": "name",
              "type": "string"
            },
            {
              "internalType": "uint256",
              "name": "voteCount",
              "type": "uint256"
            }
          ],
          "internalType": "struct Voting.Candidate[]",
          "name": "",
          "type": "tuple[]"
        }
      ],
      "stateMutability": "view",
      "type": "function"
    },
    {
      "inputs": [],
      "name": "getCandidateNames",
      "outputs": [
        {
          "internalType": "string[]",
          "name": "",
          "type": "string[]"
        }
      ],
      "stateMutability": "view",
      "type": "function"
    },
    {
      "inputs": [],
      "name": "getRemainingTime",
      "outputs": [
        {
          "internalType": "uint256",
          "name": "",
          "type": "uint256"
        }
      ],
      "stateMutability": "view",
      "type": "function"
    },
    {
      "inputs": [],
      "name": "getUniqueID",
      "outputs": [
        {
          "internalType": "uint256",
          "name": "",
          "type": "uint256"
        }
      ],
      "stateMutability": "view",
      "type": "function"
    },
    {
      "inputs": [],
      "name": "getVotingStatus",
      "outputs": [
        {
          "internalType": "bool",
          "name": "",
          "type": "bool"
        }
      ],
      "stateMutability": "view",
      "type": "function"
    },
    {
      "inputs": [],
      "name": "getVotingTitle",
      "outputs": [
        {
          "internalType": "string",
          "name": "",
          "type": "string"
        }
      ],
      "stateMutability": "view",
      "type": "function"
    },
    {
      "inputs": [],
      "name": "hasUserVoted",
      "outputs": [
        {
          "internalType": "bool",
          "name": "",
          "type": "bool"
        }
      ],
      "stateMutability": "view",
      "type": "function"
    },
    {
      "inputs": [
        {
          "internalType": "address",
          "name": "_owner",
          "type": "address"
        },
        {
          "internalType": "uint256",
          "name": "_uniqueID",
          "type": "uint256"
        },
        {
          "internalType": "address",
          "name": "_supremeAdministrator",
          "type": "address"
        },
        {
          "internalType": "contract ERC20Burnable",
          "name": "_token",
          "type": "address"
        },
        {
          "internalType": "uint256",
          "name": "_feeAmount",
          "type": "uint256"
        }
      ],
      "name": "initialize",
      "outputs": [],
      "stateMutability": "nonpayable",
      "type": "function"
    },
    {
      "inputs": [],
      "name": "isOwner",
      "outputs": [
        {
          "internalType": "bool",
          "name": "",
          "type": "bool"
        }
      ],
      "stateMutability": "view",
      "type": "function"
    },
    {
      "inputs": [
        {
          "internalType": "address",
          "name": "",
          "type": "address"
        }
      ],
      "name": "lastVotedSession",
      "outputs": [
        {
          "internalType": "uint256",
          "name": "",
          "type": "uint256"
        }
      ],
      "stateMutability": "view",
      "type": "function"
    },
    {
      "inputs": [],
      "name": "owner",
      "outputs": [
        {
          "internalType": "address",
          "name": "",
          "type": "address"
        }
      ],
      "stateMutability": "view",
      "type": "function"
    },
    {
      "inputs": [],
      "name": "resetVoters",
      "outputs": [],
      "stateMutability": "nonpayable",
      "type": "function"
    },
    {
      "inputs": [
        {
          "internalType": "contract ERC20Burnable",
          "name": "_token",
          "type": "address"
        },
        {
          "internalType": "uint256",
          "name": "_feeAmount",
          "type": "uint256"
        }
      ],
      "name": "setTokenAddressAndFee",
      "outputs": [],
      "stateMutability": "nonpayable",
      "type": "function"
    },
    {
      "inputs": [
        {
          "internalType": "uint256",
          "name": "_durationInMinutes",
          "type": "uint256"
        },
        {
          "internalType": "address[]",
          "name": "glasaci",
          "type": "address[]"
        },
        {
          "internalType": "uint256[]",
          "name": "points",
          "type": "uint256[]"
        },
        {
          "internalType": "string[]",
          "name": "names",
          "type": "string[]"
        },
        {
          "internalType": "string",
          "name": "question",
          "type": "string"
        },
        {
          "internalType": "bool",
          "name": "allowVoterSeeResults",
          "type": "bool"
        },
        {
          "internalType": "address[]",
          "name": "recipients",
          "type": "address[]"
        },
        {
          "internalType": "uint256",
          "name": "amount",
          "type": "uint256"
        },
        {
          "internalType": "uint256",
          "name": "_totalamount",
          "type": "uint256"
        }
      ],
      "name": "startVoting",
      "outputs": [],
      "stateMutability": "payable",
      "type": "function"
    },
    {
      "inputs": [],
      "name": "stopVoting",
      "outputs": [],
      "stateMutability": "nonpayable",
      "type": "function"
    },
    {
      "inputs": [],
      "name": "supremeAdministrator",
      "outputs": [
        {
          "internalType": "address",
          "name": "",
          "type": "address"
        }
      ],
      "stateMutability": "view",
      "type": "function"
    },
    {
      "inputs": [],
      "name": "token",
      "outputs": [
        {
          "internalType": "contract ERC20Burnable",
          "name": "",
          "type": "address"
        }
      ],
      "stateMutability": "view",
      "type": "function"
    },
    {
      "inputs": [
        {
          "internalType": "address",
          "name": "newOwner",
          "type": "address"
        }
      ],
      "name": "transferOwnership",
      "outputs": [],
      "stateMutability": "nonpayable",
      "type": "function"
    },
    {
      "inputs": [],
      "name": "uniqueID",
      "outputs": [
        {
          "internalType": "uint256",
          "name": "",
          "type": "uint256"
        }
      ],
      "stateMutability": "view",
      "type": "function"
    },
    {
      "inputs": [
        {
          "internalType": "uint256",
          "name": "_candidateIndex",
          "type": "uint256"
        }
      ],
      "name": "vote",
      "outputs": [],
      "stateMutability": "nonpayable",
      "type": "function"
    },
    {
      "inputs": [
        {
          "internalType": "address",
          "name": "",
          "type": "address"
        }
      ],
      "name": "voterPoints",
      "outputs": [
        {
          "internalType": "uint256",
          "name": "",
          "type": "uint256"
        }
      ],
      "stateMutability": "view",
      "type": "function"
    },
    {
      "inputs": [],
      "name": "votingEnd",
      "outputs": [
        {
          "internalType": "uint256",
          "name": "",
          "type": "uint256"
        }
      ],
      "stateMutability": "view",
      "type": "function"
    },
    {
      "inputs": [],
      "name": "votingSessionId",
      "outputs": [
        {
          "internalType": "uint256",
          "name": "",
          "type": "uint256"
        }
      ],
      "stateMutability": "view",
      "type": "function"
    },
    {
      "inputs": [],
      "name": "votingStart",
      "outputs": [
        {
          "internalType": "uint256",
          "name": "",
          "type": "uint256"
        }
      ],
      "stateMutability": "view",
      "type": "function"
    }
  ],
  "bytecode": "0x60806040523480156200001157600080fd5b506040516200294f3803806200294f833981016040819052620000349162000137565b6001546001600160a01b031615620000925760405162461bcd60e51b815260206004820152601460248201527f416c726561647920696e697469616c697a65642e000000000000000000000000604482015260640160405180910390fd5b600180546001600160a01b038088166001600160a01b03199283168117845560078890556003939093556008805487831661010002610100600160a81b03199091161790556009805491861691909216179055600a8290556040517fa9fcdaa1f6042c63ab0786fd526a2c78ae5c6fb77f547b49c99684886baa060c90600090a250505050506200019f565b6001600160a01b03811681146200013457600080fd5b50565b600080600080600060a086880312156200015057600080fd5b85516200015d816200011e565b60208701516040880151919650945062000177816200011e565b60608701519093506200018a816200011e565b80925050608086015190509295509295909350565b6127a080620001af6000396000f3fe6080604052600436106102045760003560e01c80638da5cb5b11610118578063c2e378aa116100a0578063f2fde38b1161006f578063f2fde38b146105b0578063fab2f86b146105d0578063fbb08e3e146105e5578063fc0c546a14610605578063fc35fe0d1461062557600080fd5b8063c2e378aa14610551578063e7dea02214610566578063ebc3f99e1461057b578063efb98bcf1461059b57600080fd5b806397371c04116100e757806397371c04146104b3578063a999e562146104d9578063b1cb0c21146104f9578063b293a6d11461050e578063bb20844e1461053b57600080fd5b80638da5cb5b1461042f5780638f32d59b1461044f57806390a9ab901461046f57806393d8bc051461049157600080fd5b8063462e91ec1161019b5780635c179f7e1161016a5780635c179f7e146103b657806369e15404146103cb57806372b9d616146103e157806385a38635146104035780638bc533e91461041957600080fd5b8063462e91ec1461033f578063553bd3971461035f578063581c281c146103745780635a4128ab1461038957600080fd5b8063161d4c22116101d7578063161d4c22146102b35780632a1d0547146102d75780633477ee2e146102f757806337b45f401461032557600080fd5b80630121b93f146102095780630608978c1461022b5780630e07f8801461026d578063101158af1461028f575b600080fd5b34801561021557600080fd5b50610229610224366004611e71565b610638565b005b34801561023757600080fd5b506008546102509061010090046001600160a01b031681565b6040516001600160a01b0390911681526020015b60405180910390f35b34801561027957600080fd5b50610282610849565b6040516102649190611e8a565b34801561029b57600080fd5b506102a560045481565b604051908152602001610264565b3480156102bf57600080fd5b5060085460ff165b6040519015158152602001610264565b3480156102e357600080fd5b506102296102f2366004611ef7565b6109a8565b34801561030357600080fd5b50610317610312366004611e71565b610a80565b604051610264929190611f98565b34801561033157600080fd5b506008546102c79060ff1681565b34801561034b57600080fd5b5061022961035a36600461206f565b610b3c565b34801561036b57600080fd5b50610229610c04565b34801561038057600080fd5b506102c7610c98565b34801561039557600080fd5b506102a56103a43660046120ab565b60026020526000908152604090205481565b3480156103c257600080fd5b50610229610ce5565b3480156103d757600080fd5b506102a5600a5481565b3480156103ed57600080fd5b506103f6610d8d565b60405161026491906120cf565b34801561040f57600080fd5b506102a560055481565b34801561042557600080fd5b506102a560075481565b34801561043b57600080fd5b50600154610250906001600160a01b031681565b34801561045b57600080fd5b506001546001600160a01b031633146102c7565b34801561047b57600080fd5b50610484610f52565b6040516102649190612131565b34801561049d57600080fd5b506104a6611220565b60405161026491906121a7565b3480156104bf57600080fd5b5060035433600090815260026020526040902054106102c7565b3480156104e557600080fd5b506102296104f436600461226c565b611335565b34801561050557600080fd5b506104846113a3565b34801561051a57600080fd5b506102a56105293660046120ab565b600b6020526000908152604090205481565b34801561054757600080fd5b506102a560035481565b34801561055d57600080fd5b506102a56114c0565b34801561057257600080fd5b506104a66114f4565b34801561058757600080fd5b5061022961059636600461235f565b611582565b3480156105a757600080fd5b506102a5611685565b3480156105bc57600080fd5b506102296105cb3660046120ab565b611723565b3480156105dc57600080fd5b506102296117ff565b3480156105f157600080fd5b506102296106003660046123c2565b611899565b34801561061157600080fd5b50600954610250906001600160a01b031681565b61022961063336600461244e565b6119db565b600454421015801561064b575060055442105b6106945760405162461bcd60e51b81526020600482015260156024820152742b37ba34b7339034b9903737ba1030b1ba34bb329760591b60448201526064015b60405180910390fd5b60005481106106e55760405162461bcd60e51b815260206004820152601860248201527f496e76616c69642063616e64696461746520696e6465782e0000000000000000604482015260640161068b565b60035433600090815260026020526040902054106107555760405162461bcd60e51b815260206004820152602760248201527f596f75206861766520616c726561647920766f74656420696e2074686973207360448201526632b9b9b4b7b71760c91b606482015260840161068b565b336000908152600b60205260409020546107a95760405162461bcd60e51b81526020600482015260156024820152742737ba1032b634b3b4b13632903a37903b37ba329760591b604482015260640161068b565b336000908152600b6020526040812054815490918291849081106107cf576107cf612553565b906000526020600020906002020160010160008282546107ef919061257f565b909155505060035433600081815260026020526040908190209290925590517f4d99b957a2bc29a30ebd96a7be8e68fe50a3c701db28a91436490b7d53870ca49061083d9085815260200190565b60405180910390a25050565b6001546060906001600160a01b031633146108765760405162461bcd60e51b815260040161068b90612598565b600c546000906001600160401b0381111561089357610893611fba565b6040519080825280602002602001820160405280156108d857816020015b60408051808201909152600080825260208201528152602001906001900390816108b15790505b50905060005b600c548110156109a2576040518060400160405280600c838154811061090657610906612553565b9060005260206000200160009054906101000a90046001600160a01b03166001600160a01b03168152602001600b6000600c858154811061094957610949612553565b60009182526020808320909101546001600160a01b031683528201929092526040019020549052825183908390811061098457610984612553565b6020026020010181905250808061099a906125cf565b9150506108de565b50905090565b6001546001600160a01b0316156109f85760405162461bcd60e51b815260206004820152601460248201527320b63932b0b23c9034b734ba34b0b634bd32b21760611b604482015260640161068b565b600180546001600160a01b038088166001600160a01b03199283168117845560078890556003939093556008805487831661010002610100600160a81b03199091161790556009805491861691909216179055600a8290556040517fa9fcdaa1f6042c63ab0786fd526a2c78ae5c6fb77f547b49c99684886baa060c90600090a25050505050565b60008181548110610a9057600080fd5b9060005260206000209060020201600091509050806000018054610ab3906125e8565b80601f0160208091040260200160405190810160405280929190818152602001828054610adf906125e8565b8015610b2c5780601f10610b0157610100808354040283529160200191610b2c565b820191906000526020600020905b815481529060010190602001808311610b0f57829003601f168201915b5050505050908060010154905082565b6001546001600160a01b03163314610b665760405162461bcd60e51b815260040161068b90612598565b604080518082019091528181526000602082018190528054600181018255908052815160029091027f290decd9548b62a8d60345a988386fc84ba6bc95484008f6362f93160ef3e56301908190610bbd9082612668565b506020820151816001015550507ff29562dad1599aea0ebb142466120aab326d5efa8f839df82a9c064bf78e893881604051610bf991906121a7565b60405180910390a150565b6001546001600160a01b03163314610c2e5760405162461bcd60e51b815260040161068b90612598565b60005b600c54811015610c8957600b6000600c8381548110610c5257610c52612553565b60009182526020808320909101546001600160a01b0316835282019290925260400181205580610c81816125cf565b915050610c31565b50610c96600c6000611db8565b565b6001546000906001600160a01b0316331480610cc25750336000908152600b602052604090205415155b15610cdf576004544210158015610cda575060055442105b905090565b50600090565b6001546001600160a01b03163314610d0f5760405162461bcd60e51b815260040161068b90612598565b600454421080610d20575060055442115b610d825760405162461bcd60e51b815260206004820152602d60248201527f43616e6e6f7420636c6561722063616e6469646174657320647572696e67207660448201526c37ba34b733903832b934b7b21760991b606482015260840161068b565b610c96600080611dd9565b336000908152600b6020526040902054606090151580610db757506001546001600160a01b031633145b610e175760405162461bcd60e51b815260206004820152602b60248201527f596f7520617265206e6f7420656c696769626c6520746f20736565207468652060448201526a31b0b73234b230ba32b99760a91b606482015260840161068b565b600080546001600160401b03811115610e3257610e32611fba565b604051908082528060200260200182016040528015610e6557816020015b6060815260200190600190039081610e505790505b50905060005b6000548110156109a25760008181548110610e8857610e88612553565b90600052602060002090600202016000018054610ea4906125e8565b80601f0160208091040260200160405190810160405280929190818152602001828054610ed0906125e8565b8015610f1d5780601f10610ef257610100808354040283529160200191610f1d565b820191906000526020600020905b815481529060010190602001808311610f0057829003601f168201915b5050505050828281518110610f3457610f34612553565b60200260200101819052508080610f4a906125cf565b915050610e6b565b336000908152600b6020526040902054606090610fa95760405162461bcd60e51b81526020600482015260156024820152742737ba1032b634b3b4b13632903a37903b34b2bb9760591b604482015260640161068b565b60085460ff16156110ad576000805480602002602001604051908101604052809291908181526020016000905b828210156110a45783829060005260206000209060020201604051806040016040529081600082018054611009906125e8565b80601f0160208091040260200160405190810160405280929190818152602001828054611035906125e8565b80156110825780601f1061105757610100808354040283529160200191611082565b820191906000526020600020905b81548152906001019060200180831161106557829003601f168201915b5050505050815260200160018201548152505081526020019060010190610fd6565b50505050905090565b600080546001600160401b038111156110c8576110c8611fba565b60405190808252806020026020018201604052801561110e57816020015b6040805180820190915260608152600060208201528152602001906001900390816110e65790505b50905060005b6000548110156109a2576000818154811061113157611131612553565b9060005260206000209060020201600001805461114d906125e8565b80601f0160208091040260200160405190810160405280929190818152602001828054611179906125e8565b80156111c65780601f1061119b576101008083540402835291602001916111c6565b820191906000526020600020905b8154815290600101906020018083116111a957829003601f168201915b50505050508282815181106111dd576111dd612553565b602002602001015160000181905250600082828151811061120057611200612553565b602090810291909101810151015280611218816125cf565b915050611114565b336000908152600b602052604090205460609015158061124a57506001546001600160a01b031633145b6112a55760405162461bcd60e51b815260206004820152602660248201527f596f7520617265206e6f7420656c696769626c6520746f2073656520746865206044820152653a34ba36329760d11b606482015260840161068b565b600680546112b2906125e8565b80601f01602080910402602001604051908101604052809291908181526020018280546112de906125e8565b801561132b5780601f106113005761010080835404028352916020019161132b565b820191906000526020600020905b81548152906001019060200180831161130e57829003601f168201915b5050505050905090565b6001546001600160a01b0316331461135f5760405162461bcd60e51b815260040161068b90612598565b60005b815181101561139f5761138d82828151811061138057611380612553565b6020026020010151610b3c565b80611397816125cf565b915050611362565b5050565b6001546060906001600160a01b031633146113d05760405162461bcd60e51b815260040161068b90612598565b6000805480602002602001604051908101604052809291908181526020016000905b828210156110a45783829060005260206000209060020201604051806040016040529081600082018054611425906125e8565b80601f0160208091040260200160405190810160405280929190818152602001828054611451906125e8565b801561149e5780601f106114735761010080835404028352916020019161149e565b820191906000526020600020905b81548152906001019060200180831161148157829003601f168201915b50505050508152602001600182015481525050815260200190600101906113f2565b6001546000906001600160a01b031633146114ed5760405162461bcd60e51b815260040161068b90612598565b5060075490565b60068054611501906125e8565b80601f016020809104026020016040519081016040528092919081815260200182805461152d906125e8565b801561157a5780601f1061154f5761010080835404028352916020019161157a565b820191906000526020600020905b81548152906001019060200180831161155d57829003601f168201915b505050505081565b6001546001600160a01b031633146115ac5760405162461bcd60e51b815260040161068b90612598565b6115b4610c04565b60005b825181101561168057600c8382815181106115d4576115d4612553565b60209081029190910181015182546001810184556000938452919092200180546001600160a01b0319166001600160a01b03909216919091179055815182908290811061162357611623612553565b6020026020010151600b600085848151811061164157611641612553565b60200260200101516001600160a01b03166001600160a01b03168152602001908152602001600020819055508080611678906125cf565b9150506115b7565b505050565b6001546000906001600160a01b03163314806116af5750336000908152600b602052604090205415155b15610cdf576004544210156117065760405162461bcd60e51b815260206004820152601b60248201527f566f74696e6720686173206e6f742073746172746564207965742e0000000000604482015260640161068b565b60055442106117155750600090565b42600554610cda9190612727565b6001546001600160a01b0316331461174d5760405162461bcd60e51b815260040161068b90612598565b6001600160a01b0381166117a35760405162461bcd60e51b815260206004820152601e60248201527f4e6577206f776e657220697320746865207a65726f20616464726573732e0000604482015260640161068b565b6001546040516001600160a01b038084169216907f8be0079c531659141344cd1fd0a4f28419497f9722a3daafe3b4186f6b6457e090600090a3600180546001600160a01b0319166001600160a01b0392909216919091179055565b6001546001600160a01b031633146118295760405162461bcd60e51b815260040161068b90612598565b6005544211156118935760405162461bcd60e51b815260206004820152602f60248201527f566f74696e6720686173206e6f74206265656e2073746172746564206f72206160448201526e363932b0b23c9039ba37b83832b21760891b606482015260840161068b565b42600555565b60085461010090046001600160a01b031633146119085760405162461bcd60e51b815260206004820152602760248201527f43616c6c6572206973206e6f74207468652073757072656d652061646d696e6960448201526639ba3930ba37b960c91b606482015260840161068b565b6001600160a01b0382166119575760405162461bcd60e51b815260206004820152601660248201527524b73b30b634b2103a37b5b2b71030b2323932b9b99760511b604482015260640161068b565b600081116119b55760405162461bcd60e51b815260206004820152602560248201527f46656520616d6f756e74206d7573742062652067726561746572207468616e206044820152643d32b9379760d91b606482015260840161068b565b600980546001600160a01b0319166001600160a01b039390931692909217909155600a55565b6001546001600160a01b03163314611a055760405162461bcd60e51b815260040161068b90612598565b426005541115611a7d5760405162461bcd60e51b815260206004820152603860248201527f566f74696e672068617320616c7265616479206265656e20737461727465642060448201527f6f7220686173206e6f74206265656e2073746f707065642e0000000000000000606482015260840161068b565b80341015611ae15760405162461bcd60e51b815260206004820152602b60248201527f4e6f7420656e6f756768204554482073656e7420666f722074686520766f746960448201526a373390383937b1b2b9b99760a91b606482015260840161068b565b600954604051636eb1769f60e11b81523360048201523060248201526000916001600160a01b03169063dd62ed3e90604401602060405180830381865afa158015611b30573d6000803e3d6000fd5b505050506040513d601f19601f82011682018060405250810190611b54919061273a565b9050600a54811015611bb75760405162461bcd60e51b815260206004820152602660248201527f4e6f7420656e6f75676820746f6b656e7320617070726f76656420666f72206260448201526575726e696e6760d01b606482015260840161068b565b600954600a5460405163079cc67960e41b815233600482015260248101919091526001600160a01b03909116906379cc679090604401600060405180830381600087803b158015611c0757600080fd5b505af1158015611c1b573d6000803e3d6000fd5b50505050611c2b85858585611c9f565b611c33610ce5565b611c3d8a8a611582565b611c4688611335565b6006611c528882612668565b5042600455611c628b603c612753565b611c6c904261257f565b6005556008805460ff191687151517905560038054906000611c8d836125cf565b91905055505050505050505050505050565b80341015611ce65760405162461bcd60e51b81526020600482015260146024820152732737ba1032b737bab3b41022aa241039b2b73a1760611b604482015260640161068b565b60005b83811015611d6357848482818110611d0357611d03612553565b9050602002016020810190611d1891906120ab565b6001600160a01b03166108fc849081150290604051600060405180830381858888f19350505050158015611d50573d6000803e3d6000fd5b5080611d5b816125cf565b915050611ce9565b506000611d708385612753565b611d7a9083612727565b90508015611db157604051339082156108fc029083906000818181858888f19350505050158015611daf573d6000803e3d6000fd5b505b5050505050565b5080546000825590600052602060002090810190611dd69190611dfa565b50565b5080546000825560020290600052602060002090810190611dd69190611e13565b5b80821115611e0f5760008155600101611dfb565b5090565b80821115611e0f576000611e278282611e37565b5060006001820155600201611e13565b508054611e43906125e8565b6000825580601f10611e53575050565b601f016020900490600052602060002090810190611dd69190611dfa565b600060208284031215611e8357600080fd5b5035919050565b602080825282518282018190526000919060409081850190868401855b82811015611ed557815180516001600160a01b03168552860151868501529284019290850190600101611ea7565b5091979650505050505050565b6001600160a01b0381168114611dd657600080fd5b600080600080600060a08688031215611f0f57600080fd5b8535611f1a81611ee2565b9450602086013593506040860135611f3181611ee2565b92506060860135611f4181611ee2565b949793965091946080013592915050565b6000815180845260005b81811015611f7857602081850181015186830182015201611f5c565b506000602082860101526020601f19601f83011685010191505092915050565b604081526000611fab6040830185611f52565b90508260208301529392505050565b634e487b7160e01b600052604160045260246000fd5b604051601f8201601f191681016001600160401b0381118282101715611ff857611ff8611fba565b604052919050565b600082601f83011261201157600080fd5b81356001600160401b0381111561202a5761202a611fba565b61203d601f8201601f1916602001611fd0565b81815284602083860101111561205257600080fd5b816020850160208301376000918101602001919091529392505050565b60006020828403121561208157600080fd5b81356001600160401b0381111561209757600080fd5b6120a384828501612000565b949350505050565b6000602082840312156120bd57600080fd5b81356120c881611ee2565b9392505050565b6000602080830181845280855180835260408601915060408160051b870101925083870160005b8281101561212457603f19888603018452612112858351611f52565b945092850192908501906001016120f6565b5092979650505050505050565b60006020808301818452808551808352604092508286019150828160051b87010184880160005b8381101561219957888303603f190185528151805187855261217c88860182611f52565b918901519489019490945294870194925090860190600101612158565b509098975050505050505050565b6020815260006120c86020830184611f52565b60006001600160401b038211156121d3576121d3611fba565b5060051b60200190565b600082601f8301126121ee57600080fd5b813560206122036121fe836121ba565b611fd0565b82815260059290921b8401810191818101908684111561222257600080fd5b8286015b848110156122615780356001600160401b038111156122455760008081fd5b6122538986838b0101612000565b845250918301918301612226565b509695505050505050565b60006020828403121561227e57600080fd5b81356001600160401b0381111561229457600080fd5b6120a3848285016121dd565b600082601f8301126122b157600080fd5b813560206122c16121fe836121ba565b82815260059290921b840181019181810190868411156122e057600080fd5b8286015b848110156122615780356122f781611ee2565b83529183019183016122e4565b600082601f83011261231557600080fd5b813560206123256121fe836121ba565b82815260059290921b8401810191818101908684111561234457600080fd5b8286015b848110156122615780358352918301918301612348565b6000806040838503121561237257600080fd5b82356001600160401b038082111561238957600080fd5b612395868387016122a0565b935060208501359150808211156123ab57600080fd5b506123b885828601612304565b9150509250929050565b600080604083850312156123d557600080fd5b82356123e081611ee2565b946020939093013593505050565b803580151581146123fe57600080fd5b919050565b60008083601f84011261241557600080fd5b5081356001600160401b0381111561242c57600080fd5b6020830191508360208260051b850101111561244757600080fd5b9250929050565b6000806000806000806000806000806101208b8d03121561246e57600080fd5b8a35995060208b01356001600160401b038082111561248c57600080fd5b6124988e838f016122a0565b9a5060408d01359150808211156124ae57600080fd5b6124ba8e838f01612304565b995060608d01359150808211156124d057600080fd5b6124dc8e838f016121dd565b985060808d01359150808211156124f257600080fd5b6124fe8e838f01612000565b975061250c60a08e016123ee565b965060c08d013591508082111561252257600080fd5b5061252f8d828e01612403565b9b9e9a9d50989b979a969995989760e0810135966101009091013595509350505050565b634e487b7160e01b600052603260045260246000fd5b634e487b7160e01b600052601160045260246000fd5b8082018082111561259257612592612569565b92915050565b60208082526017908201527f43616c6c6572206973206e6f7420746865206f776e6572000000000000000000604082015260600190565b6000600182016125e1576125e1612569565b5060010190565b600181811c908216806125fc57607f821691505b60208210810361261c57634e487b7160e01b600052602260045260246000fd5b50919050565b601f82111561168057600081815260208120601f850160051c810160208610156126495750805b601f850160051c820191505b81811015611daf57828155600101612655565b81516001600160401b0381111561268157612681611fba565b6126958161268f84546125e8565b84612622565b602080601f8311600181146126ca57600084156126b25750858301515b600019600386901b1c1916600185901b178555611daf565b600085815260208120601f198616915b828110156126f9578886015182559484019460019091019084016126da565b50858210156127175787850151600019600388901b60f8161c191681555b5050505050600190811b01905550565b8181038181111561259257612592612569565b60006020828403121561274c57600080fd5b5051919050565b80820281158282048414176125925761259261256956fea26469706673582212204b9047d47fe939111e5e857425cebecb0690725e381ea9d09167639f0e3866bb64736f6c63430008140033",
  "linkReferences": {},
  "deployedLinkReferences": {}
}